{
  "_format": "hh-sol-artifact-1",
  "contractName": "Clans",
  "sourceName": "contracts/Clans.sol",
  "abi": [
    {
      "inputs": [
        {
          "internalType": "string",
          "name": "_baseURI",
          "type": "string"
        },
        {
          "internalType": "address",
          "name": "_oxgnToken",
          "type": "address"
        },
        {
          "internalType": "address",
          "name": "_y2123Nft",
          "type": "address"
        }
      ],
      "stateMutability": "nonpayable",
      "type": "constructor"
    },
    {
      "anonymous": false,
      "inputs": [
        {
          "indexed": true,
          "internalType": "address",
          "name": "account",
          "type": "address"
        },
        {
          "indexed": true,
          "internalType": "address",
          "name": "operator",
          "type": "address"
        },
        {
          "indexed": false,
          "internalType": "bool",
          "name": "approved",
          "type": "bool"
        }
      ],
      "name": "ApprovalForAll",
      "type": "event"
    },
    {
      "anonymous": false,
      "inputs": [
        {
          "indexed": true,
          "internalType": "address",
          "name": "addr",
          "type": "address"
        },
        {
          "indexed": true,
          "internalType": "uint256",
          "name": "id",
          "type": "uint256"
        },
        {
          "indexed": false,
          "internalType": "uint256",
          "name": "amount",
          "type": "uint256"
        }
      ],
      "name": "Burned",
      "type": "event"
    },
    {
      "anonymous": false,
      "inputs": [
        {
          "indexed": true,
          "internalType": "address",
          "name": "oldLeader",
          "type": "address"
        },
        {
          "indexed": true,
          "internalType": "address",
          "name": "newLeader",
          "type": "address"
        },
        {
          "indexed": true,
          "internalType": "uint256",
          "name": "clanId",
          "type": "uint256"
        },
        {
          "indexed": false,
          "internalType": "uint256",
          "name": "clanTokens",
          "type": "uint256"
        }
      ],
      "name": "ChangeLeader",
      "type": "event"
    },
    {
      "anonymous": false,
      "inputs": [
        {
          "indexed": true,
          "internalType": "address",
          "name": "addr",
          "type": "address"
        },
        {
          "indexed": false,
          "internalType": "uint256",
          "name": "oxgnTokenClaim",
          "type": "uint256"
        },
        {
          "indexed": false,
          "internalType": "uint256",
          "name": "oxgnTokenDonate",
          "type": "uint256"
        },
        {
          "indexed": true,
          "internalType": "uint256",
          "name": "clanId",
          "type": "uint256"
        },
        {
          "indexed": false,
          "internalType": "uint256",
          "name": "clanTokenClaim",
          "type": "uint256"
        },
        {
          "indexed": true,
          "internalType": "address",
          "name": "benificiaryOfTax",
          "type": "address"
        },
        {
          "indexed": false,
          "internalType": "uint256",
          "name": "oxgnTokenTax",
          "type": "uint256"
        },
        {
          "indexed": false,
          "internalType": "uint256",
          "name": "servertime",
          "type": "uint256"
        }
      ],
      "name": "Claim",
      "type": "event"
    },
    {
      "anonymous": false,
      "inputs": [
        {
          "indexed": true,
          "internalType": "address",
          "name": "leader",
          "type": "address"
        },
        {
          "indexed": true,
          "internalType": "uint256",
          "name": "clanId",
          "type": "uint256"
        },
        {
          "indexed": true,
          "internalType": "uint256",
          "name": "colonyId",
          "type": "uint256"
        }
      ],
      "name": "ClanCreated",
      "type": "event"
    },
    {
      "anonymous": false,
      "inputs": [
        {
          "indexed": true,
          "internalType": "address",
          "name": "addr",
          "type": "address"
        },
        {
          "indexed": true,
          "internalType": "uint256",
          "name": "id",
          "type": "uint256"
        },
        {
          "indexed": false,
          "internalType": "uint256",
          "name": "amount",
          "type": "uint256"
        },
        {
          "indexed": false,
          "internalType": "bool",
          "name": "recipientOrigin",
          "type": "bool"
        }
      ],
      "name": "Minted",
      "type": "event"
    },
    {
      "anonymous": false,
      "inputs": [
        {
          "indexed": true,
          "internalType": "address",
          "name": "previousOwner",
          "type": "address"
        },
        {
          "indexed": true,
          "internalType": "address",
          "name": "newOwner",
          "type": "address"
        }
      ],
      "name": "OwnershipTransferred",
      "type": "event"
    },
    {
      "anonymous": false,
      "inputs": [
        {
          "indexed": false,
          "internalType": "uint256",
          "name": "tokenId",
          "type": "uint256"
        },
        {
          "indexed": false,
          "internalType": "address",
          "name": "contractAddress",
          "type": "address"
        },
        {
          "indexed": false,
          "internalType": "address",
          "name": "owner",
          "type": "address"
        },
        {
          "indexed": true,
          "internalType": "uint256",
          "name": "clanId",
          "type": "uint256"
        }
      ],
      "name": "Stake",
      "type": "event"
    },
    {
      "anonymous": false,
      "inputs": [
        {
          "indexed": true,
          "internalType": "address",
          "name": "addr",
          "type": "address"
        },
        {
          "indexed": true,
          "internalType": "uint256",
          "name": "oldClanId",
          "type": "uint256"
        },
        {
          "indexed": true,
          "internalType": "uint256",
          "name": "newClanId",
          "type": "uint256"
        },
        {
          "indexed": false,
          "internalType": "uint256",
          "name": "switchClanCost",
          "type": "uint256"
        }
      ],
      "name": "SwitchClan",
      "type": "event"
    },
    {
      "anonymous": false,
      "inputs": [
        {
          "indexed": true,
          "internalType": "address",
          "name": "leader",
          "type": "address"
        },
        {
          "indexed": true,
          "internalType": "uint256",
          "name": "clanId",
          "type": "uint256"
        },
        {
          "indexed": true,
          "internalType": "uint256",
          "name": "colonyId",
          "type": "uint256"
        }
      ],
      "name": "SwitchColony",
      "type": "event"
    },
    {
      "anonymous": false,
      "inputs": [
        {
          "indexed": true,
          "internalType": "address",
          "name": "operator",
          "type": "address"
        },
        {
          "indexed": true,
          "internalType": "address",
          "name": "from",
          "type": "address"
        },
        {
          "indexed": true,
          "internalType": "address",
          "name": "to",
          "type": "address"
        },
        {
          "indexed": false,
          "internalType": "uint256[]",
          "name": "ids",
          "type": "uint256[]"
        },
        {
          "indexed": false,
          "internalType": "uint256[]",
          "name": "values",
          "type": "uint256[]"
        }
      ],
      "name": "TransferBatch",
      "type": "event"
    },
    {
      "anonymous": false,
      "inputs": [
        {
          "indexed": true,
          "internalType": "address",
          "name": "operator",
          "type": "address"
        },
        {
          "indexed": true,
          "internalType": "address",
          "name": "from",
          "type": "address"
        },
        {
          "indexed": true,
          "internalType": "address",
          "name": "to",
          "type": "address"
        },
        {
          "indexed": false,
          "internalType": "uint256",
          "name": "id",
          "type": "uint256"
        },
        {
          "indexed": false,
          "internalType": "uint256",
          "name": "value",
          "type": "uint256"
        }
      ],
      "name": "TransferSingle",
      "type": "event"
    },
    {
      "anonymous": false,
      "inputs": [
        {
          "indexed": false,
          "internalType": "string",
          "name": "value",
          "type": "string"
        },
        {
          "indexed": true,
          "internalType": "uint256",
          "name": "id",
          "type": "uint256"
        }
      ],
      "name": "URI",
      "type": "event"
    },
    {
      "anonymous": false,
      "inputs": [
        {
          "indexed": false,
          "internalType": "uint256",
          "name": "tokenId",
          "type": "uint256"
        },
        {
          "indexed": false,
          "internalType": "address",
          "name": "contractAddress",
          "type": "address"
        },
        {
          "indexed": false,
          "internalType": "address",
          "name": "owner",
          "type": "address"
        }
      ],
      "name": "Unstake",
      "type": "event"
    },
    {
      "inputs": [
        {
          "internalType": "address",
          "name": "accountAddress",
          "type": "address"
        }
      ],
      "name": "accountNonce",
      "outputs": [
        {
          "internalType": "uint256",
          "name": "",
          "type": "uint256"
        }
      ],
      "stateMutability": "view",
      "type": "function"
    },
    {
      "inputs": [
        {
          "internalType": "address",
          "name": "",
          "type": "address"
        }
      ],
      "name": "accountToLastClaim",
      "outputs": [
        {
          "internalType": "uint256",
          "name": "oxgnTokenClaim",
          "type": "uint256"
        },
        {
          "internalType": "uint256",
          "name": "oxgnTokenDonate",
          "type": "uint256"
        },
        {
          "internalType": "uint256",
          "name": "clanId",
          "type": "uint256"
        },
        {
          "internalType": "uint256",
          "name": "clanTokenClaim",
          "type": "uint256"
        },
        {
          "internalType": "address",
          "name": "benificiaryOfTax",
          "type": "address"
        },
        {
          "internalType": "uint256",
          "name": "oxgnTokenTax",
          "type": "uint256"
        },
        {
          "internalType": "uint256",
          "name": "nonce",
          "type": "uint256"
        },
        {
          "internalType": "uint256",
          "name": "servertime",
          "type": "uint256"
        },
        {
          "internalType": "uint256",
          "name": "blocktime",
          "type": "uint256"
        }
      ],
      "stateMutability": "view",
      "type": "function"
    },
    {
      "inputs": [
        {
          "internalType": "address",
          "name": "addr",
          "type": "address"
        }
      ],
      "name": "addAdmin",
      "outputs": [],
      "stateMutability": "nonpayable",
      "type": "function"
    },
    {
      "inputs": [
        {
          "internalType": "address",
          "name": "contractAddress",
          "type": "address"
        }
      ],
      "name": "addContract",
      "outputs": [],
      "stateMutability": "nonpayable",
      "type": "function"
    },
    {
      "inputs": [
        {
          "internalType": "address",
          "name": "account",
          "type": "address"
        },
        {
          "internalType": "uint256",
          "name": "id",
          "type": "uint256"
        }
      ],
      "name": "balanceOf",
      "outputs": [
        {
          "internalType": "uint256",
          "name": "",
          "type": "uint256"
        }
      ],
      "stateMutability": "view",
      "type": "function"
    },
    {
      "inputs": [
        {
          "internalType": "address",
          "name": "owner",
          "type": "address"
        }
      ],
      "name": "balanceOf",
      "outputs": [
        {
          "internalType": "uint256",
          "name": "",
          "type": "uint256"
        }
      ],
      "stateMutability": "view",
      "type": "function"
    },
    {
      "inputs": [
        {
          "internalType": "address[]",
          "name": "accounts",
          "type": "address[]"
        },
        {
          "internalType": "uint256[]",
          "name": "ids",
          "type": "uint256[]"
        }
      ],
      "name": "balanceOfBatch",
      "outputs": [
        {
          "internalType": "uint256[]",
          "name": "",
          "type": "uint256[]"
        }
      ],
      "stateMutability": "view",
      "type": "function"
    },
    {
      "inputs": [
        {
          "internalType": "uint256",
          "name": "id",
          "type": "uint256"
        },
        {
          "internalType": "uint256",
          "name": "amount",
          "type": "uint256"
        }
      ],
      "name": "burn",
      "outputs": [],
      "stateMutability": "nonpayable",
      "type": "function"
    },
    {
      "inputs": [],
      "name": "changeLeaderPercentage",
      "outputs": [
        {
          "internalType": "uint256",
          "name": "",
          "type": "uint256"
        }
      ],
      "stateMutability": "view",
      "type": "function"
    },
    {
      "inputs": [
        {
          "internalType": "uint256",
          "name": "oxgnTokenClaim",
          "type": "uint256"
        },
        {
          "internalType": "uint256",
          "name": "oxgnTokenDonate",
          "type": "uint256"
        },
        {
          "internalType": "uint256",
          "name": "clanTokenClaim",
          "type": "uint256"
        },
        {
          "internalType": "address",
          "name": "benificiaryOfTax",
          "type": "address"
        },
        {
          "internalType": "uint256",
          "name": "oxgnTokenTax",
          "type": "uint256"
        },
        {
          "internalType": "uint256",
          "name": "timestamp",
          "type": "uint256"
        },
        {
          "internalType": "bytes",
          "name": "signature",
          "type": "bytes"
        }
      ],
      "name": "claim",
      "outputs": [],
      "stateMutability": "nonpayable",
      "type": "function"
    },
    {
      "inputs": [
        {
          "internalType": "address",
          "name": "contractAddress",
          "type": "address"
        },
        {
          "internalType": "address",
          "name": "owner",
          "type": "address"
        }
      ],
      "name": "claimableOfOwner",
      "outputs": [
        {
          "internalType": "uint256[]",
          "name": "stakedTimestamps",
          "type": "uint256[]"
        },
        {
          "internalType": "uint256[]",
          "name": "claimableTimestamps",
          "type": "uint256[]"
        }
      ],
      "stateMutability": "view",
      "type": "function"
    },
    {
      "inputs": [],
      "name": "clanIdTracker",
      "outputs": [
        {
          "internalType": "uint256",
          "name": "_value",
          "type": "uint256"
        }
      ],
      "stateMutability": "view",
      "type": "function"
    },
    {
      "inputs": [
        {
          "internalType": "address",
          "name": "",
          "type": "address"
        }
      ],
      "name": "clanStructs",
      "outputs": [
        {
          "internalType": "uint256",
          "name": "clanId",
          "type": "uint256"
        },
        {
          "internalType": "uint256",
          "name": "updateClanTimestamp",
          "type": "uint256"
        },
        {
          "internalType": "bool",
          "name": "isEntity",
          "type": "bool"
        }
      ],
      "stateMutability": "view",
      "type": "function"
    },
    {
      "inputs": [
        {
          "internalType": "uint256",
          "name": "",
          "type": "uint256"
        }
      ],
      "name": "clanToColony",
      "outputs": [
        {
          "internalType": "uint256",
          "name": "",
          "type": "uint256"
        }
      ],
      "stateMutability": "view",
      "type": "function"
    },
    {
      "inputs": [
        {
          "internalType": "uint256",
          "name": "",
          "type": "uint256"
        }
      ],
      "name": "clanToHighestOwnedAccount",
      "outputs": [
        {
          "internalType": "address",
          "name": "",
          "type": "address"
        }
      ],
      "stateMutability": "view",
      "type": "function"
    },
    {
      "inputs": [
        {
          "internalType": "uint256",
          "name": "",
          "type": "uint256"
        }
      ],
      "name": "clanToHighestOwnedCount",
      "outputs": [
        {
          "internalType": "uint256",
          "name": "",
          "type": "uint256"
        }
      ],
      "stateMutability": "view",
      "type": "function"
    },
    {
      "inputs": [
        {
          "internalType": "address",
          "name": "",
          "type": "address"
        }
      ],
      "name": "contracts",
      "outputs": [
        {
          "internalType": "bool",
          "name": "active",
          "type": "bool"
        },
        {
          "internalType": "contract IERC721",
          "name": "instance",
          "type": "address"
        }
      ],
      "stateMutability": "view",
      "type": "function"
    },
    {
      "inputs": [
        {
          "internalType": "uint256",
          "name": "colonyId",
          "type": "uint256"
        }
      ],
      "name": "createClan",
      "outputs": [],
      "stateMutability": "nonpayable",
      "type": "function"
    },
    {
      "inputs": [],
      "name": "createClanCostMultiplier",
      "outputs": [
        {
          "internalType": "uint256",
          "name": "",
          "type": "uint256"
        }
      ],
      "stateMutability": "view",
      "type": "function"
    },
    {
      "inputs": [],
      "name": "creatorInitialClanTokens",
      "outputs": [
        {
          "internalType": "uint256",
          "name": "",
          "type": "uint256"
        }
      ],
      "stateMutability": "view",
      "type": "function"
    },
    {
      "inputs": [
        {
          "internalType": "uint256",
          "name": "",
          "type": "uint256"
        }
      ],
      "name": "entityList",
      "outputs": [
        {
          "internalType": "address",
          "name": "",
          "type": "address"
        }
      ],
      "stateMutability": "view",
      "type": "function"
    },
    {
      "inputs": [],
      "name": "featureFlagCreateClan",
      "outputs": [
        {
          "internalType": "bool",
          "name": "",
          "type": "bool"
        }
      ],
      "stateMutability": "view",
      "type": "function"
    },
    {
      "inputs": [],
      "name": "featureFlagSwitchColony",
      "outputs": [
        {
          "internalType": "bool",
          "name": "",
          "type": "bool"
        }
      ],
      "stateMutability": "view",
      "type": "function"
    },
    {
      "inputs": [
        {
          "internalType": "uint256",
          "name": "clanId",
          "type": "uint256"
        }
      ],
      "name": "getAccountsInClan",
      "outputs": [
        {
          "internalType": "address[]",
          "name": "",
          "type": "address[]"
        }
      ],
      "stateMutability": "view",
      "type": "function"
    },
    {
      "inputs": [
        {
          "internalType": "uint256",
          "name": "clanId",
          "type": "uint256"
        }
      ],
      "name": "getChangeClanLeaderThreshold",
      "outputs": [
        {
          "internalType": "uint256",
          "name": "amount",
          "type": "uint256"
        }
      ],
      "stateMutability": "view",
      "type": "function"
    },
    {
      "inputs": [
        {
          "internalType": "uint256",
          "name": "colonyId",
          "type": "uint256"
        }
      ],
      "name": "getClanCountInColony",
      "outputs": [
        {
          "internalType": "uint256",
          "name": "clans",
          "type": "uint256"
        }
      ],
      "stateMutability": "view",
      "type": "function"
    },
    {
      "inputs": [
        {
          "internalType": "uint256",
          "name": "clanId",
          "type": "uint256"
        }
      ],
      "name": "getClanRecords",
      "outputs": [
        {
          "internalType": "address[]",
          "name": "entity",
          "type": "address[]"
        },
        {
          "internalType": "uint256[]",
          "name": "updateClanTimestamp",
          "type": "uint256[]"
        }
      ],
      "stateMutability": "view",
      "type": "function"
    },
    {
      "inputs": [
        {
          "internalType": "uint256",
          "name": "colonyId",
          "type": "uint256"
        }
      ],
      "name": "getClansInColony",
      "outputs": [
        {
          "internalType": "uint256[]",
          "name": "",
          "type": "uint256[]"
        }
      ],
      "stateMutability": "view",
      "type": "function"
    },
    {
      "inputs": [],
      "name": "getCreateClanCost",
      "outputs": [
        {
          "internalType": "uint256",
          "name": "amount",
          "type": "uint256"
        }
      ],
      "stateMutability": "view",
      "type": "function"
    },
    {
      "inputs": [
        {
          "internalType": "uint256",
          "name": "clanId",
          "type": "uint256"
        }
      ],
      "name": "getEntityClanCount",
      "outputs": [
        {
          "internalType": "uint256",
          "name": "entityCount",
          "type": "uint256"
        }
      ],
      "stateMutability": "view",
      "type": "function"
    },
    {
      "inputs": [],
      "name": "getEntityCount",
      "outputs": [
        {
          "internalType": "uint256",
          "name": "entityCount",
          "type": "uint256"
        }
      ],
      "stateMutability": "view",
      "type": "function"
    },
    {
      "inputs": [
        {
          "internalType": "uint256",
          "name": "clanId",
          "type": "uint256"
        }
      ],
      "name": "getSwitchClanCost",
      "outputs": [
        {
          "internalType": "uint256",
          "name": "amount",
          "type": "uint256"
        }
      ],
      "stateMutability": "view",
      "type": "function"
    },
    {
      "inputs": [
        {
          "internalType": "address",
          "name": "account",
          "type": "address"
        },
        {
          "internalType": "address",
          "name": "operator",
          "type": "address"
        }
      ],
      "name": "isApprovedForAll",
      "outputs": [
        {
          "internalType": "bool",
          "name": "",
          "type": "bool"
        }
      ],
      "stateMutability": "view",
      "type": "function"
    },
    {
      "inputs": [
        {
          "internalType": "address",
          "name": "entityAddress",
          "type": "address"
        }
      ],
      "name": "isClanLeader",
      "outputs": [
        {
          "internalType": "bool",
          "name": "",
          "type": "bool"
        }
      ],
      "stateMutability": "view",
      "type": "function"
    },
    {
      "inputs": [
        {
          "internalType": "address",
          "name": "entityAddress",
          "type": "address"
        }
      ],
      "name": "isEntity",
      "outputs": [
        {
          "internalType": "bool",
          "name": "isIndeed",
          "type": "bool"
        }
      ],
      "stateMutability": "view",
      "type": "function"
    },
    {
      "inputs": [],
      "name": "minClanInColony",
      "outputs": [
        {
          "internalType": "uint256",
          "name": "",
          "type": "uint256"
        }
      ],
      "stateMutability": "view",
      "type": "function"
    },
    {
      "inputs": [
        {
          "internalType": "address",
          "name": "recipient",
          "type": "address"
        },
        {
          "internalType": "uint256",
          "name": "id",
          "type": "uint256"
        },
        {
          "internalType": "uint256",
          "name": "amount",
          "type": "uint256"
        }
      ],
      "name": "mint",
      "outputs": [],
      "stateMutability": "nonpayable",
      "type": "function"
    },
    {
      "inputs": [],
      "name": "owner",
      "outputs": [
        {
          "internalType": "address",
          "name": "",
          "type": "address"
        }
      ],
      "stateMutability": "view",
      "type": "function"
    },
    {
      "inputs": [
        {
          "internalType": "uint256",
          "name": "tokenId",
          "type": "uint256"
        }
      ],
      "name": "ownerOf",
      "outputs": [
        {
          "internalType": "address",
          "name": "",
          "type": "address"
        }
      ],
      "stateMutability": "view",
      "type": "function"
    },
    {
      "inputs": [],
      "name": "oxgnToken",
      "outputs": [
        {
          "internalType": "contract IOxygen",
          "name": "",
          "type": "address"
        }
      ],
      "stateMutability": "view",
      "type": "function"
    },
    {
      "inputs": [
        {
          "internalType": "address",
          "name": "account",
          "type": "address"
        },
        {
          "internalType": "uint256",
          "name": "oxgnTokenClaim",
          "type": "uint256"
        },
        {
          "internalType": "uint256",
          "name": "oxgnTokenDonate",
          "type": "uint256"
        },
        {
          "internalType": "uint256",
          "name": "clanTokenClaim",
          "type": "uint256"
        },
        {
          "internalType": "address",
          "name": "benificiaryOfTax",
          "type": "address"
        },
        {
          "internalType": "uint256",
          "name": "oxgnTokenTax",
          "type": "uint256"
        },
        {
          "internalType": "uint256",
          "name": "nonce",
          "type": "uint256"
        },
        {
          "internalType": "uint256",
          "name": "timestamp",
          "type": "uint256"
        },
        {
          "internalType": "bytes",
          "name": "signature",
          "type": "bytes"
        }
      ],
      "name": "recoverAddress",
      "outputs": [
        {
          "internalType": "address",
          "name": "",
          "type": "address"
        }
      ],
      "stateMutability": "view",
      "type": "function"
    },
    {
      "inputs": [
        {
          "internalType": "address",
          "name": "addr",
          "type": "address"
        }
      ],
      "name": "removeAdmin",
      "outputs": [],
      "stateMutability": "nonpayable",
      "type": "function"
    },
    {
      "inputs": [],
      "name": "renounceOwnership",
      "outputs": [],
      "stateMutability": "nonpayable",
      "type": "function"
    },
    {
      "inputs": [
        {
          "internalType": "address",
          "name": "from",
          "type": "address"
        },
        {
          "internalType": "address",
          "name": "to",
          "type": "address"
        },
        {
          "internalType": "uint256[]",
          "name": "ids",
          "type": "uint256[]"
        },
        {
          "internalType": "uint256[]",
          "name": "amounts",
          "type": "uint256[]"
        },
        {
          "internalType": "bytes",
          "name": "data",
          "type": "bytes"
        }
      ],
      "name": "safeBatchTransferFrom",
      "outputs": [],
      "stateMutability": "nonpayable",
      "type": "function"
    },
    {
      "inputs": [
        {
          "internalType": "address",
          "name": "from",
          "type": "address"
        },
        {
          "internalType": "address",
          "name": "to",
          "type": "address"
        },
        {
          "internalType": "uint256",
          "name": "id",
          "type": "uint256"
        },
        {
          "internalType": "uint256",
          "name": "amount",
          "type": "uint256"
        },
        {
          "internalType": "bytes",
          "name": "data",
          "type": "bytes"
        }
      ],
      "name": "safeTransferFrom",
      "outputs": [],
      "stateMutability": "nonpayable",
      "type": "function"
    },
    {
      "inputs": [],
      "name": "serverToBlockTimeDelta",
      "outputs": [
        {
          "internalType": "uint256",
          "name": "",
          "type": "uint256"
        }
      ],
      "stateMutability": "view",
      "type": "function"
    },
    {
      "inputs": [
        {
          "internalType": "address",
          "name": "operator",
          "type": "address"
        },
        {
          "internalType": "bool",
          "name": "approved",
          "type": "bool"
        }
      ],
      "name": "setApprovalForAll",
      "outputs": [],
      "stateMutability": "nonpayable",
      "type": "function"
    },
    {
      "inputs": [
        {
          "internalType": "string",
          "name": "newBaseURI",
          "type": "string"
        }
      ],
      "name": "setBaseURI",
      "outputs": [],
      "stateMutability": "nonpayable",
      "type": "function"
    },
    {
      "inputs": [
        {
          "internalType": "uint256",
          "name": "newVal",
          "type": "uint256"
        }
      ],
      "name": "setChangeLeaderPercentage",
      "outputs": [],
      "stateMutability": "nonpayable",
      "type": "function"
    },
    {
      "inputs": [
        {
          "internalType": "uint256",
          "name": "newVal",
          "type": "uint256"
        }
      ],
      "name": "setCreateClanCostMultiplier",
      "outputs": [],
      "stateMutability": "nonpayable",
      "type": "function"
    },
    {
      "inputs": [
        {
          "internalType": "uint256",
          "name": "newVal",
          "type": "uint256"
        }
      ],
      "name": "setCreatorInitialClanTokens",
      "outputs": [],
      "stateMutability": "nonpayable",
      "type": "function"
    },
    {
      "inputs": [
        {
          "internalType": "uint256",
          "name": "newVal",
          "type": "uint256"
        }
      ],
      "name": "setMinClanInColony",
      "outputs": [],
      "stateMutability": "nonpayable",
      "type": "function"
    },
    {
      "inputs": [
        {
          "internalType": "uint256",
          "name": "newVal",
          "type": "uint256"
        }
      ],
      "name": "setServerToBlockTimeDelta",
      "outputs": [],
      "stateMutability": "nonpayable",
      "type": "function"
    },
    {
      "inputs": [
        {
          "internalType": "address",
          "name": "signerAddress",
          "type": "address"
        }
      ],
      "name": "setSignerAddress",
      "outputs": [],
      "stateMutability": "nonpayable",
      "type": "function"
    },
    {
      "inputs": [
        {
          "internalType": "uint256",
          "name": "newVal",
          "type": "uint256"
        }
      ],
      "name": "setSwitchClanCostBase",
      "outputs": [],
      "stateMutability": "nonpayable",
      "type": "function"
    },
    {
      "inputs": [
        {
          "internalType": "uint256",
          "name": "newVal",
          "type": "uint256"
        }
      ],
      "name": "setSwitchClanCostMultiplier",
      "outputs": [],
      "stateMutability": "nonpayable",
      "type": "function"
    },
    {
      "inputs": [
        {
          "internalType": "uint256",
          "name": "newVal",
          "type": "uint256"
        }
      ],
      "name": "setSwitchColonyCost",
      "outputs": [],
      "stateMutability": "nonpayable",
      "type": "function"
    },
    {
      "inputs": [
        {
          "internalType": "address",
          "name": "_oxgnToken",
          "type": "address"
        }
      ],
      "name": "setTokenContract",
      "outputs": [],
      "stateMutability": "nonpayable",
      "type": "function"
    },
    {
      "inputs": [
        {
          "internalType": "address",
          "name": "member",
          "type": "address"
        },
        {
          "internalType": "uint256",
          "name": "clanId",
          "type": "uint256"
        },
        {
          "internalType": "uint256",
          "name": "amount",
          "type": "uint256"
        }
      ],
      "name": "shouldChangeLeader",
      "outputs": [
        {
          "internalType": "bool",
          "name": "",
          "type": "bool"
        }
      ],
      "stateMutability": "view",
      "type": "function"
    },
    {
      "inputs": [
        {
          "internalType": "address",
          "name": "contractAddress",
          "type": "address"
        },
        {
          "internalType": "uint256[]",
          "name": "tokenIds",
          "type": "uint256[]"
        },
        {
          "internalType": "uint256",
          "name": "clanId",
          "type": "uint256"
        }
      ],
      "name": "stake",
      "outputs": [],
      "stateMutability": "nonpayable",
      "type": "function"
    },
    {
      "inputs": [
        {
          "internalType": "address",
          "name": "contractAddress",
          "type": "address"
        },
        {
          "internalType": "uint256",
          "name": "tokenId",
          "type": "uint256"
        }
      ],
      "name": "stakedTokenTimestamp",
      "outputs": [
        {
          "internalType": "uint256",
          "name": "",
          "type": "uint256"
        }
      ],
      "stateMutability": "view",
      "type": "function"
    },
    {
      "inputs": [
        {
          "internalType": "address",
          "name": "contractAddress",
          "type": "address"
        },
        {
          "internalType": "address",
          "name": "owner",
          "type": "address"
        }
      ],
      "name": "stakedTokensOfOwner",
      "outputs": [
        {
          "internalType": "uint256[]",
          "name": "",
          "type": "uint256[]"
        }
      ],
      "stateMutability": "view",
      "type": "function"
    },
    {
      "inputs": [
        {
          "internalType": "bytes4",
          "name": "interfaceId",
          "type": "bytes4"
        }
      ],
      "name": "supportsInterface",
      "outputs": [
        {
          "internalType": "bool",
          "name": "",
          "type": "bool"
        }
      ],
      "stateMutability": "view",
      "type": "function"
    },
    {
      "inputs": [],
      "name": "switchClanCostBase",
      "outputs": [
        {
          "internalType": "uint256",
          "name": "",
          "type": "uint256"
        }
      ],
      "stateMutability": "view",
      "type": "function"
    },
    {
      "inputs": [],
      "name": "switchClanCostMultiplier",
      "outputs": [
        {
          "internalType": "uint256",
          "name": "",
          "type": "uint256"
        }
      ],
      "stateMutability": "view",
      "type": "function"
    },
    {
      "inputs": [
        {
          "internalType": "uint256",
          "name": "clanId",
          "type": "uint256"
        },
        {
          "internalType": "uint256",
          "name": "colonyId",
          "type": "uint256"
        }
      ],
      "name": "switchColony",
      "outputs": [],
      "stateMutability": "nonpayable",
      "type": "function"
    },
    {
      "inputs": [],
      "name": "switchColonyCost",
      "outputs": [
        {
          "internalType": "uint256",
          "name": "",
          "type": "uint256"
        }
      ],
      "stateMutability": "view",
      "type": "function"
    },
    {
      "inputs": [],
      "name": "toggleFeatureFlagCreateClan",
      "outputs": [],
      "stateMutability": "nonpayable",
      "type": "function"
    },
    {
      "inputs": [],
      "name": "toggleFeatureFlagSwitchColony",
      "outputs": [],
      "stateMutability": "nonpayable",
      "type": "function"
    },
    {
      "inputs": [
        {
          "internalType": "address",
          "name": "newOwner",
          "type": "address"
        }
      ],
      "name": "transferOwnership",
      "outputs": [],
      "stateMutability": "nonpayable",
      "type": "function"
    },
    {
      "inputs": [
        {
          "internalType": "address",
          "name": "contractAddress",
          "type": "address"
        },
        {
          "internalType": "uint256[]",
          "name": "tokenIds",
          "type": "uint256[]"
        }
      ],
      "name": "unstake",
      "outputs": [],
      "stateMutability": "nonpayable",
      "type": "function"
    },
    {
      "inputs": [
        {
          "internalType": "address",
          "name": "contractAddress",
          "type": "address"
        },
        {
          "internalType": "bool",
          "name": "active",
          "type": "bool"
        }
      ],
      "name": "updateContract",
      "outputs": [],
      "stateMutability": "nonpayable",
      "type": "function"
    },
    {
      "inputs": [
        {
          "internalType": "uint256",
          "name": "clanId",
          "type": "uint256"
        }
      ],
      "name": "uri",
      "outputs": [
        {
          "internalType": "string",
          "name": "",
          "type": "string"
        }
      ],
      "stateMutability": "view",
      "type": "function"
    },
    {
      "inputs": [],
      "name": "withdrawForDonation",
      "outputs": [],
      "stateMutability": "nonpayable",
      "type": "function"
    },
    {
      "inputs": [],
      "name": "y2123Nft",
      "outputs": [
        {
          "internalType": "address",
          "name": "",
          "type": "address"
        }
      ],
      "stateMutability": "view",
      "type": "function"
    }
  ],
  "bytecode": "0x6101406040526007805461ffff191660019081179091556064600855600a600981905568056bc75e2d63100000905569021e19e0c9bab2400000600b55678ac7230489e80000600c55662386f26fc10000600d55600e55603c600f553480156200006857600080fd5b506040516200684b3803806200684b8339810160408190526200008b9162000fa4565b60405180604001604052806005815260200164793231323360d81b815250604051806040016040528060038152602001620312e360ec1b81525084620000d781620001f260201b60201c565b50815160208084019190912082519183019190912060e08290526101008190524660a0527f8b73c3c69bb8fe3d512ecc4cf759cc79239f7b179b0ffacaa9a75d522b39400f620001298184846200020b565b6080523060c05261012052506200014c9250620001469150503390565b62000255565b600160045582516200016690600590602086019062000e69565b506200017233620002a7565b6200017d8262000362565b6200018881620003cf565b601080546001600160a01b0319166001600160a01b038316179055620001bb60066200046c602090811b6200323817901c565b620001c7600162000475565b620001d3600262000475565b620001df600362000475565b50506007805460ff1916905550620012b5565b80516200020790600290602084019062000e69565b5050565b6040805160208101859052908101839052606081018290524660808201523060a082015260009060c0016040516020818303038152906040528051906020012090505b9392505050565b600380546001600160a01b038381166001600160a01b0319831681179093556040519116919082907f8be0079c531659141344cd1fd0a4f28419497f9722a3daafe3b4186f6b6457e090600090a35050565b6003546001600160a01b03163314620002f65760405162461bcd60e51b815260206004820181905260248201526000805160206200682b83398151915260448201526064015b60405180910390fd5b6001600160a01b0381166200033e5760405162461bcd60e51b815260206004820152600d60248201526c656d707479206164647265737360981b6044820152606401620002ed565b6001600160a01b03166000908152601260205260409020805460ff19166001179055565b6003546001600160a01b03163314620003ad5760405162461bcd60e51b815260206004820181905260248201526000805160206200682b8339815191526044820152606401620002ed565b601180546001600160a01b0319166001600160a01b0392909216919091179055565b6003546001600160a01b031633146200041a5760405162461bcd60e51b815260206004820181905260248201526000805160206200682b8339815191526044820152606401620002ed565b6001600160a01b0381166000818152601d6020908152604090912080546101009093026001600160a81b0319909316929092176001179091556200020790601f908390620032416200079c821b17901c565b80546001019055565b60026004541415620004ca5760405162461bcd60e51b815260206004820152601f60248201527f5265656e7472616e637947756172643a207265656e7472616e742063616c6c006044820152606401620002ed565b600260045560075460ff16620005235760405162461bcd60e51b815260206004820152601360248201527f66656174757265206e6f7420656e61626c6564000000000000000000000000006044820152606401620002ed565b600081118015620005345750600481105b620005825760405162461bcd60e51b815260206004820152601460248201527f6f6e6c79203320636f6c6f6e69657320657665720000000000000000000000006044820152606401620002ed565b6200058d33620007bc565b15620005e65760405162461bcd60e51b815260206004820152602160248201527f636c616e206c65616465722063616e277420637265617465206e657720636c616044820152603760f91b6064820152608401620002ed565b3360009081526012602052604090205460ff16620006e2573360009081526018602052604090206002015460ff16620006565760405162461bcd60e51b815260206004820152601160248201527036bab9ba1031329034b710309031b630b760791b6044820152606401620002ed565b60006200066262000818565b90508015620006e0576011546001600160a01b0316639dc29fac336040516001600160e01b031960e084901b1681526001600160a01b03909116600482015260248101849052604401600060405180830381600087803b158015620006c657600080fd5b505af1158015620006db573d6000803e3d6000fd5b505050505b505b6000620006fb60066200084560201b620032561760201c565b90508160156000838152602001908152602001600020819055506200072c60066200046c60201b620032381760201c565b6040518290829033907f098df9d435f5abb718c2804ce7d7b6550ff16ebbabc96ba0da01d4860e2c4b6590600090a4336000818152601860209081526040808320858155426001909101556008548151928301909152918152620007939291849162000849565b50506001600455565b6000620007b3836001600160a01b0384166200096c565b90505b92915050565b6001600160a01b03811660009081526018602052604081206002015460ff16156200081057506001600160a01b03908116600081815260186020908152604080832054835260149091529020549091161490565b506000919050565b6000600a546200083460066200084560201b620032561760201c565b62000840919062001082565b905090565b5490565b6001600160a01b038416620008ab5760405162461bcd60e51b815260206004820152602160248201527f455243313135353a206d696e7420746f20746865207a65726f206164647265736044820152607360f81b6064820152608401620002ed565b33620008d181600087620008bf88620009be565b620008ca88620009be565b8762000a0c565b6000848152602081815260408083206001600160a01b03891684529091528120805485929062000903908490620010a4565b909155505060408051858152602081018590526001600160a01b0380881692600092918516917fc3d58168c5ae7397731d063d5bbf3d657854427343f4c083240f7aacaa2d0f62910160405180910390a4620009658160008787878762000b53565b5050505050565b6000818152600183016020526040812054620009b557508154600181810184556000848152602080822090930184905584548482528286019093526040902091909155620007b6565b506000620007b6565b60408051600180825281830190925260609160009190602080830190803683370190505090508281600081518110620009fb57620009fb620010bf565b602090810291909101015292915050565b60005b835181101562000b2f57600084828151811062000a305762000a30620010bf565b60200260200101519050600084838151811062000a515762000a51620010bf565b602002602001015162000a6b888462000d2960201b60201c565b62000a779190620010a4565b905062000a8687838362000dbd565b1562000b19576000828152601460209081526040918290205491518381526001600160a01b03928316928592908b169184917fe5de49455cbc88f3dd9d0d5cb562cc7e6513716e573a5be2023a8b3a42a733ee910160405180910390a45060008281526013602090815260408083208490556014909152902080546001600160a01b0319166001600160a01b0389161790555b50508062000b2790620010d5565b905062000a0f565b5062000b4b86868686868662000b4b60201b6200325a1760201c565b505050505050565b62000b72846001600160a01b031662000e2760201b620032621760201c565b1562000b4b5760405163f23a6e6160e01b81526001600160a01b0385169063f23a6e619062000bae908990899088908890889060040162001121565b6020604051808303816000875af192505050801562000bec575060408051601f3d908101601f1916820190925262000be99181019062001168565b60015b62000cad5762000bfb62001194565b806308c379a0141562000c3c575062000c13620011b1565b8062000c20575062000c3e565b8060405162461bcd60e51b8152600401620002ed919062001240565b505b60405162461bcd60e51b815260206004820152603460248201527f455243313135353a207472616e7366657220746f206e6f6e204552433131353560448201527f526563656976657220696d706c656d656e7465720000000000000000000000006064820152608401620002ed565b6001600160e01b0319811663f23a6e6160e01b1462000d205760405162461bcd60e51b815260206004820152602860248201527f455243313135353a204552433131353552656365697665722072656a656374656044820152676420746f6b656e7360c01b6064820152608401620002ed565b50505050505050565b60006001600160a01b03831662000d975760405162461bcd60e51b815260206004820152602b60248201527f455243313135353a2062616c616e636520717565727920666f7220746865207a60448201526a65726f206164647265737360a81b6064820152608401620002ed565b506000908152602081815260408083206001600160a01b03949094168352929052205490565b6000828152601460205260408120546001600160a01b038581169116141562000de9575060006200024e565b6001600160a01b038416600090815260186020526040902054831462000e12575060006200024e565b62000e1d8362000e2d565b9091119392505050565b3b151590565b60006064600954606462000e429190620010a4565b60008481526013602052604090205462000e5d919062001082565b620007b6919062001255565b82805462000e779062001278565b90600052602060002090601f01602090048101928262000e9b576000855562000ee6565b82601f1062000eb657805160ff191683800117855562000ee6565b8280016001018555821562000ee6579182015b8281111562000ee657825182559160200191906001019062000ec9565b5062000ef492915062000ef8565b5090565b5b8082111562000ef4576000815560010162000ef9565b634e487b7160e01b600052604160045260246000fd5b601f8201601f191681016001600160401b038111828210171562000f4d5762000f4d62000f0f565b6040525050565b60005b8381101562000f7157818101518382015260200162000f57565b8381111562000f81576000848401525b50505050565b80516001600160a01b038116811462000f9f57600080fd5b919050565b60008060006060848603121562000fba57600080fd5b83516001600160401b038082111562000fd257600080fd5b818601915086601f83011262000fe757600080fd5b81518181111562000ffc5762000ffc62000f0f565b604051915062001017601f8201601f19166020018362000f25565b8082528760208285010111156200102d57600080fd5b6200104081602084016020860162000f54565b5093506200105390506020850162000f87565b9150620010636040850162000f87565b90509250925092565b634e487b7160e01b600052601160045260246000fd5b60008160001904831182151516156200109f576200109f6200106c565b500290565b60008219821115620010ba57620010ba6200106c565b500190565b634e487b7160e01b600052603260045260246000fd5b6000600019821415620010ec57620010ec6200106c565b5060010190565b600081518084526200110d81602086016020860162000f54565b601f01601f19169290920160200192915050565b6001600160a01b03868116825285166020820152604081018490526060810183905260a0608082018190526000906200115d90830184620010f3565b979650505050505050565b6000602082840312156200117b57600080fd5b81516001600160e01b0319811681146200024e57600080fd5b600060033d1115620011ae5760046000803e5060005160e01c5b90565b600060443d1015620011c05790565b6040516003193d81016004833e81513d6001600160401b038083116024840183101715620011f057505050505090565b8285019150815181811115620012095750505050505090565b843d8701016020828501011115620012245750505050505090565b620012356020828601018762000f25565b509095945050505050565b602081526000620007b36020830184620010f3565b6000826200127357634e487b7160e01b600052601260045260246000fd5b500490565b600181811c908216806200128d57607f821691505b60208210811415620012af57634e487b7160e01b600052602260045260246000fd5b50919050565b60805160a05160c05160e05161010051610120516155266200130560003960006145300152600061457f0152600061455a015260006144b3015260006144dd0152600061450701526155266000f3fe608060405234801561001057600080fd5b50600436106104485760003560e01c806370a0823111610241578063b390c0ab1161013b578063db4b9b6c116100c3578063f242432a11610087578063f242432a14610b1b578063f2fde38b14610b2e578063f327a62c14610b41578063fbbbec0a14610b49578063fbe5df7414610b5c57600080fd5b8063db4b9b6c14610a99578063df79823514610aa2578063e407724414610ab5578063e985e9c514610abe578063eace48cb14610afa57600080fd5b8063c004d4981161010a578063c004d49814610a4f578063c284f84114610a58578063cb1ca66314610a60578063d05df8d714610a73578063d824559014610a8657600080fd5b8063b390c0ab14610a0d578063b948843014610a20578063bbcd5bbe14610a29578063bef704ff14610a3c57600080fd5b8063a0becea0116101c9578063a686eb5f1161018d578063a686eb5f14610905578063a7757c9c14610918578063a971ea06146109c7578063abaf7648146109da578063ae910f5f146109ed57600080fd5b8063a0becea0146108a2578063a22cb465146108b5578063a2e3d9e3146108c8578063a47f3b70146108d2578063a491445b146108e557600080fd5b8063754b069f11610210578063754b069f1461082f578063772638741461084257806380ee4460146108555780638da5cb5b146108685780639dd1e9d01461087957600080fd5b806370a08231146107bd57806370fde7e0146107d0578063715018a6146107d857806371c10cae146107e057600080fd5b80633ddb9e85116103525780635dbe4756116102da578063640906151161029e578063640906151461071257806367a46f731461072557806369dc9ff3146107455780636cbc168c1461079757806370480275146107aa57600080fd5b80635dbe4756146106945780635f539d69146106a75780636154ec1d146106ba578063620dee42146106cd5780636352211e146106d657600080fd5b806354fa7b6e1161032157806354fa7b6e14610650578063552c5b3c1461066357806355c0beaa1461067057806355f804b3146106795780635d1b45b51461068c57600080fd5b80633ddb9e85146105f7578063404cbffb1461060a5780634b56a7071461061d5780634e1273f41461063057600080fd5b80631785f53c116103d55780632eb2c2d6116103a45780632eb2c2d61461058b578063369e0e091461059e57806336d814ff146105b15780633b091756146105d25780633b6e8919146105e457600080fd5b80631785f53c1461053157806324d16a1c1461054457806329d36a5b1461054d5780632bc615491461056057600080fd5b8063106cffe21161041c578063106cffe2146104cb5780631324b10f146104de57806314887c58146104e75780631506a40c14610516578063156e29f61461051e57600080fd5b8062fdd58e1461044d57806301ffc9a714610473578063046dc166146104965780630e89341c146104ab575b600080fd5b61046061045b3660046147a1565b610b6f565b6040519081526020015b60405180910390f35b6104866104813660046147e1565b610c09565b604051901515815260200161046a565b6104a96104a43660046147fe565b610c59565b005b6104be6104b9366004614819565b610ca5565b60405161046a919061488e565b6104606104d93660046147fe565b610d7e565b61046060085481565b6104866104f53660046147fe565b6001600160a01b031660009081526018602052604090206002015460ff1690565b6104a9610d9c565b6104a961052c3660046148a1565b610dda565b6104a961053f3660046147fe565b610e90565b610460600b5481565b6104a961055b366004614819565b610f21565b61057361056e366004614915565b610f50565b6040516001600160a01b03909116815260200161046a565b6104a9610599366004614b0a565b610fb0565b6104606105ac366004614819565b611047565b6105c46105bf366004614819565b6110bf565b60405161046a929190614c27565b60075461048690610100900460ff1681565b6104a96105f2366004614c55565b61129a565b601054610573906001600160a01b031681565b610573610618366004614819565b611599565b6104a961062b366004614819565b6115c3565b61064361063e366004614c77565b6115f2565b60405161046a9190614d41565b6104a961065e366004614d54565b61171b565b6007546104869060ff1681565b610460600a5481565b6104a9610687366004614daa565b6119fd565b601954610460565b6104a96106a2366004614df2565b611a3e565b6104a96106b53660046147fe565b611cd2565b6104606106c8366004614819565b611d3c565b610460600c5481565b6105736106e4366004614819565b6010546001600160a01b039081166000908152601b6020908152604080832094835293905291909120541690565b6104a9610720366004614819565b611dae565b610460610733366004614819565b60136020526000908152604090205481565b6107786107533660046147fe565b601d6020526000908152604090205460ff81169061010090046001600160a01b031682565b6040805192151583526001600160a01b0390911660208301520161046a565b6104a96107a5366004614819565b611ddd565b6104a96107b83660046147fe565b611e0c565b6104606107cb3660046147fe565b611ea0565b610460611eda565b6104a9611ef7565b6108126107ee3660046147fe565b60186020526000908152604090208054600182015460029092015490919060ff1683565b60408051938452602084019290925215159082015260600161046a565b61064361083d366004614e35565b611f2d565b6104866108503660046147fe565b612021565b601154610573906001600160a01b031681565b6003546001600160a01b0316610573565b610573610887366004614819565b6014602052600090815260409020546001600160a01b031681565b6104866108b03660046148a1565b61207c565b6104a96108c3366004614e76565b6120e0565b6006546104609081565b6104606108e0366004614819565b6120eb565b6108f86108f3366004614819565b612110565b60405161046a9190614ead565b6104606109133660046147a1565b61223b565b61097b6109263660046147fe565b60176020526000908152604090208054600182015460028301546003840154600485015460058601546006870154600788015460089098015496979596949593946001600160a01b0390931693919290919089565b60408051998a5260208a01989098529688019590955260608701939093526001600160a01b03909116608086015260a085015260c084015260e08301526101008201526101200161046a565b6104a96109d5366004614e76565b61228f565b6104a96109e8366004614819565b612359565b6104606109fb366004614819565b60156020526000908152604090205481565b6104a9610a1b366004614c55565b6125d6565b610460600e5481565b6104a9610a373660046147fe565b6126bc565b6104a9610a4a366004614819565b612708565b610460600d5481565b6104a9612737565b6104a9610a6e366004614819565b612854565b6104a9610a81366004614ec0565b6128ca565b6104a9610a94366004614819565b612d49565b610460600f5481565b6104a9610ab0366004614819565b612d78565b61046060095481565b610486610acc366004614e35565b6001600160a01b03918216600090815260016020908152604080832093909416825291909152205460ff1690565b610b0d610b08366004614e35565b612da7565b60405161046a929190614f43565b6104a9610b29366004614f56565b612fb6565b6104a9610b3c3660046147fe565b61303d565b6104a96130d8565b610643610b57366004614819565b61311f565b610460610b6a366004614819565b613202565b60006001600160a01b038316610be05760405162461bcd60e51b815260206004820152602b60248201527f455243313135353a2062616c616e636520717565727920666f7220746865207a60448201526a65726f206164647265737360a81b60648201526084015b60405180910390fd5b506000818152602081815260408083206001600160a01b03861684529091529020545b92915050565b60006001600160e01b03198216636cdb3d1360e11b1480610c3a57506001600160e01b031982166303a24d0760e21b145b80610c0357506301ffc9a760e01b6001600160e01b0319831614610c03565b6003546001600160a01b03163314610c835760405162461bcd60e51b8152600401610bd790614fba565b601680546001600160a01b0319166001600160a01b0392909216919091179055565b6060600060058054610cb690614fef565b905011610d4d5760058054610cca90614fef565b80601f0160208091040260200160405190810160405280929190818152602001828054610cf690614fef565b8015610d435780601f10610d1857610100808354040283529160200191610d43565b820191906000526020600020905b815481529060010190602001808311610d2657829003601f168201915b5050505050610c03565b6005610d5883613268565b604051602001610d69929190615046565b60405160208183030381529060405292915050565b6001600160a01b0381166000908152601e6020526040812054610c03565b6003546001600160a01b03163314610dc65760405162461bcd60e51b8152600401610bd790614fba565b6007805460ff19811660ff90911615179055565b3360009081526012602052604090205460ff16610e285760405162461bcd60e51b815260206004820152600c60248201526b41646d696e73206f6e6c792160a01b6044820152606401610bd7565b604080518281526001600160a01b0385163281146020830152849290917f69dff97591dfad68d690a0deccd16ef2aaf0b65205732bf647a9e5b129b77099910160405180910390a3610e8b8383836040518060200160405280600081525061336d565b505050565b6003546001600160a01b03163314610eba5760405162461bcd60e51b8152600401610bd790614fba565b6001600160a01b038116610f005760405162461bcd60e51b815260206004820152600d60248201526c656d707479206164647265737360981b6044820152606401610bd7565b6001600160a01b03166000908152601260205260409020805460ff19169055565b6003546001600160a01b03163314610f4b5760405162461bcd60e51b8152600401610bd790614fba565b600855565b6000610fa1610f658c8c8c8c8c8c8c8c61347d565b84848080601f01602080910402602001604051908101604052809392919081815260200183838082843760009201919091525061352092505050565b9b9a5050505050505050505050565b6001600160a01b038516331480610fcc5750610fcc8533610acc565b6110335760405162461bcd60e51b815260206004820152603260248201527f455243313135353a207472616e736665722063616c6c6572206973206e6f74206044820152711bdddb995c881b9bdc88185c1c1c9bdd995960721b6064820152608401610bd7565b611040858585858561353c565b5050505050565b600080821180156110585750600482105b6110745760405162461bcd60e51b8152600401610bd7906150e4565b6000805b6006548110156110b8576000818152601560205260409020548414156110a657816110a281615128565b9250505b806110b081615128565b915050611078565b5092915050565b60608060006110cd84611d3c565b90506000816001600160401b038111156110e9576110e96149b7565b604051908082528060200260200182016040528015611112578160200160208202803683370190505b5090506000826001600160401b0381111561112f5761112f6149b7565b604051908082528060200260200182016040528015611158578160200160208202803683370190505b5090506000805b60195481101561128d5787601860006019848154811061118157611181615143565b60009182526020808320909101546001600160a01b03168352820192909252604001902054141561127b57601981815481106111bf576111bf615143565b9060005260206000200160009054906101000a90046001600160a01b03168483815181106111ef576111ef615143565b60200260200101906001600160a01b031690816001600160a01b031681525050601860006019838154811061122657611226615143565b60009182526020808320909101546001600160a01b03168352820192909252604001902060010154835184908490811061126257611262615143565b60209081029190910101528161127781615128565b9250505b8061128581615128565b91505061115f565b5091969095509350505050565b600260045414156112bd5760405162461bcd60e51b8152600401610bd790615159565b6002600455600754610100900460ff1661130f5760405162461bcd60e51b81526020600482015260136024820152721999585d1d5c99481b9bdd08195b98589b1959606a1b6044820152606401610bd7565b60008111801561131f5750600481105b61133b5760405162461bcd60e51b8152600401610bd7906150e4565b60008211801561134c575060065482105b6113875760405162461bcd60e51b815260206004820152600c60248201526b34b73b30b634b21031b630b760a11b6044820152606401610bd7565b6000828152601560205260409020548114156113f15760405162461bcd60e51b815260206004820152602360248201527f636c616e20616c72656164792062656c6f6e677320746f207468697320636f6c6044820152626f6e7960e81b6064820152608401610bd7565b6000828152601560205260408120549061140a82611047565b9050600e54811161146d5760405162461bcd60e51b815260206004820152602760248201527f636f6c6f6e79206e6565647320746f2068617665206174206c6561737420736f60448201526636b29031b630b760c91b6064820152608401610bd7565b3360009081526012602052604090205460ff16611551576000848152601460205260409020546001600160a01b031633146114dd5760405162461bcd60e51b815260206004820152601060248201526f636c616e206c6561646572206f6e6c7960801b6044820152606401610bd7565b6011546001600160a01b0316639dc29fac33600b546040516001600160e01b031960e085901b1681526001600160a01b0390921660048301526024820152604401600060405180830381600087803b15801561153857600080fd5b505af115801561154c573d6000803e3d6000fd5b505050505b6040518390859033907f11e18d222af18722d0ce2b9363cf0777a37b4de62d4bac0494bf9a9e9137138890600090a45050600091825260156020526040909120556001600455565b601981815481106115a957600080fd5b6000918252602090912001546001600160a01b0316905081565b6003546001600160a01b031633146115ed5760405162461bcd60e51b8152600401610bd790614fba565b600e55565b606081518351146116575760405162461bcd60e51b815260206004820152602960248201527f455243313135353a206163636f756e747320616e6420696473206c656e677468604482015268040dad2e6dac2e8c6d60bb1b6064820152608401610bd7565b600083516001600160401b03811115611672576116726149b7565b60405190808252806020026020018201604052801561169b578160200160208202803683370190505b50905060005b8451811015611713576116e68582815181106116bf576116bf615143565b60200260200101518583815181106116d9576116d9615143565b6020026020010151610b6f565b8282815181106116f8576116f8615143565b602090810291909101015261170c81615128565b90506116a1565b509392505050565b61174d601e6000335b6001600160a01b03166001600160a01b0316815260200190815260200160002080546001019055565b600260045414156117705760405162461bcd60e51b8152600401610bd790615159565b60026004556001600160a01b0383166000908152601d60205260409020805460ff166117de5760405162461bcd60e51b815260206004820152601c60248201527f746f6b656e20636f6e7472616374206973206e6f7420616374697665000000006044820152606401610bd7565b6117e733612021565b1561184a5733600090815260186020526040902054821461184a5760405162461bcd60e51b815260206004820152601f60248201527f636c616e206c65616465722063616e27742073776974636820636c616e7321006044820152606401610bd7565b611854338361371f565b60005b83518110156119f157600084828151811061187457611874615143565b602002602001015190506118853390565b6001600160a01b038781166000908152601b60209081526040808320868452909152902080546001600160a01b0319169282169290921790915583546101009004166323b872dd336040516001600160e01b031960e084901b1681526001600160a01b03909116600482015230602482015260448101849052606401600060405180830381600087803b15801561191b57600080fd5b505af115801561192f573d6000803e3d6000fd5b5050506001600160a01b0387166000908152601a60205260408120611977925083916119583390565b6001600160a01b0316815260208101919091526040016000209061391c565b506001600160a01b0386166000818152601c6020908152604080832085845282529182902042905581518481529081019290925233828201525185917ff7373f56c201647feae85a62d3cf56286ed3a43d20c5eb7f9883d6ea690ef7c0919081900360600190a250806119e981615128565b915050611857565b50506001600455505050565b6003546001600160a01b03163314611a275760405162461bcd60e51b8152600401610bd790614fba565b8051611a3a9060059060208401906146ec565b5050565b611a4b601e600033611724565b81611a57601f82613928565b611a735760405162461bcd60e51b8152600401610bd790615190565b60026004541415611a965760405162461bcd60e51b8152600401610bd790615159565b60026004556001600160a01b0383166000908152601d60205260408120905b83518110156119f1576000848281518110611ad257611ad2615143565b60200260200101519050611b2d81601a6000896001600160a01b03166001600160a01b031681526020019081526020016000206000611b0e3390565b6001600160a01b0316815260208101919091526040016000209061394a565b611b6f5760405162461bcd60e51b81526020600482015260136024820152721d1bdad95b881a5cc81b9bdd081cdd185ad959606a1b6044820152606401610bd7565b6001600160a01b038681166000908152601b60209081526040808320858452909152902080546001600160a01b031916905583546101009004166323b872dd30336040516001600160e01b031960e085901b1681526001600160a01b0392831660048201529116602482015260448101849052606401600060405180830381600087803b158015611bff57600080fd5b505af1158015611c13573d6000803e3d6000fd5b5050506001600160a01b0387166000908152601a60205260408120611c5b92508391611c3c3390565b6001600160a01b03168152602081019190915260400160002090613962565b506001600160a01b0386166000818152601c602090815260408083208584528252808320929092558151848152908101929092523382820152517fda7b3993b5962cc80555cf305cbd92948048874e1a76a22272bdaaff09baeb659181900360600190a15080611cca81615128565b915050611ab5565b6003546001600160a01b03163314611cfc5760405162461bcd60e51b8152600401610bd790614fba565b6001600160a01b0381166000818152601d6020526040902080546101009092026001600160a81b0319909216919091176001179055611a3a601f82613241565b600080805b6019548110156110b857836018600060198481548110611d6357611d63615143565b60009182526020808320909101546001600160a01b031683528201929092526040019020541415611d9c5781611d9881615128565b9250505b80611da681615128565b915050611d41565b6003546001600160a01b03163314611dd85760405162461bcd60e51b8152600401610bd790614fba565b600d55565b6003546001600160a01b03163314611e075760405162461bcd60e51b8152600401610bd790614fba565b600b55565b6003546001600160a01b03163314611e365760405162461bcd60e51b8152600401610bd790614fba565b6001600160a01b038116611e7c5760405162461bcd60e51b815260206004820152600d60248201526c656d707479206164647265737360981b6044820152606401610bd7565b6001600160a01b03166000908152601260205260409020805460ff19166001179055565b6010546001600160a01b039081166000908152601a602090815260408083209385168352929052908120611ed38161396e565b9392505050565b6000600a54611ee860065490565b611ef291906151c7565b905090565b6003546001600160a01b03163314611f215760405162461bcd60e51b8152600401610bd790614fba565b611f2b6000613978565b565b606082611f3b601f82613928565b611f575760405162461bcd60e51b8152600401610bd790615190565b6001600160a01b038085166000908152601a60209081526040808320938716835292905290812090611f888261396e565b6001600160401b03811115611f9f57611f9f6149b7565b604051908082528060200260200182016040528015611fc8578160200160208202803683370190505b50905060005b611fd78361396e565b81101561201757611fe883826139ca565b828281518110611ffa57611ffa615143565b60209081029190910101528061200f81615128565b915050611fce565b5095945050505050565b6001600160a01b03811660009081526018602052604081206002015460ff161561207457506001600160a01b03908116600081815260186020908152604080832054835260149091529020549091161490565b506000919050565b6000828152601460205260408120546001600160a01b03858116911614156120a657506000611ed3565b6001600160a01b03841660009081526018602052604090205483146120cd57506000611ed3565b6120d683613202565b9091119392505050565b611a3a3383836139d6565b6000600d546120f983611d3c565b61210391906151c7565b600c54610c0391906151e6565b6060600061211d83611d3c565b90506000816001600160401b03811115612139576121396149b7565b604051908082528060200260200182016040528015612162578160200160208202803683370190505b5090506000805b6019548110156122315785601860006019848154811061218b5761218b615143565b60009182526020808320909101546001600160a01b03168352820192909252604001902054141561221f57601981815481106121c9576121c9615143565b9060005260206000200160009054906101000a90046001600160a01b03168383815181106121f9576121f9615143565b6001600160a01b03909216602092830291909101909101528161221b81615128565b9250505b8061222981615128565b915050612169565b5090949350505050565b600082612249601f82613928565b6122655760405162461bcd60e51b8152600401610bd790615190565b50506001600160a01b03919091166000908152601c60209081526040808320938352929052205490565b6003546001600160a01b031633146122b95760405162461bcd60e51b8152600401610bd790614fba565b816122c5601f82613928565b6122e15760405162461bcd60e51b8152600401610bd790615190565b6122ec601f84613928565b61232d5760405162461bcd60e51b815260206004820152601260248201527118dbdb9d1c9858dd081b9bdd08185919195960721b6044820152606401610bd7565b506001600160a01b03919091166000908152601d60205260409020805460ff1916911515919091179055565b6002600454141561237c5760405162461bcd60e51b8152600401610bd790615159565b600260045560075460ff166123c95760405162461bcd60e51b81526020600482015260136024820152721999585d1d5c99481b9bdd08195b98589b1959606a1b6044820152606401610bd7565b6000811180156123d95750600481105b6123f55760405162461bcd60e51b8152600401610bd7906150e4565b6123fe33612021565b156124555760405162461bcd60e51b815260206004820152602160248201527f636c616e206c65616465722063616e277420637265617465206e657720636c616044820152603760f91b6064820152608401610bd7565b3360009081526012602052604090205460ff1661253c57612475336104f5565b6124b55760405162461bcd60e51b815260206004820152601160248201527036bab9ba1031329034b710309031b630b760791b6044820152606401610bd7565b60006124bf611eda565b9050801561253a576011546001600160a01b0316639dc29fac336040516001600160e01b031960e084901b1681526001600160a01b03909116600482015260248101849052604401600060405180830381600087803b15801561252157600080fd5b505af1158015612535573d6000803e3d6000fd5b505050505b505b600061254760065490565b60008181526015602052604090208390559050612568600680546001019055565b6040518290829033907f098df9d435f5abb718c2804ce7d7b6550ff16ebbabc96ba0da01d4860e2c4b6590600090a43360008181526018602090815260408083208581554260019091015560085481519283019091529181526125cd9291849161336d565b50506001600455565b3360009081526012602052604090205460ff166126245760405162461bcd60e51b815260206004820152600c60248201526b41646d696e73206f6e6c792160a01b6044820152606401610bd7565b61262e3283610b6f565b61267a5760405162461bcd60e51b815260206004820152601760248201527f4f6f707320796f7520646f6e2774206f776e20746861740000000000000000006044820152606401610bd7565b604051818152829032907f23ff0e75edf108e3d0392d92e13e8c8a868ef19001bd49f9e94876dc46dff87f9060200160405180910390a3611a3a328383613ab7565b6003546001600160a01b031633146126e65760405162461bcd60e51b8152600401610bd790614fba565b601180546001600160a01b0319166001600160a01b0392909216919091179055565b6003546001600160a01b031633146127325760405162461bcd60e51b8152600401610bd790614fba565b600c55565b6003546001600160a01b031633146127615760405162461bcd60e51b8152600401610bd790614fba565b6011546040516370a0823160e01b81523060048201526000916001600160a01b0316906370a0823190602401602060405180830381865afa1580156127aa573d6000803e3d6000fd5b505050506040513d601f19601f820116820180604052508101906127ce91906151fe565b6011549091506001600160a01b031663a9059cbb336040516001600160e01b031960e084901b1681526001600160a01b039091166004820152602481018490526044016020604051808303816000875af1158015612830573d6000803e3d6000fd5b505050506040513d601f19601f82011682018060405250810190611a3a9190615217565b6003546001600160a01b0316331461287e5760405162461bcd60e51b8152600401610bd790614fba565b6000600954116128c55760405162461bcd60e51b815260206004820152601260248201527156616c7565206c6f776572207468656e203160701b6044820152606401610bd7565b600955565b600260045414156128ed5760405162461bcd60e51b8152600401610bd790615159565b60026004558761292d5760405162461bcd60e51b815260206004820152600b60248201526a656d70747920636c61696d60a81b6044820152606401610bd7565b61294733898989898961293f33610d7e565b8a8a8a610f50565b6016546001600160a01b039081169116146129985760405162461bcd60e51b8152602060048201526011602482015270696e76616c6964207369676e617475726560781b6044820152606401610bd7565b600f54156129ed57600f546129ad90426151e6565b83106129ed5760405162461bcd60e51b815260206004820152600f60248201526e1cd95cdcda5bdb88195e1c1a5c9959608a1b6044820152606401610bd7565b6011546001600160a01b03166340c10f1933612a118b670de0b6b3a76400006151c7565b6040516001600160e01b031960e085901b1681526001600160a01b0390921660048301526024820152604401600060405180830381600087803b158015612a5757600080fd5b505af1158015612a6b573d6000803e3d6000fd5b50505050612a7d601e60006117243390565b33600081815260186020908152604091829020548251610120810184528c81529182018b9052918101829052606081018990526001600160a01b038816608082015260a08101879052909160c0820190612ad690610d7e565b81526020018581526020014281525060176000612af03390565b6001600160a01b0390811682526020808301939093526040918201600020845181559284015160018401559083015160028301556060830151600383015560808301516004830180546001600160a01b0319169190921617905560a0820151600582015560c0820151600682015560e08201516007820155610100909101516008909101558715612bfe576011546001600160a01b03166340c10f1930612b9f8b670de0b6b3a76400006151c7565b6040516001600160e01b031960e085901b1681526001600160a01b0390921660048301526024820152604401600060405180830381600087803b158015612be557600080fd5b505af1158015612bf9573d6000803e3d6000fd5b505050505b6001600160a01b03861615801590612c165750600085115b15612c9e576011546001600160a01b03166340c10f1987612c3f88670de0b6b3a76400006151c7565b6040516001600160e01b031960e085901b1681526001600160a01b0390921660048301526024820152604401600060405180830381600087803b158015612c8557600080fd5b505af1158015612c99573d6000803e3d6000fd5b505050505b600081118015612caf575060065481105b8015612cbb5750600087115b15612cdb57612cdb3382896040518060200160405280600081525061336d565b604080518a8152602081018a9052808201899052606081018790526080810186905290516001600160a01b03881691839133917ffdeb11e92ba41fbc0a90341ff28c438012e6a3e840c45400a9ada007a4f2d33c919081900360a00190a45050600160045550505050505050565b6003546001600160a01b03163314612d735760405162461bcd60e51b8152600401610bd790614fba565b600f55565b6003546001600160a01b03163314612da25760405162461bcd60e51b8152600401610bd790614fba565b600a55565b60608083612db6601f82613928565b612dd25760405162461bcd60e51b8152600401610bd790615190565b6001600160a01b038086166000908152601a60209081526040808320938816835292905290812090612e038261396e565b6001600160401b03811115612e1a57612e1a6149b7565b604051908082528060200260200182016040528015612e43578160200160208202803683370190505b5090506000612e518361396e565b6001600160401b03811115612e6857612e686149b7565b604051908082528060200260200182016040528015612e91578160200160208202803683370190505b506001600160a01b0388166000908152601760205260408120600701549192505b612ebb8561396e565b811015612fa7576000612ece86836139ca565b6001600160a01b038c166000908152601c60209081526040808320848452909152902054865191925090869084908110612f0a57612f0a615143565b602002602001018181525050848281518110612f2857612f28615143565b6020026020010151831115612f5b5782848381518110612f4a57612f4a615143565b602002602001018181525050612f94565b848281518110612f6d57612f6d615143565b6020026020010151848381518110612f8757612f87615143565b6020026020010181815250505b5080612f9f81615128565b915050612eb2565b50919890975095505050505050565b6001600160a01b038516331480612fd25750612fd28533610acc565b6130305760405162461bcd60e51b815260206004820152602960248201527f455243313135353a2063616c6c6572206973206e6f74206f776e6572206e6f7260448201526808185c1c1c9bdd995960ba1b6064820152608401610bd7565b6110408585858585613c30565b6003546001600160a01b031633146130675760405162461bcd60e51b8152600401610bd790614fba565b6001600160a01b0381166130cc5760405162461bcd60e51b815260206004820152602660248201527f4f776e61626c653a206e6577206f776e657220697320746865207a65726f206160448201526564647265737360d01b6064820152608401610bd7565b6130d581613978565b50565b6003546001600160a01b031633146131025760405162461bcd60e51b8152600401610bd790614fba565b6007805461ff001981166101009182900460ff1615909102179055565b60606000821180156131315750600482105b61314d5760405162461bcd60e51b8152600401610bd7906150e4565b600061315883611047565b90506000816001600160401b03811115613174576131746149b7565b60405190808252806020026020018201604052801561319d578160200160208202803683370190505b5090506000805b600654811015612231576000818152601560205260409020548614156131f057808383815181106131d7576131d7615143565b6020908102919091010152816131ec81615128565b9250505b806131fa81615128565b9150506131a4565b60006064600954606461321591906151e6565b60008481526013602052604090205461322e91906151c7565b610c03919061524a565b80546001019055565b6000611ed3836001600160a01b038416613d4d565b5490565b505050505050565b3b151590565b60608161328c5750506040805180820190915260018152600360fc1b602082015290565b8160005b81156132b657806132a081615128565b91506132af9050600a8361524a565b9150613290565b6000816001600160401b038111156132d0576132d06149b7565b6040519080825280601f01601f1916602001820160405280156132fa576020820181803683370190505b5090505b84156133655761330f60018361525e565b915061331c600a86615275565b6133279060306151e6565b60f81b81838151811061333c5761333c615143565b60200101906001600160f81b031916908160001a90535061335e600a8661524a565b94506132fe565b949350505050565b6001600160a01b0384166133cd5760405162461bcd60e51b815260206004820152602160248201527f455243313135353a206d696e7420746f20746865207a65726f206164647265736044820152607360f81b6064820152608401610bd7565b336133ed816000876133de88613d9c565b6133e788613d9c565b87613de7565b6000848152602081815260408083206001600160a01b03891684529091528120805485929061341d9084906151e6565b909155505060408051858152602081018590526001600160a01b0380881692600092918516917fc3d58168c5ae7397731d063d5bbf3d657854427343f4c083240f7aacaa2d0f62910160405180910390a461104081600087878787613ef9565b604080517f90b2ccba250cd548893316a97144625f4b7fdd7df41e4de2cf98a6ef077987b960208201526001600160a01b03808b1692820192909252606081018990526080810188905260a0810187905290851660c082015260e0810184905261010081018390526101208101829052600090613513906101400160405160208183030381529060405280519060200120614055565b9998505050505050505050565b600080600061352f85856140a3565b9150915061171381614113565b815183511461359e5760405162461bcd60e51b815260206004820152602860248201527f455243313135353a2069647320616e6420616d6f756e7473206c656e677468206044820152670dad2e6dac2e8c6d60c31b6064820152608401610bd7565b6001600160a01b0384166135c45760405162461bcd60e51b8152600401610bd790615289565b336135d3818787878787613de7565b60005b84518110156136b95760008582815181106135f3576135f3615143565b60200260200101519050600085838151811061361157613611615143565b602090810291909101810151600084815280835260408082206001600160a01b038e1683529093529190912054909150818110156136615760405162461bcd60e51b8152600401610bd7906152ce565b6000838152602081815260408083206001600160a01b038e8116855292528083208585039055908b1682528120805484929061369e9084906151e6565b92505081905550505050806136b290615128565b90506135d6565b50846001600160a01b0316866001600160a01b0316826001600160a01b03167f4a39dc06d4c0dbc64b70af90fd698a233a518aa5d07e595d983b8c0526c8f7fb8787604051613709929190614f43565b60405180910390a461325a8187878787876142ce565b600081118015613730575060065481105b61376b5760405162461bcd60e51b815260206004820152600c60248201526b34b73b30b634b21031b630b760a11b6044820152606401610bd7565b6001600160a01b03821660009081526018602052604090206002015460ff16156138a5576001600160a01b0382166000908152601860205260409020548114611a3a5760006137b9826120eb565b6011549091506001600160a01b0316639dc29fac336040516001600160e01b031960e084901b1681526001600160a01b03909116600482015260248101849052604401600060405180830381600087803b15801561381657600080fd5b505af115801561382a573d6000803e3d6000fd5b505050506001600160a01b0383166000818152601860209081526040918290205491518481528593917f128f8187fdb209b274c54d01b145ffae6942993c055272a988ec0c86d9432dab910160405180910390a4506001600160a01b0382166000908152601860205260409020818155426001909101555050565b6001600160a01b0382166000818152601860205260408120838155426001808301919091556002909101805460ff1916821790556019805491820181559091527f944998273e477b495144fb8794c914197f3ccb46be2900f4698fd0ef743c96950180546001600160a01b03191690911790555050565b6000611ed38383613d4d565b6001600160a01b03811660009081526001830160205260408120541515611ed3565b60008181526001830160205260408120541515611ed3565b6000611ed38383614389565b6000610c03825490565b600380546001600160a01b038381166001600160a01b0319831681179093556040519116919082907f8be0079c531659141344cd1fd0a4f28419497f9722a3daafe3b4186f6b6457e090600090a35050565b6000611ed3838361447c565b816001600160a01b0316836001600160a01b03161415613a4a5760405162461bcd60e51b815260206004820152602960248201527f455243313135353a2073657474696e6720617070726f76616c20737461747573604482015268103337b91039b2b63360b91b6064820152608401610bd7565b6001600160a01b03838116600081815260016020908152604080832094871680845294825291829020805460ff191686151590811790915591519182527f17307eab39ab6107e8899845ad3d59bd9653f200f220920489ca2b5937696c31910160405180910390a3505050565b6001600160a01b038316613b195760405162461bcd60e51b815260206004820152602360248201527f455243313135353a206275726e2066726f6d20746865207a65726f206164647260448201526265737360e81b6064820152608401610bd7565b33613b4881856000613b2a87613d9c565b613b3387613d9c565b60405180602001604052806000815250613de7565b6000838152602081815260408083206001600160a01b038816845290915290205482811015613bc55760405162461bcd60e51b8152602060048201526024808201527f455243313135353a206275726e20616d6f756e7420657863656564732062616c604482015263616e636560e01b6064820152608401610bd7565b6000848152602081815260408083206001600160a01b03898116808652918452828520888703905582518981529384018890529092908616917fc3d58168c5ae7397731d063d5bbf3d657854427343f4c083240f7aacaa2d0f62910160405180910390a45050505050565b6001600160a01b038416613c565760405162461bcd60e51b8152600401610bd790615289565b33613c668187876133de88613d9c565b6000848152602081815260408083206001600160a01b038a16845290915290205483811015613ca75760405162461bcd60e51b8152600401610bd7906152ce565b6000858152602081815260408083206001600160a01b038b8116855292528083208785039055908816825281208054869290613ce49084906151e6565b909155505060408051868152602081018690526001600160a01b03808916928a821692918616917fc3d58168c5ae7397731d063d5bbf3d657854427343f4c083240f7aacaa2d0f62910160405180910390a4613d44828888888888613ef9565b50505050505050565b6000818152600183016020526040812054613d9457508154600181810184556000848152602080822090930184905584548482528286019093526040902091909155610c03565b506000610c03565b60408051600180825281830190925260609160009190602080830190803683370190505090508281600081518110613dd657613dd6615143565b602090810291909101015292915050565b60005b8351811015613ef3576000848281518110613e0757613e07615143565b602002602001015190506000848381518110613e2557613e25615143565b6020026020010151613e378884610b6f565b613e4191906151e6565b9050613e4e87838361207c565b15613ee0576000828152601460209081526040918290205491518381526001600160a01b03928316928592908b169184917fe5de49455cbc88f3dd9d0d5cb562cc7e6513716e573a5be2023a8b3a42a733ee910160405180910390a45060008281526013602090815260408083208490556014909152902080546001600160a01b0319166001600160a01b0389161790555b505080613eec90615128565b9050613dea565b5061325a565b6001600160a01b0384163b1561325a5760405163f23a6e6160e01b81526001600160a01b0385169063f23a6e6190613f3d9089908990889088908890600401615318565b6020604051808303816000875af1925050508015613f78575060408051601f3d908101601f19168201909252613f759181019061535d565b60015b61402557613f8461537a565b806308c379a01415613fbe5750613f99615395565b80613fa45750613fc0565b8060405162461bcd60e51b8152600401610bd7919061488e565b505b60405162461bcd60e51b815260206004820152603460248201527f455243313135353a207472616e7366657220746f206e6f6e20455243313135356044820152732932b1b2b4bb32b91034b6b83632b6b2b73a32b960611b6064820152608401610bd7565b6001600160e01b0319811663f23a6e6160e01b14613d445760405162461bcd60e51b8152600401610bd79061541e565b6000610c036140626144a6565b8360405161190160f01b6020820152602281018390526042810182905260009060620160405160208183030381529060405280519060200120905092915050565b6000808251604114156140da5760208301516040840151606085015160001a6140ce878285856145d0565b9450945050505061410c565b82516040141561410457602083015160408401516140f98683836146bd565b93509350505061410c565b506000905060025b9250929050565b600081600481111561412757614127615466565b14156141305750565b600181600481111561414457614144615466565b14156141925760405162461bcd60e51b815260206004820152601860248201527f45434453413a20696e76616c6964207369676e617475726500000000000000006044820152606401610bd7565b60028160048111156141a6576141a6615466565b14156141f45760405162461bcd60e51b815260206004820152601f60248201527f45434453413a20696e76616c6964207369676e6174757265206c656e677468006044820152606401610bd7565b600381600481111561420857614208615466565b14156142615760405162461bcd60e51b815260206004820152602260248201527f45434453413a20696e76616c6964207369676e6174757265202773272076616c604482015261756560f01b6064820152608401610bd7565b600481600481111561427557614275615466565b14156130d55760405162461bcd60e51b815260206004820152602260248201527f45434453413a20696e76616c6964207369676e6174757265202776272076616c604482015261756560f01b6064820152608401610bd7565b6001600160a01b0384163b1561325a5760405163bc197c8160e01b81526001600160a01b0385169063bc197c8190614312908990899088908890889060040161547c565b6020604051808303816000875af192505050801561434d575060408051601f3d908101601f1916820190925261434a9181019061535d565b60015b61435957613f8461537a565b6001600160e01b0319811663bc197c8160e01b14613d445760405162461bcd60e51b8152600401610bd79061541e565b600081815260018301602052604081205480156144725760006143ad60018361525e565b85549091506000906143c19060019061525e565b90508181146144265760008660000182815481106143e1576143e1615143565b906000526020600020015490508087600001848154811061440457614404615143565b6000918252602080832090910192909255918252600188019052604090208390555b8554869080614437576144376154da565b600190038181906000526020600020016000905590558560010160008681526020019081526020016000206000905560019350505050610c03565b6000915050610c03565b600082600001828154811061449357614493615143565b9060005260206000200154905092915050565b6000306001600160a01b037f0000000000000000000000000000000000000000000000000000000000000000161480156144ff57507f000000000000000000000000000000000000000000000000000000000000000046145b1561452957507f000000000000000000000000000000000000000000000000000000000000000090565b50604080517f00000000000000000000000000000000000000000000000000000000000000006020808301919091527f0000000000000000000000000000000000000000000000000000000000000000828401527f000000000000000000000000000000000000000000000000000000000000000060608301524660808301523060a0808401919091528351808403909101815260c0909201909252805191012090565b90565b6000807f7fffffffffffffffffffffffffffffff5d576e7357a4501ddfe92f46681b20a083111561460757506000905060036146b4565b8460ff16601b1415801561461f57508460ff16601c14155b1561463057506000905060046146b4565b6040805160008082526020820180845289905260ff881692820192909252606081018690526080810185905260019060a0016020604051602081039080840390855afa158015614684573d6000803e3d6000fd5b5050604051601f1901519150506001600160a01b0381166146ad576000600192509250506146b4565b9150600090505b94509492505050565b6000806001600160ff1b03831660ff84901c601b016146de878288856145d0565b935093505050935093915050565b8280546146f890614fef565b90600052602060002090601f01602090048101928261471a5760008555614760565b82601f1061473357805160ff1916838001178555614760565b82800160010185558215614760579182015b82811115614760578251825591602001919060010190614745565b5061476c929150614770565b5090565b5b8082111561476c5760008155600101614771565b80356001600160a01b038116811461479c57600080fd5b919050565b600080604083850312156147b457600080fd5b6147bd83614785565b946020939093013593505050565b6001600160e01b0319811681146130d557600080fd5b6000602082840312156147f357600080fd5b8135611ed3816147cb565b60006020828403121561481057600080fd5b611ed382614785565b60006020828403121561482b57600080fd5b5035919050565b60005b8381101561484d578181015183820152602001614835565b8381111561485c576000848401525b50505050565b6000815180845261487a816020860160208601614832565b601f01601f19169290920160200192915050565b602081526000611ed36020830184614862565b6000806000606084860312156148b657600080fd5b6148bf84614785565b95602085013595506040909401359392505050565b60008083601f8401126148e657600080fd5b5081356001600160401b038111156148fd57600080fd5b60208301915083602082850101111561410c57600080fd5b6000806000806000806000806000806101208b8d03121561493557600080fd5b61493e8b614785565b995060208b0135985060408b0135975060608b0135965061496160808c01614785565b955060a08b0135945060c08b0135935060e08b013592506101008b01356001600160401b0381111561499257600080fd5b61499e8d828e016148d4565b915080935050809150509295989b9194979a5092959850565b634e487b7160e01b600052604160045260246000fd5b601f8201601f191681016001600160401b03811182821017156149f2576149f26149b7565b6040525050565b60006001600160401b03821115614a1257614a126149b7565b5060051b60200190565b600082601f830112614a2d57600080fd5b81356020614a3a826149f9565b604051614a4782826149cd565b83815260059390931b8501820192828101915086841115614a6757600080fd5b8286015b84811015614a825780358352918301918301614a6b565b509695505050505050565b60006001600160401b03831115614aa657614aa66149b7565b604051614abd601f8501601f1916602001826149cd565b809150838152848484011115614ad257600080fd5b83836020830137600060208583010152509392505050565b600082601f830112614afb57600080fd5b611ed383833560208501614a8d565b600080600080600060a08688031215614b2257600080fd5b614b2b86614785565b9450614b3960208701614785565b935060408601356001600160401b0380821115614b5557600080fd5b614b6189838a01614a1c565b94506060880135915080821115614b7757600080fd5b614b8389838a01614a1c565b93506080880135915080821115614b9957600080fd5b50614ba688828901614aea565b9150509295509295909350565b600081518084526020808501945080840160005b83811015614bec5781516001600160a01b031687529582019590820190600101614bc7565b509495945050505050565b600081518084526020808501945080840160005b83811015614bec57815187529582019590820190600101614c0b565b604081526000614c3a6040830185614bb3565b8281036020840152614c4c8185614bf7565b95945050505050565b60008060408385031215614c6857600080fd5b50508035926020909101359150565b60008060408385031215614c8a57600080fd5b82356001600160401b0380821115614ca157600080fd5b818501915085601f830112614cb557600080fd5b81356020614cc2826149f9565b604051614ccf82826149cd565b83815260059390931b8501820192828101915089841115614cef57600080fd5b948201945b83861015614d1457614d0586614785565b82529482019490820190614cf4565b96505086013592505080821115614d2a57600080fd5b50614d3785828601614a1c565b9150509250929050565b602081526000611ed36020830184614bf7565b600080600060608486031215614d6957600080fd5b614d7284614785565b925060208401356001600160401b03811115614d8d57600080fd5b614d9986828701614a1c565b925050604084013590509250925092565b600060208284031215614dbc57600080fd5b81356001600160401b03811115614dd257600080fd5b8201601f81018413614de357600080fd5b61336584823560208401614a8d565b60008060408385031215614e0557600080fd5b614e0e83614785565b915060208301356001600160401b03811115614e2957600080fd5b614d3785828601614a1c565b60008060408385031215614e4857600080fd5b614e5183614785565b9150614e5f60208401614785565b90509250929050565b80151581146130d557600080fd5b60008060408385031215614e8957600080fd5b614e9283614785565b91506020830135614ea281614e68565b809150509250929050565b602081526000611ed36020830184614bb3565b60008060008060008060008060e0898b031215614edc57600080fd5b883597506020890135965060408901359550614efa60608a01614785565b94506080890135935060a0890135925060c08901356001600160401b03811115614f2357600080fd5b614f2f8b828c016148d4565b999c989b5096995094979396929594505050565b604081526000614c3a6040830185614bf7565b600080600080600060a08688031215614f6e57600080fd5b614f7786614785565b9450614f8560208701614785565b9350604086013592506060860135915060808601356001600160401b03811115614fae57600080fd5b614ba688828901614aea565b6020808252818101527f4f776e61626c653a2063616c6c6572206973206e6f7420746865206f776e6572604082015260600190565b600181811c9082168061500357607f821691505b6020821081141561502457634e487b7160e01b600052602260045260246000fd5b50919050565b6000815161503c818560208601614832565b9290920192915050565b600080845481600182811c91508083168061506257607f831692505b602080841082141561508257634e487b7160e01b86526022600452602486fd5b81801561509657600181146150a7576150d4565b60ff198616895284890196506150d4565b60008b81526020902060005b868110156150cc5781548b8201529085019083016150b3565b505084890196505b505050505050614c4c818561502a565b60208082526014908201527337b7363c90199031b7b637b734b2b99032bb32b960611b604082015260600190565b634e487b7160e01b600052601160045260246000fd5b600060001982141561513c5761513c615112565b5060010190565b634e487b7160e01b600052603260045260246000fd5b6020808252601f908201527f5265656e7472616e637947756172643a207265656e7472616e742063616c6c00604082015260600190565b60208082526018908201527f636f6e747261637420646f6573206e6f74206578697374730000000000000000604082015260600190565b60008160001904831182151516156151e1576151e1615112565b500290565b600082198211156151f9576151f9615112565b500190565b60006020828403121561521057600080fd5b5051919050565b60006020828403121561522957600080fd5b8151611ed381614e68565b634e487b7160e01b600052601260045260246000fd5b60008261525957615259615234565b500490565b60008282101561527057615270615112565b500390565b60008261528457615284615234565b500690565b60208082526025908201527f455243313135353a207472616e7366657220746f20746865207a65726f206164604082015264647265737360d81b606082015260800190565b6020808252602a908201527f455243313135353a20696e73756666696369656e742062616c616e636520666f60408201526939103a3930b739b332b960b11b606082015260800190565b6001600160a01b03868116825285166020820152604081018490526060810183905260a06080820181905260009061535290830184614862565b979650505050505050565b60006020828403121561536f57600080fd5b8151611ed3816147cb565b600060033d11156145cd5760046000803e5060005160e01c90565b600060443d10156153a35790565b6040516003193d81016004833e81513d6001600160401b0381602484011181841117156153d257505050505090565b82850191508151818111156153ea5750505050505090565b843d87010160208285010111156154045750505050505090565b615413602082860101876149cd565b509095945050505050565b60208082526028908201527f455243313135353a204552433131353552656365697665722072656a656374656040820152676420746f6b656e7360c01b606082015260800190565b634e487b7160e01b600052602160045260246000fd5b6001600160a01b0386811682528516602082015260a0604082018190526000906154a890830186614bf7565b82810360608401526154ba8186614bf7565b905082810360808401526154ce8185614862565b98975050505050505050565b634e487b7160e01b600052603160045260246000fdfea2646970667358221220a6df2be78c0c065640f6fb60868c3ad49d693215fdf0f70b08781933cfab0e8f64736f6c634300080b00334f776e61626c653a2063616c6c6572206973206e6f7420746865206f776e6572",
  "linkReferences": {},
  "deployedLinkReferences": {}
}