{
  "_format": "hh-sol-artifact-1",
  "contractName": "Clans",
  "sourceName": "contracts/Clans.sol",
  "abi": [
    {
      "inputs": [
        {
          "internalType": "string",
          "name": "_baseURI",
          "type": "string"
        },
        {
          "internalType": "address",
          "name": "_oxgnToken",
          "type": "address"
        },
        {
          "internalType": "address",
          "name": "_y2123Nft",
          "type": "address"
        }
      ],
      "stateMutability": "nonpayable",
      "type": "constructor"
    },
    {
      "anonymous": false,
      "inputs": [
        {
          "indexed": true,
          "internalType": "address",
          "name": "account",
          "type": "address"
        },
        {
          "indexed": true,
          "internalType": "address",
          "name": "operator",
          "type": "address"
        },
        {
          "indexed": false,
          "internalType": "bool",
          "name": "approved",
          "type": "bool"
        }
      ],
      "name": "ApprovalForAll",
      "type": "event"
    },
    {
      "anonymous": false,
      "inputs": [
        {
          "indexed": true,
          "internalType": "address",
          "name": "addr",
          "type": "address"
        },
        {
          "indexed": true,
          "internalType": "uint256",
          "name": "id",
          "type": "uint256"
        },
        {
          "indexed": false,
          "internalType": "uint256",
          "name": "amount",
          "type": "uint256"
        }
      ],
      "name": "Burned",
      "type": "event"
    },
    {
      "anonymous": false,
      "inputs": [
        {
          "indexed": true,
          "internalType": "address",
          "name": "oldLeader",
          "type": "address"
        },
        {
          "indexed": true,
          "internalType": "address",
          "name": "newLeader",
          "type": "address"
        },
        {
          "indexed": true,
          "internalType": "uint256",
          "name": "clanId",
          "type": "uint256"
        },
        {
          "indexed": false,
          "internalType": "uint256",
          "name": "clanTokens",
          "type": "uint256"
        }
      ],
      "name": "ChangeLeader",
      "type": "event"
    },
    {
      "anonymous": false,
      "inputs": [
        {
          "indexed": true,
          "internalType": "address",
          "name": "addr",
          "type": "address"
        },
        {
          "indexed": false,
          "internalType": "uint256",
          "name": "oxgnTokenClaim",
          "type": "uint256"
        },
        {
          "indexed": false,
          "internalType": "uint256",
          "name": "oxgnTokenDonate",
          "type": "uint256"
        },
        {
          "indexed": true,
          "internalType": "uint256",
          "name": "clanId",
          "type": "uint256"
        },
        {
          "indexed": false,
          "internalType": "uint256",
          "name": "clanTokenClaim",
          "type": "uint256"
        },
        {
          "indexed": true,
          "internalType": "address",
          "name": "benificiaryOfTax",
          "type": "address"
        },
        {
          "indexed": false,
          "internalType": "uint256",
          "name": "oxgnTokenTax",
          "type": "uint256"
        }
      ],
      "name": "Claim",
      "type": "event"
    },
    {
      "anonymous": false,
      "inputs": [
        {
          "indexed": true,
          "internalType": "address",
          "name": "leader",
          "type": "address"
        },
        {
          "indexed": true,
          "internalType": "uint256",
          "name": "clanId",
          "type": "uint256"
        },
        {
          "indexed": true,
          "internalType": "uint256",
          "name": "colonyId",
          "type": "uint256"
        }
      ],
      "name": "ClanCreated",
      "type": "event"
    },
    {
      "anonymous": false,
      "inputs": [
        {
          "indexed": true,
          "internalType": "address",
          "name": "addr",
          "type": "address"
        },
        {
          "indexed": false,
          "internalType": "uint256",
          "name": "clanId",
          "type": "uint256"
        },
        {
          "indexed": true,
          "internalType": "address",
          "name": "leader",
          "type": "address"
        },
        {
          "indexed": false,
          "internalType": "uint256",
          "name": "rank",
          "type": "uint256"
        },
        {
          "indexed": false,
          "internalType": "uint256",
          "name": "oxgnCost",
          "type": "uint256"
        },
        {
          "indexed": false,
          "internalType": "uint256",
          "name": "clanTokenCost",
          "type": "uint256"
        }
      ],
      "name": "DemoteClanRank",
      "type": "event"
    },
    {
      "anonymous": false,
      "inputs": [
        {
          "indexed": true,
          "internalType": "address",
          "name": "addr",
          "type": "address"
        },
        {
          "indexed": true,
          "internalType": "uint256",
          "name": "id",
          "type": "uint256"
        },
        {
          "indexed": false,
          "internalType": "uint256",
          "name": "amount",
          "type": "uint256"
        },
        {
          "indexed": false,
          "internalType": "bool",
          "name": "recipientOrigin",
          "type": "bool"
        }
      ],
      "name": "Minted",
      "type": "event"
    },
    {
      "anonymous": false,
      "inputs": [
        {
          "indexed": true,
          "internalType": "address",
          "name": "previousOwner",
          "type": "address"
        },
        {
          "indexed": true,
          "internalType": "address",
          "name": "newOwner",
          "type": "address"
        }
      ],
      "name": "OwnershipTransferred",
      "type": "event"
    },
    {
      "anonymous": false,
      "inputs": [
        {
          "indexed": true,
          "internalType": "address",
          "name": "addr",
          "type": "address"
        },
        {
          "indexed": false,
          "internalType": "uint256",
          "name": "clanId",
          "type": "uint256"
        },
        {
          "indexed": true,
          "internalType": "address",
          "name": "leader",
          "type": "address"
        },
        {
          "indexed": false,
          "internalType": "uint256",
          "name": "rank",
          "type": "uint256"
        },
        {
          "indexed": false,
          "internalType": "uint256",
          "name": "oxgnCost",
          "type": "uint256"
        },
        {
          "indexed": false,
          "internalType": "uint256",
          "name": "clanTokenCost",
          "type": "uint256"
        }
      ],
      "name": "PromoteClanRank",
      "type": "event"
    },
    {
      "anonymous": false,
      "inputs": [
        {
          "indexed": false,
          "internalType": "uint256",
          "name": "tokenId",
          "type": "uint256"
        },
        {
          "indexed": false,
          "internalType": "address",
          "name": "contractAddress",
          "type": "address"
        },
        {
          "indexed": false,
          "internalType": "address",
          "name": "owner",
          "type": "address"
        },
        {
          "indexed": true,
          "internalType": "uint256",
          "name": "clanId",
          "type": "uint256"
        }
      ],
      "name": "Stake",
      "type": "event"
    },
    {
      "anonymous": false,
      "inputs": [
        {
          "indexed": true,
          "internalType": "address",
          "name": "addr",
          "type": "address"
        },
        {
          "indexed": true,
          "internalType": "uint256",
          "name": "oldClanId",
          "type": "uint256"
        },
        {
          "indexed": true,
          "internalType": "uint256",
          "name": "newClanId",
          "type": "uint256"
        },
        {
          "indexed": false,
          "internalType": "uint256",
          "name": "switchClanCost",
          "type": "uint256"
        }
      ],
      "name": "SwitchClan",
      "type": "event"
    },
    {
      "anonymous": false,
      "inputs": [
        {
          "indexed": true,
          "internalType": "address",
          "name": "leader",
          "type": "address"
        },
        {
          "indexed": true,
          "internalType": "uint256",
          "name": "clanId",
          "type": "uint256"
        },
        {
          "indexed": true,
          "internalType": "uint256",
          "name": "colonyId",
          "type": "uint256"
        }
      ],
      "name": "SwitchColony",
      "type": "event"
    },
    {
      "anonymous": false,
      "inputs": [
        {
          "indexed": true,
          "internalType": "address",
          "name": "operator",
          "type": "address"
        },
        {
          "indexed": true,
          "internalType": "address",
          "name": "from",
          "type": "address"
        },
        {
          "indexed": true,
          "internalType": "address",
          "name": "to",
          "type": "address"
        },
        {
          "indexed": false,
          "internalType": "uint256[]",
          "name": "ids",
          "type": "uint256[]"
        },
        {
          "indexed": false,
          "internalType": "uint256[]",
          "name": "values",
          "type": "uint256[]"
        }
      ],
      "name": "TransferBatch",
      "type": "event"
    },
    {
      "anonymous": false,
      "inputs": [
        {
          "indexed": true,
          "internalType": "address",
          "name": "operator",
          "type": "address"
        },
        {
          "indexed": true,
          "internalType": "address",
          "name": "from",
          "type": "address"
        },
        {
          "indexed": true,
          "internalType": "address",
          "name": "to",
          "type": "address"
        },
        {
          "indexed": false,
          "internalType": "uint256",
          "name": "id",
          "type": "uint256"
        },
        {
          "indexed": false,
          "internalType": "uint256",
          "name": "value",
          "type": "uint256"
        }
      ],
      "name": "TransferSingle",
      "type": "event"
    },
    {
      "anonymous": false,
      "inputs": [
        {
          "indexed": false,
          "internalType": "string",
          "name": "value",
          "type": "string"
        },
        {
          "indexed": true,
          "internalType": "uint256",
          "name": "id",
          "type": "uint256"
        }
      ],
      "name": "URI",
      "type": "event"
    },
    {
      "anonymous": false,
      "inputs": [
        {
          "indexed": false,
          "internalType": "uint256",
          "name": "tokenId",
          "type": "uint256"
        },
        {
          "indexed": false,
          "internalType": "address",
          "name": "contractAddress",
          "type": "address"
        },
        {
          "indexed": false,
          "internalType": "address",
          "name": "owner",
          "type": "address"
        }
      ],
      "name": "Unstake",
      "type": "event"
    },
    {
      "inputs": [
        {
          "internalType": "address",
          "name": "accountAddress",
          "type": "address"
        }
      ],
      "name": "accountNonce",
      "outputs": [
        {
          "internalType": "uint256",
          "name": "",
          "type": "uint256"
        }
      ],
      "stateMutability": "view",
      "type": "function"
    },
    {
      "inputs": [
        {
          "internalType": "address",
          "name": "",
          "type": "address"
        }
      ],
      "name": "accountToLastClaim",
      "outputs": [
        {
          "internalType": "uint256",
          "name": "oxgnTokenClaim",
          "type": "uint256"
        },
        {
          "internalType": "uint256",
          "name": "oxgnTokenDonate",
          "type": "uint256"
        },
        {
          "internalType": "uint256",
          "name": "clanId",
          "type": "uint256"
        },
        {
          "internalType": "uint256",
          "name": "clanTokenClaim",
          "type": "uint256"
        },
        {
          "internalType": "address",
          "name": "benificiaryOfTax",
          "type": "address"
        },
        {
          "internalType": "uint256",
          "name": "oxgnTokenTax",
          "type": "uint256"
        },
        {
          "internalType": "uint256",
          "name": "nonce",
          "type": "uint256"
        },
        {
          "internalType": "uint256",
          "name": "blocktime",
          "type": "uint256"
        }
      ],
      "stateMutability": "view",
      "type": "function"
    },
    {
      "inputs": [
        {
          "internalType": "address",
          "name": "addr",
          "type": "address"
        }
      ],
      "name": "addAdmin",
      "outputs": [],
      "stateMutability": "nonpayable",
      "type": "function"
    },
    {
      "inputs": [
        {
          "internalType": "address",
          "name": "contractAddress",
          "type": "address"
        }
      ],
      "name": "addContract",
      "outputs": [],
      "stateMutability": "nonpayable",
      "type": "function"
    },
    {
      "inputs": [
        {
          "internalType": "address",
          "name": "account",
          "type": "address"
        },
        {
          "internalType": "uint256",
          "name": "id",
          "type": "uint256"
        }
      ],
      "name": "balanceOf",
      "outputs": [
        {
          "internalType": "uint256",
          "name": "",
          "type": "uint256"
        }
      ],
      "stateMutability": "view",
      "type": "function"
    },
    {
      "inputs": [
        {
          "internalType": "address",
          "name": "owner",
          "type": "address"
        }
      ],
      "name": "balanceOf",
      "outputs": [
        {
          "internalType": "uint256",
          "name": "",
          "type": "uint256"
        }
      ],
      "stateMutability": "view",
      "type": "function"
    },
    {
      "inputs": [
        {
          "internalType": "address[]",
          "name": "accounts",
          "type": "address[]"
        },
        {
          "internalType": "uint256[]",
          "name": "ids",
          "type": "uint256[]"
        }
      ],
      "name": "balanceOfBatch",
      "outputs": [
        {
          "internalType": "uint256[]",
          "name": "",
          "type": "uint256[]"
        }
      ],
      "stateMutability": "view",
      "type": "function"
    },
    {
      "inputs": [
        {
          "internalType": "uint256",
          "name": "id",
          "type": "uint256"
        },
        {
          "internalType": "uint256",
          "name": "amount",
          "type": "uint256"
        }
      ],
      "name": "burn",
      "outputs": [],
      "stateMutability": "nonpayable",
      "type": "function"
    },
    {
      "inputs": [],
      "name": "changeLeaderPercentage",
      "outputs": [
        {
          "internalType": "uint256",
          "name": "",
          "type": "uint256"
        }
      ],
      "stateMutability": "view",
      "type": "function"
    },
    {
      "inputs": [
        {
          "internalType": "uint256",
          "name": "oxgnTokenClaim",
          "type": "uint256"
        },
        {
          "internalType": "uint256",
          "name": "oxgnTokenDonate",
          "type": "uint256"
        },
        {
          "internalType": "uint256",
          "name": "clanTokenClaim",
          "type": "uint256"
        },
        {
          "internalType": "address",
          "name": "benificiaryOfTax",
          "type": "address"
        },
        {
          "internalType": "uint256",
          "name": "oxgnTokenTax",
          "type": "uint256"
        },
        {
          "internalType": "bytes",
          "name": "signature",
          "type": "bytes"
        }
      ],
      "name": "claim",
      "outputs": [],
      "stateMutability": "nonpayable",
      "type": "function"
    },
    {
      "inputs": [],
      "name": "clanIdTracker",
      "outputs": [
        {
          "internalType": "uint256",
          "name": "_value",
          "type": "uint256"
        }
      ],
      "stateMutability": "view",
      "type": "function"
    },
    {
      "inputs": [],
      "name": "clanRankCap",
      "outputs": [
        {
          "internalType": "uint256",
          "name": "",
          "type": "uint256"
        }
      ],
      "stateMutability": "view",
      "type": "function"
    },
    {
      "inputs": [
        {
          "internalType": "address",
          "name": "",
          "type": "address"
        }
      ],
      "name": "clanStructs",
      "outputs": [
        {
          "internalType": "uint256",
          "name": "clanId",
          "type": "uint256"
        },
        {
          "internalType": "uint256",
          "name": "rank",
          "type": "uint256"
        },
        {
          "internalType": "uint256",
          "name": "updateClanTimestamp",
          "type": "uint256"
        },
        {
          "internalType": "uint256",
          "name": "updateRankTimestamp",
          "type": "uint256"
        },
        {
          "internalType": "bool",
          "name": "isEntity",
          "type": "bool"
        }
      ],
      "stateMutability": "view",
      "type": "function"
    },
    {
      "inputs": [
        {
          "internalType": "uint256",
          "name": "",
          "type": "uint256"
        }
      ],
      "name": "clanToColony",
      "outputs": [
        {
          "internalType": "uint256",
          "name": "",
          "type": "uint256"
        }
      ],
      "stateMutability": "view",
      "type": "function"
    },
    {
      "inputs": [
        {
          "internalType": "uint256",
          "name": "",
          "type": "uint256"
        }
      ],
      "name": "clanToHighestOwnedAccount",
      "outputs": [
        {
          "internalType": "address",
          "name": "",
          "type": "address"
        }
      ],
      "stateMutability": "view",
      "type": "function"
    },
    {
      "inputs": [
        {
          "internalType": "uint256",
          "name": "",
          "type": "uint256"
        }
      ],
      "name": "clanToHighestOwnedCount",
      "outputs": [
        {
          "internalType": "uint256",
          "name": "",
          "type": "uint256"
        }
      ],
      "stateMutability": "view",
      "type": "function"
    },
    {
      "inputs": [
        {
          "internalType": "address",
          "name": "",
          "type": "address"
        }
      ],
      "name": "contracts",
      "outputs": [
        {
          "internalType": "bool",
          "name": "active",
          "type": "bool"
        },
        {
          "internalType": "contract IERC721",
          "name": "instance",
          "type": "address"
        }
      ],
      "stateMutability": "view",
      "type": "function"
    },
    {
      "inputs": [
        {
          "internalType": "uint256",
          "name": "colonyId",
          "type": "uint256"
        }
      ],
      "name": "createClan",
      "outputs": [],
      "stateMutability": "nonpayable",
      "type": "function"
    },
    {
      "inputs": [],
      "name": "createClanCostMultiplier",
      "outputs": [
        {
          "internalType": "uint256",
          "name": "",
          "type": "uint256"
        }
      ],
      "stateMutability": "view",
      "type": "function"
    },
    {
      "inputs": [],
      "name": "creatorInitialClanTokens",
      "outputs": [
        {
          "internalType": "uint256",
          "name": "",
          "type": "uint256"
        }
      ],
      "stateMutability": "view",
      "type": "function"
    },
    {
      "inputs": [
        {
          "internalType": "address",
          "name": "entityAddress",
          "type": "address"
        },
        {
          "internalType": "uint256",
          "name": "clanId",
          "type": "uint256"
        }
      ],
      "name": "demoteClanRank",
      "outputs": [
        {
          "internalType": "bool",
          "name": "success",
          "type": "bool"
        }
      ],
      "stateMutability": "nonpayable",
      "type": "function"
    },
    {
      "inputs": [
        {
          "internalType": "uint256",
          "name": "",
          "type": "uint256"
        }
      ],
      "name": "entityList",
      "outputs": [
        {
          "internalType": "address",
          "name": "",
          "type": "address"
        }
      ],
      "stateMutability": "view",
      "type": "function"
    },
    {
      "inputs": [],
      "name": "featureFlagCreateClan",
      "outputs": [
        {
          "internalType": "bool",
          "name": "",
          "type": "bool"
        }
      ],
      "stateMutability": "view",
      "type": "function"
    },
    {
      "inputs": [],
      "name": "featureFlagSuperDemote",
      "outputs": [
        {
          "internalType": "bool",
          "name": "",
          "type": "bool"
        }
      ],
      "stateMutability": "view",
      "type": "function"
    },
    {
      "inputs": [],
      "name": "featureFlagSwitchColony",
      "outputs": [
        {
          "internalType": "bool",
          "name": "",
          "type": "bool"
        }
      ],
      "stateMutability": "view",
      "type": "function"
    },
    {
      "inputs": [
        {
          "internalType": "uint256",
          "name": "clanId",
          "type": "uint256"
        }
      ],
      "name": "getAccountsInClan",
      "outputs": [
        {
          "internalType": "address[]",
          "name": "",
          "type": "address[]"
        }
      ],
      "stateMutability": "view",
      "type": "function"
    },
    {
      "inputs": [
        {
          "internalType": "uint256",
          "name": "clanId",
          "type": "uint256"
        }
      ],
      "name": "getChangeClanLeaderThreshold",
      "outputs": [
        {
          "internalType": "uint256",
          "name": "amount",
          "type": "uint256"
        }
      ],
      "stateMutability": "view",
      "type": "function"
    },
    {
      "inputs": [
        {
          "internalType": "address",
          "name": "entityAddress",
          "type": "address"
        }
      ],
      "name": "getClan",
      "outputs": [
        {
          "components": [
            {
              "internalType": "uint256",
              "name": "clanId",
              "type": "uint256"
            },
            {
              "internalType": "uint256",
              "name": "rank",
              "type": "uint256"
            },
            {
              "internalType": "uint256",
              "name": "updateClanTimestamp",
              "type": "uint256"
            },
            {
              "internalType": "uint256",
              "name": "updateRankTimestamp",
              "type": "uint256"
            },
            {
              "internalType": "bool",
              "name": "isEntity",
              "type": "bool"
            }
          ],
          "internalType": "struct Clans.ClanStruct",
          "name": "",
          "type": "tuple"
        }
      ],
      "stateMutability": "view",
      "type": "function"
    },
    {
      "inputs": [
        {
          "internalType": "uint256",
          "name": "clanId",
          "type": "uint256"
        },
        {
          "internalType": "address",
          "name": "nftContractAddress",
          "type": "address"
        }
      ],
      "name": "getClanAndStakedRecords",
      "outputs": [
        {
          "components": [
            {
              "internalType": "address",
              "name": "entity",
              "type": "address"
            },
            {
              "internalType": "uint256[]",
              "name": "stakedNftIds",
              "type": "uint256[]"
            },
            {
              "internalType": "uint256[]",
              "name": "stakedNftTimestamps",
              "type": "uint256[]"
            },
            {
              "components": [
                {
                  "internalType": "uint256",
                  "name": "clanId",
                  "type": "uint256"
                },
                {
                  "internalType": "uint256",
                  "name": "rank",
                  "type": "uint256"
                },
                {
                  "internalType": "uint256",
                  "name": "updateClanTimestamp",
                  "type": "uint256"
                },
                {
                  "internalType": "uint256",
                  "name": "updateRankTimestamp",
                  "type": "uint256"
                },
                {
                  "internalType": "bool",
                  "name": "isEntity",
                  "type": "bool"
                }
              ],
              "internalType": "struct Clans.ClanStruct",
              "name": "clanData",
              "type": "tuple"
            }
          ],
          "internalType": "struct Clans.ClanRecordsStruct[]",
          "name": "",
          "type": "tuple[]"
        }
      ],
      "stateMutability": "view",
      "type": "function"
    },
    {
      "inputs": [
        {
          "internalType": "uint256",
          "name": "colonyId",
          "type": "uint256"
        }
      ],
      "name": "getClanCountInColony",
      "outputs": [
        {
          "internalType": "uint256",
          "name": "clans",
          "type": "uint256"
        }
      ],
      "stateMutability": "view",
      "type": "function"
    },
    {
      "inputs": [
        {
          "internalType": "uint256",
          "name": "clanId",
          "type": "uint256"
        }
      ],
      "name": "getClanLeader",
      "outputs": [
        {
          "internalType": "address",
          "name": "entityAddress",
          "type": "address"
        }
      ],
      "stateMutability": "view",
      "type": "function"
    },
    {
      "inputs": [
        {
          "internalType": "uint256",
          "name": "clanId",
          "type": "uint256"
        }
      ],
      "name": "getClanRecords",
      "outputs": [
        {
          "components": [
            {
              "internalType": "address",
              "name": "entity",
              "type": "address"
            },
            {
              "internalType": "uint256[]",
              "name": "stakedNftIds",
              "type": "uint256[]"
            },
            {
              "internalType": "uint256[]",
              "name": "stakedNftTimestamps",
              "type": "uint256[]"
            },
            {
              "components": [
                {
                  "internalType": "uint256",
                  "name": "clanId",
                  "type": "uint256"
                },
                {
                  "internalType": "uint256",
                  "name": "rank",
                  "type": "uint256"
                },
                {
                  "internalType": "uint256",
                  "name": "updateClanTimestamp",
                  "type": "uint256"
                },
                {
                  "internalType": "uint256",
                  "name": "updateRankTimestamp",
                  "type": "uint256"
                },
                {
                  "internalType": "bool",
                  "name": "isEntity",
                  "type": "bool"
                }
              ],
              "internalType": "struct Clans.ClanStruct",
              "name": "clanData",
              "type": "tuple"
            }
          ],
          "internalType": "struct Clans.ClanRecordsStruct[]",
          "name": "",
          "type": "tuple[]"
        }
      ],
      "stateMutability": "view",
      "type": "function"
    },
    {
      "inputs": [
        {
          "internalType": "uint256",
          "name": "colonyId",
          "type": "uint256"
        }
      ],
      "name": "getClansInColony",
      "outputs": [
        {
          "internalType": "uint256[]",
          "name": "",
          "type": "uint256[]"
        }
      ],
      "stateMutability": "view",
      "type": "function"
    },
    {
      "inputs": [],
      "name": "getCreateClanCost",
      "outputs": [
        {
          "internalType": "uint256",
          "name": "amount",
          "type": "uint256"
        }
      ],
      "stateMutability": "view",
      "type": "function"
    },
    {
      "inputs": [
        {
          "internalType": "uint256",
          "name": "clanId",
          "type": "uint256"
        }
      ],
      "name": "getEntityClanCount",
      "outputs": [
        {
          "internalType": "uint256",
          "name": "entityCount",
          "type": "uint256"
        }
      ],
      "stateMutability": "view",
      "type": "function"
    },
    {
      "inputs": [],
      "name": "getEntityCount",
      "outputs": [
        {
          "internalType": "uint256",
          "name": "entityCount",
          "type": "uint256"
        }
      ],
      "stateMutability": "view",
      "type": "function"
    },
    {
      "inputs": [
        {
          "internalType": "uint256",
          "name": "clanId",
          "type": "uint256"
        }
      ],
      "name": "getSwitchClanCost",
      "outputs": [
        {
          "internalType": "uint256",
          "name": "amount",
          "type": "uint256"
        }
      ],
      "stateMutability": "view",
      "type": "function"
    },
    {
      "inputs": [
        {
          "internalType": "address",
          "name": "account",
          "type": "address"
        },
        {
          "internalType": "address",
          "name": "operator",
          "type": "address"
        }
      ],
      "name": "isApprovedForAll",
      "outputs": [
        {
          "internalType": "bool",
          "name": "",
          "type": "bool"
        }
      ],
      "stateMutability": "view",
      "type": "function"
    },
    {
      "inputs": [
        {
          "internalType": "address",
          "name": "entityAddress",
          "type": "address"
        }
      ],
      "name": "isClanLeader",
      "outputs": [
        {
          "internalType": "bool",
          "name": "",
          "type": "bool"
        }
      ],
      "stateMutability": "view",
      "type": "function"
    },
    {
      "inputs": [
        {
          "internalType": "address",
          "name": "entityAddress",
          "type": "address"
        }
      ],
      "name": "isEntity",
      "outputs": [
        {
          "internalType": "bool",
          "name": "isIndeed",
          "type": "bool"
        }
      ],
      "stateMutability": "view",
      "type": "function"
    },
    {
      "inputs": [],
      "name": "minClanInColony",
      "outputs": [
        {
          "internalType": "uint256",
          "name": "",
          "type": "uint256"
        }
      ],
      "stateMutability": "view",
      "type": "function"
    },
    {
      "inputs": [
        {
          "internalType": "address",
          "name": "recipient",
          "type": "address"
        },
        {
          "internalType": "uint256",
          "name": "id",
          "type": "uint256"
        },
        {
          "internalType": "uint256",
          "name": "amount",
          "type": "uint256"
        }
      ],
      "name": "mint",
      "outputs": [],
      "stateMutability": "nonpayable",
      "type": "function"
    },
    {
      "inputs": [],
      "name": "owner",
      "outputs": [
        {
          "internalType": "address",
          "name": "",
          "type": "address"
        }
      ],
      "stateMutability": "view",
      "type": "function"
    },
    {
      "inputs": [
        {
          "internalType": "uint256",
          "name": "tokenId",
          "type": "uint256"
        }
      ],
      "name": "ownerOf",
      "outputs": [
        {
          "internalType": "address",
          "name": "",
          "type": "address"
        }
      ],
      "stateMutability": "view",
      "type": "function"
    },
    {
      "inputs": [],
      "name": "oxgnToken",
      "outputs": [
        {
          "internalType": "contract IOxygen",
          "name": "",
          "type": "address"
        }
      ],
      "stateMutability": "view",
      "type": "function"
    },
    {
      "inputs": [
        {
          "internalType": "address",
          "name": "entityAddress",
          "type": "address"
        },
        {
          "internalType": "uint256",
          "name": "clanId",
          "type": "uint256"
        }
      ],
      "name": "promoteClanRank",
      "outputs": [
        {
          "internalType": "bool",
          "name": "success",
          "type": "bool"
        }
      ],
      "stateMutability": "nonpayable",
      "type": "function"
    },
    {
      "inputs": [
        {
          "internalType": "address",
          "name": "account",
          "type": "address"
        },
        {
          "internalType": "uint256",
          "name": "oxgnTokenClaim",
          "type": "uint256"
        },
        {
          "internalType": "uint256",
          "name": "oxgnTokenDonate",
          "type": "uint256"
        },
        {
          "internalType": "uint256",
          "name": "clanTokenClaim",
          "type": "uint256"
        },
        {
          "internalType": "address",
          "name": "benificiaryOfTax",
          "type": "address"
        },
        {
          "internalType": "uint256",
          "name": "oxgnTokenTax",
          "type": "uint256"
        },
        {
          "internalType": "uint256",
          "name": "nonce",
          "type": "uint256"
        },
        {
          "internalType": "bytes",
          "name": "signature",
          "type": "bytes"
        }
      ],
      "name": "recoverAddress",
      "outputs": [
        {
          "internalType": "address",
          "name": "",
          "type": "address"
        }
      ],
      "stateMutability": "view",
      "type": "function"
    },
    {
      "inputs": [
        {
          "internalType": "address",
          "name": "addr",
          "type": "address"
        }
      ],
      "name": "removeAdmin",
      "outputs": [],
      "stateMutability": "nonpayable",
      "type": "function"
    },
    {
      "inputs": [],
      "name": "renounceOwnership",
      "outputs": [],
      "stateMutability": "nonpayable",
      "type": "function"
    },
    {
      "inputs": [
        {
          "internalType": "address",
          "name": "from",
          "type": "address"
        },
        {
          "internalType": "address",
          "name": "to",
          "type": "address"
        },
        {
          "internalType": "uint256[]",
          "name": "ids",
          "type": "uint256[]"
        },
        {
          "internalType": "uint256[]",
          "name": "amounts",
          "type": "uint256[]"
        },
        {
          "internalType": "bytes",
          "name": "data",
          "type": "bytes"
        }
      ],
      "name": "safeBatchTransferFrom",
      "outputs": [],
      "stateMutability": "nonpayable",
      "type": "function"
    },
    {
      "inputs": [
        {
          "internalType": "address",
          "name": "from",
          "type": "address"
        },
        {
          "internalType": "address",
          "name": "to",
          "type": "address"
        },
        {
          "internalType": "uint256",
          "name": "id",
          "type": "uint256"
        },
        {
          "internalType": "uint256",
          "name": "amount",
          "type": "uint256"
        },
        {
          "internalType": "bytes",
          "name": "data",
          "type": "bytes"
        }
      ],
      "name": "safeTransferFrom",
      "outputs": [],
      "stateMutability": "nonpayable",
      "type": "function"
    },
    {
      "inputs": [
        {
          "internalType": "address",
          "name": "operator",
          "type": "address"
        },
        {
          "internalType": "bool",
          "name": "approved",
          "type": "bool"
        }
      ],
      "name": "setApprovalForAll",
      "outputs": [],
      "stateMutability": "nonpayable",
      "type": "function"
    },
    {
      "inputs": [
        {
          "internalType": "string",
          "name": "newBaseURI",
          "type": "string"
        }
      ],
      "name": "setBaseURI",
      "outputs": [],
      "stateMutability": "nonpayable",
      "type": "function"
    },
    {
      "inputs": [
        {
          "internalType": "uint256",
          "name": "newVal",
          "type": "uint256"
        }
      ],
      "name": "setChangeLeaderPercentage",
      "outputs": [],
      "stateMutability": "nonpayable",
      "type": "function"
    },
    {
      "inputs": [
        {
          "internalType": "uint256",
          "name": "newVal",
          "type": "uint256"
        }
      ],
      "name": "setCreateClanCostMultiplier",
      "outputs": [],
      "stateMutability": "nonpayable",
      "type": "function"
    },
    {
      "inputs": [
        {
          "internalType": "uint256",
          "name": "newVal",
          "type": "uint256"
        }
      ],
      "name": "setCreatorInitialClanTokens",
      "outputs": [],
      "stateMutability": "nonpayable",
      "type": "function"
    },
    {
      "inputs": [
        {
          "internalType": "uint256",
          "name": "newVal",
          "type": "uint256"
        }
      ],
      "name": "setMinClanInColony",
      "outputs": [],
      "stateMutability": "nonpayable",
      "type": "function"
    },
    {
      "inputs": [
        {
          "internalType": "address",
          "name": "signerAddress",
          "type": "address"
        }
      ],
      "name": "setSignerAddress",
      "outputs": [],
      "stateMutability": "nonpayable",
      "type": "function"
    },
    {
      "inputs": [
        {
          "internalType": "uint256",
          "name": "newVal",
          "type": "uint256"
        }
      ],
      "name": "setSwitchClanCostBase",
      "outputs": [],
      "stateMutability": "nonpayable",
      "type": "function"
    },
    {
      "inputs": [
        {
          "internalType": "uint256",
          "name": "newVal",
          "type": "uint256"
        }
      ],
      "name": "setSwitchClanCostMultiplier",
      "outputs": [],
      "stateMutability": "nonpayable",
      "type": "function"
    },
    {
      "inputs": [
        {
          "internalType": "uint256",
          "name": "newVal",
          "type": "uint256"
        }
      ],
      "name": "setSwitchColonyCost",
      "outputs": [],
      "stateMutability": "nonpayable",
      "type": "function"
    },
    {
      "inputs": [
        {
          "internalType": "address",
          "name": "_oxgnToken",
          "type": "address"
        }
      ],
      "name": "setTokenContract",
      "outputs": [],
      "stateMutability": "nonpayable",
      "type": "function"
    },
    {
      "inputs": [
        {
          "internalType": "uint256",
          "name": "newVal",
          "type": "uint256"
        }
      ],
      "name": "setUpdateRankCostMultiplierClanToken",
      "outputs": [],
      "stateMutability": "nonpayable",
      "type": "function"
    },
    {
      "inputs": [
        {
          "internalType": "uint256",
          "name": "newVal",
          "type": "uint256"
        }
      ],
      "name": "setUpdateRankCostMultiplierOxgn",
      "outputs": [],
      "stateMutability": "nonpayable",
      "type": "function"
    },
    {
      "inputs": [
        {
          "internalType": "address",
          "name": "member",
          "type": "address"
        },
        {
          "internalType": "uint256",
          "name": "clanId",
          "type": "uint256"
        },
        {
          "internalType": "uint256",
          "name": "amount",
          "type": "uint256"
        }
      ],
      "name": "shouldChangeLeader",
      "outputs": [
        {
          "internalType": "bool",
          "name": "",
          "type": "bool"
        }
      ],
      "stateMutability": "view",
      "type": "function"
    },
    {
      "inputs": [
        {
          "internalType": "address",
          "name": "contractAddress",
          "type": "address"
        },
        {
          "internalType": "uint256[]",
          "name": "tokenIds",
          "type": "uint256[]"
        },
        {
          "internalType": "uint256",
          "name": "clanId",
          "type": "uint256"
        }
      ],
      "name": "stake",
      "outputs": [],
      "stateMutability": "nonpayable",
      "type": "function"
    },
    {
      "inputs": [
        {
          "internalType": "address",
          "name": "contractAddress",
          "type": "address"
        },
        {
          "internalType": "uint256",
          "name": "tokenId",
          "type": "uint256"
        }
      ],
      "name": "stakedTokenTimestamp",
      "outputs": [
        {
          "internalType": "uint256",
          "name": "",
          "type": "uint256"
        }
      ],
      "stateMutability": "view",
      "type": "function"
    },
    {
      "inputs": [
        {
          "internalType": "address",
          "name": "contractAddress",
          "type": "address"
        },
        {
          "internalType": "address",
          "name": "owner",
          "type": "address"
        }
      ],
      "name": "stakedTokensOfOwner",
      "outputs": [
        {
          "internalType": "uint256[]",
          "name": "",
          "type": "uint256[]"
        }
      ],
      "stateMutability": "view",
      "type": "function"
    },
    {
      "inputs": [
        {
          "internalType": "bytes4",
          "name": "interfaceId",
          "type": "bytes4"
        }
      ],
      "name": "supportsInterface",
      "outputs": [
        {
          "internalType": "bool",
          "name": "",
          "type": "bool"
        }
      ],
      "stateMutability": "view",
      "type": "function"
    },
    {
      "inputs": [],
      "name": "switchClanCostBase",
      "outputs": [
        {
          "internalType": "uint256",
          "name": "",
          "type": "uint256"
        }
      ],
      "stateMutability": "view",
      "type": "function"
    },
    {
      "inputs": [],
      "name": "switchClanCostMultiplier",
      "outputs": [
        {
          "internalType": "uint256",
          "name": "",
          "type": "uint256"
        }
      ],
      "stateMutability": "view",
      "type": "function"
    },
    {
      "inputs": [
        {
          "internalType": "uint256",
          "name": "clanId",
          "type": "uint256"
        },
        {
          "internalType": "uint256",
          "name": "colonyId",
          "type": "uint256"
        }
      ],
      "name": "switchColony",
      "outputs": [],
      "stateMutability": "nonpayable",
      "type": "function"
    },
    {
      "inputs": [],
      "name": "switchColonyCost",
      "outputs": [
        {
          "internalType": "uint256",
          "name": "",
          "type": "uint256"
        }
      ],
      "stateMutability": "view",
      "type": "function"
    },
    {
      "inputs": [],
      "name": "toggleFeatureFlagCreateClan",
      "outputs": [],
      "stateMutability": "nonpayable",
      "type": "function"
    },
    {
      "inputs": [],
      "name": "toggleFeatureFlagSuperDemote",
      "outputs": [],
      "stateMutability": "nonpayable",
      "type": "function"
    },
    {
      "inputs": [],
      "name": "toggleFeatureFlagSwitchColony",
      "outputs": [],
      "stateMutability": "nonpayable",
      "type": "function"
    },
    {
      "inputs": [
        {
          "internalType": "address",
          "name": "newOwner",
          "type": "address"
        }
      ],
      "name": "transferOwnership",
      "outputs": [],
      "stateMutability": "nonpayable",
      "type": "function"
    },
    {
      "inputs": [
        {
          "internalType": "address",
          "name": "contractAddress",
          "type": "address"
        },
        {
          "internalType": "uint256[]",
          "name": "tokenIds",
          "type": "uint256[]"
        }
      ],
      "name": "unstake",
      "outputs": [],
      "stateMutability": "nonpayable",
      "type": "function"
    },
    {
      "inputs": [
        {
          "internalType": "address",
          "name": "contractAddress",
          "type": "address"
        },
        {
          "internalType": "bool",
          "name": "active",
          "type": "bool"
        }
      ],
      "name": "updateContract",
      "outputs": [],
      "stateMutability": "nonpayable",
      "type": "function"
    },
    {
      "inputs": [],
      "name": "updateRankCostMultiplierClanToken",
      "outputs": [
        {
          "internalType": "uint256",
          "name": "",
          "type": "uint256"
        }
      ],
      "stateMutability": "view",
      "type": "function"
    },
    {
      "inputs": [],
      "name": "updateRankCostMultiplierOxgn",
      "outputs": [
        {
          "internalType": "uint256",
          "name": "",
          "type": "uint256"
        }
      ],
      "stateMutability": "view",
      "type": "function"
    },
    {
      "inputs": [
        {
          "internalType": "uint256",
          "name": "clanId",
          "type": "uint256"
        }
      ],
      "name": "uri",
      "outputs": [
        {
          "internalType": "string",
          "name": "",
          "type": "string"
        }
      ],
      "stateMutability": "view",
      "type": "function"
    },
    {
      "inputs": [],
      "name": "withdrawForDonation",
      "outputs": [],
      "stateMutability": "nonpayable",
      "type": "function"
    },
    {
      "inputs": [],
      "name": "y2123Nft",
      "outputs": [
        {
          "internalType": "address",
          "name": "",
          "type": "address"
        }
      ],
      "stateMutability": "view",
      "type": "function"
    }
  ],
  "bytecode": "0x6101406040526007805462ffffff1916600117905560646008819055600a6009819055908155612710600b55600c819055620186a0600d55600e819055600f55600560105560036011553480156200005657600080fd5b50604051620071f2380380620071f2833981016040819052620000799162000fd9565b60405180604001604052806005815260200164793231323360d81b815250604051806040016040528060038152602001620312e360ec1b81525084620000c581620001e060201b60201c565b50815160208084019190912082519183019190912060e08290526101008190524660a0527f8b73c3c69bb8fe3d512ecc4cf759cc79239f7b179b0ffacaa9a75d522b39400f62000117818484620001f9565b6080523060c05261012052506200013a9250620001349150503390565b62000243565b600160045582516200015490600590602086019062000e9e565b50620001603362000295565b6200016b8262000350565b6200017681620003bd565b601280546001600160a01b0319166001600160a01b038316179055620001a960066200045a602090811b62003a0717901c565b620001b5600162000463565b620001c1600262000463565b620001cd600362000463565b50506007805460ff1916905550620012ea565b8051620001f590600290602084019062000e9e565b5050565b6040805160208101859052908101839052606081018290524660808201523060a082015260009060c0016040516020818303038152906040528051906020012090505b9392505050565b600380546001600160a01b038381166001600160a01b0319831681179093556040519116919082907f8be0079c531659141344cd1fd0a4f28419497f9722a3daafe3b4186f6b6457e090600090a35050565b6003546001600160a01b03163314620002e45760405162461bcd60e51b81526020600482018190526024820152600080516020620071d283398151915260448201526064015b60405180910390fd5b6001600160a01b0381166200032c5760405162461bcd60e51b815260206004820152600d60248201526c656d707479206164647265737360981b6044820152606401620002db565b6001600160a01b03166000908152601460205260409020805460ff19166001179055565b6003546001600160a01b031633146200039b5760405162461bcd60e51b81526020600482018190526024820152600080516020620071d28339815191526044820152606401620002db565b601380546001600160a01b0319166001600160a01b0392909216919091179055565b6003546001600160a01b03163314620004085760405162461bcd60e51b81526020600482018190526024820152600080516020620071d28339815191526044820152606401620002db565b6001600160a01b0381166000818152601f6020908152604090912080546101009093026001600160a81b031990931692909217600117909155620001f590602190839062003a10620007c1821b17901c565b80546001019055565b60026004541415620004b85760405162461bcd60e51b815260206004820152601f60248201527f5265656e7472616e637947756172643a207265656e7472616e742063616c6c006044820152606401620002db565b600260045560075460ff16620005115760405162461bcd60e51b815260206004820152601360248201527f66656174757265206e6f7420656e61626c6564000000000000000000000000006044820152606401620002db565b600081118015620005225750600481105b620005705760405162461bcd60e51b815260206004820152601460248201527f6f6e6c79203320636f6c6f6e69657320657665720000000000000000000000006044820152606401620002db565b6200057b33620007e1565b15620005d45760405162461bcd60e51b815260206004820152602160248201527f636c616e206c65616465722063616e277420637265617465206e657720636c616044820152603760f91b6064820152608401620002db565b3360009081526014602052604090205460ff16620006d057336000908152601a602052604090206004015460ff16620006445760405162461bcd60e51b815260206004820152601160248201527036bab9ba1031329034b710309031b630b760791b6044820152606401620002db565b6000620006506200083d565b90508015620006ce576013546001600160a01b0316639dc29fac336040516001600160e01b031960e084901b1681526001600160a01b03909116600482015260248101849052604401600060405180830381600087803b158015620006b457600080fd5b505af1158015620006c9573d6000803e3d6000fd5b505050505b505b6000620006e960066200086a60201b62003a251760201c565b90508160176000838152602001908152602001600020819055506200071a60066200045a60201b62003a071760201c565b6040518290829033907f098df9d435f5abb718c2804ce7d7b6550ff16ebbabc96ba0da01d4860e2c4b6590600090a4336000908152601a6020819052604082208381554260028201819055600190910183905591620007763390565b6001600160a01b03168152602081019190915260400160002060030155620007b83382600854604051806020016040528060008152506200086e60201b60201c565b50506001600455565b6000620007d8836001600160a01b03841662000991565b90505b92915050565b6001600160a01b0381166000908152601a602052604081206004015460ff16156200083557506001600160a01b039081166000818152601a6020908152604080832054835260169091529020549091161490565b506000919050565b6000600a546200085960066200086a60201b62003a251760201c565b620008659190620010b7565b905090565b5490565b6001600160a01b038416620008d05760405162461bcd60e51b815260206004820152602160248201527f455243313135353a206d696e7420746f20746865207a65726f206164647265736044820152607360f81b6064820152608401620002db565b33620008f681600087620008e488620009e3565b620008ef88620009e3565b8762000a31565b6000848152602081815260408083206001600160a01b03891684529091528120805485929062000928908490620010d9565b909155505060408051858152602081018590526001600160a01b0380881692600092918516917fc3d58168c5ae7397731d063d5bbf3d657854427343f4c083240f7aacaa2d0f62910160405180910390a46200098a8160008787878762000b78565b5050505050565b6000818152600183016020526040812054620009da57508154600181810184556000848152602080822090930184905584548482528286019093526040902091909155620007db565b506000620007db565b6040805160018082528183019092526060916000919060208083019080368337019050509050828160008151811062000a205762000a20620010f4565b602090810291909101015292915050565b60005b835181101562000b5457600084828151811062000a555762000a55620010f4565b60200260200101519050600084838151811062000a765762000a76620010f4565b602002602001015162000a90888462000d5e60201b60201c565b62000a9c9190620010d9565b905062000aab87838362000df2565b1562000b3e576000828152601660209081526040918290205491518381526001600160a01b03928316928592908b169184917fe5de49455cbc88f3dd9d0d5cb562cc7e6513716e573a5be2023a8b3a42a733ee910160405180910390a45060008281526015602090815260408083208490556016909152902080546001600160a01b0319166001600160a01b0389161790555b50508062000b4c906200110a565b905062000a34565b5062000b7086868686868662000b7060201b62003a291760201c565b505050505050565b62000b97846001600160a01b031662000e5c60201b62003a311760201c565b1562000b705760405163f23a6e6160e01b81526001600160a01b0385169063f23a6e619062000bd3908990899088908890889060040162001156565b602060405180830381600087803b15801562000bee57600080fd5b505af192505050801562000c21575060408051601f3d908101601f1916820190925262000c1e918101906200119d565b60015b62000ce25762000c30620011c9565b806308c379a0141562000c71575062000c48620011e6565b8062000c55575062000c73565b8060405162461bcd60e51b8152600401620002db919062001275565b505b60405162461bcd60e51b815260206004820152603460248201527f455243313135353a207472616e7366657220746f206e6f6e204552433131353560448201527f526563656976657220696d706c656d656e7465720000000000000000000000006064820152608401620002db565b6001600160e01b0319811663f23a6e6160e01b1462000d555760405162461bcd60e51b815260206004820152602860248201527f455243313135353a204552433131353552656365697665722072656a656374656044820152676420746f6b656e7360c01b6064820152608401620002db565b50505050505050565b60006001600160a01b03831662000dcc5760405162461bcd60e51b815260206004820152602b60248201527f455243313135353a2062616c616e636520717565727920666f7220746865207a60448201526a65726f206164647265737360a81b6064820152608401620002db565b506000908152602081815260408083206001600160a01b03949094168352929052205490565b6000828152601660205260408120546001600160a01b038581169116141562000e1e575060006200023c565b6001600160a01b0384166000908152601a6020526040902054831462000e47575060006200023c565b62000e528362000e62565b9091119392505050565b3b151590565b60006064600954606462000e779190620010d9565b60008481526015602052604090205462000e929190620010b7565b620007db91906200128a565b82805462000eac90620012ad565b90600052602060002090601f01602090048101928262000ed0576000855562000f1b565b82601f1062000eeb57805160ff191683800117855562000f1b565b8280016001018555821562000f1b579182015b8281111562000f1b57825182559160200191906001019062000efe565b5062000f2992915062000f2d565b5090565b5b8082111562000f29576000815560010162000f2e565b634e487b7160e01b600052604160045260246000fd5b601f8201601f191681016001600160401b038111828210171562000f825762000f8262000f44565b6040525050565b60005b8381101562000fa657818101518382015260200162000f8c565b8381111562000fb6576000848401525b50505050565b80516001600160a01b038116811462000fd457600080fd5b919050565b60008060006060848603121562000fef57600080fd5b83516001600160401b03808211156200100757600080fd5b818601915086601f8301126200101c57600080fd5b81518181111562001031576200103162000f44565b60405191506200104c601f8201601f19166020018362000f5a565b8082528760208285010111156200106257600080fd5b6200107581602084016020860162000f89565b5093506200108890506020850162000fbc565b9150620010986040850162000fbc565b90509250925092565b634e487b7160e01b600052601160045260246000fd5b6000816000190483118215151615620010d457620010d4620010a1565b500290565b60008219821115620010ef57620010ef620010a1565b500190565b634e487b7160e01b600052603260045260246000fd5b6000600019821415620011215762001121620010a1565b5060010190565b600081518084526200114281602086016020860162000f89565b601f01601f19169290920160200192915050565b6001600160a01b03868116825285166020820152604081018490526060810183905260a060808201819052600090620011929083018462001128565b979650505050505050565b600060208284031215620011b057600080fd5b81516001600160e01b0319811681146200023c57600080fd5b600060033d1115620011e35760046000803e5060005160e01c5b90565b600060443d1015620011f55790565b6040516003193d81016004833e81513d6001600160401b0380831160248401831017156200122557505050505090565b82850191508151818111156200123e5750505050505090565b843d8701016020828501011115620012595750505050505090565b6200126a6020828601018762000f5a565b509095945050505050565b602081526000620007d8602083018462001128565b600082620012a857634e487b7160e01b600052601260045260246000fd5b500490565b600181811c90821680620012c257607f821691505b60208210811415620012e457634e487b7160e01b600052602260045260246000fd5b50919050565b60805160a05160c05160e0516101005161012051615e986200133a6000396000614d1601526000614d6501526000614d4001526000614c9901526000614cc301526000614ced0152615e986000f3fe608060405234801561001057600080fd5b50600436106104ab5760003560e01c8063704802751161026d578063b04c67cd11610151578063cb1ca663116100ce578063ea102d7411610092578063ea102d7414610c04578063f242432a14610c0d578063f2fde38b14610c20578063f327a62c14610c33578063fbbbec0a14610c3b578063fbe5df7414610c4e57600080fd5b8063cb1ca66314610b86578063dd2e3aa014610b99578063df79823514610bac578063e407724414610bbf578063e985e9c514610bc857600080fd5b8063c004d49811610115578063c004d49814610b46578063c18002c414610b4f578063c22053e814610b62578063c284f84114610b75578063c3bfb94814610b7d57600080fd5b8063b04c67cd14610afc578063b390c0ab14610b04578063b948843014610b17578063bbcd5bbe14610b20578063bef704ff14610b3357600080fd5b8063a0becea0116101ea578063a686eb5f116101ae578063a686eb5f146109f1578063a7757c9c14610a04578063a7fe13db14610aa3578063a971ea0614610ab6578063abaf764814610ac9578063ae910f5f14610adc57600080fd5b8063a0becea01461098e578063a22cb465146109a1578063a2e3d9e3146109b4578063a47f3b70146109be578063a491445b146109d157600080fd5b8063754b069f11610231578063754b069f1461091b578063772638741461092e57806380ee4460146109415780638da5cb5b146109545780639dd1e9d01461096557600080fd5b8063704802751461087b57806370a082311461088e57806370fde7e0146108a1578063715018a6146108a957806371c10cae146108b157600080fd5b8063404cbffb116103945780635d1b45b5116103115780636352211e116102d55780636352211e1461079457806364090615146107d057806367a46f73146107e3578063684259921461080357806369dc9ff3146108165780636cbc168c1461086857600080fd5b80635d1b45b51461074a5780635dbe4756146107525780635f539d69146107655780636154ec1d14610778578063620dee421461078b57600080fd5b806354fa7b6e1161035857806354fa7b6e146106fb578063552c5b3c1461070e57806355c0beaa1461071b57806355f804b3146107245780635a21eb971461073757600080fd5b8063404cbffb146106995780634ab57c55146106ac5780634b56a707146106b55780634b7c764c146106c85780634e1273f4146106db57600080fd5b8063156e29f61161042d5780632eb2c2d6116103f15780632eb2c2d61461061b578063369e0e091461062e57806336d814ff146106415780633b091756146106615780633b6e8919146106735780633ddb9e851461068657600080fd5b8063156e29f6146105b95780631785f53c146105cc57806324d16a1c146105df57806329d36a5b146105e85780632bae938f146105fb57600080fd5b80630e89341c116104745780630e89341c14610562578063106cffe2146105825780631324b10f1461059557806314887c581461059e5780631506a40c146105b157600080fd5b8062fdd58e146104b057806301ffc9a7146104d657806302d61d0f146104f9578063046dc1661461050e578063085cdabf14610521575b600080fd5b6104c36104be366004614fe9565b610c61565b6040519081526020015b60405180910390f35b6104e96104e4366004615029565b610cfb565b60405190151581526020016104cd565b61050c610507366004615087565b610d4b565b005b61050c61051c366004615101565b61112a565b61054a61052f36600461511c565b6000908152601660205260409020546001600160a01b031690565b6040516001600160a01b0390911681526020016104cd565b61057561057036600461511c565b611176565b6040516104cd9190615191565b6104c3610590366004615101565b61124f565b6104c360085481565b6104e96105ac366004615101565b61126c565b61050c61128d565b61050c6105c73660046151a4565b6112cb565b61050c6105da366004615101565b611381565b6104c3600b5481565b61050c6105f636600461511c565b611412565b61060e610609366004615101565b611441565b6040516104cd91906151d7565b61050c610629366004615365565b6114d2565b6104c361063c36600461511c565b611569565b61065461064f36600461511c565b6115e1565b6040516104cd9190615449565b6007546104e990610100900460ff1681565b61050c610681366004615528565b61177a565b60125461054a906001600160a01b031681565b61054a6106a736600461511c565b611a56565b6104c3600f5481565b61050c6106c336600461511c565b611a80565b61050c6106d636600461511c565b611aaf565b6106ee6106e936600461554a565b611ade565b6040516104cd9190615614565b61050c610709366004615627565b611c07565b6007546104e99060ff1681565b6104c3600a5481565b61050c61073236600461567d565b611ec4565b6007546104e99062010000900460ff1681565b601b546104c3565b61050c6107603660046156c5565b611f05565b61050c610773366004615101565b612199565b6104c361078636600461511c565b612203565b6104c3600c5481565b61054a6107a236600461511c565b6012546001600160a01b039081166000908152601d6020908152604080832094835293905291909120541690565b61050c6107de36600461511c565b612275565b6104c36107f136600461511c565b60156020526000908152604090205481565b610654610811366004615708565b6122a4565b610849610824366004615101565b601f6020526000908152604090205460ff81169061010090046001600160a01b031682565b6040805192151583526001600160a01b039091166020830152016104cd565b61050c61087636600461511c565b6125bd565b61050c610889366004615101565b6125ec565b6104c361089c366004615101565b612680565b6104c36126ba565b61050c6126d7565b6108f16108bf366004615101565b601a60205260009081526040902080546001820154600283015460038401546004909401549293919290919060ff1685565b6040805195865260208601949094529284019190915260608301521515608082015260a0016104cd565b6106ee610929366004615734565b61270d565b6104e961093c366004615101565b612801565b60135461054a906001600160a01b031681565b6003546001600160a01b031661054a565b61054a61097336600461511c565b6016602052600090815260409020546001600160a01b031681565b6104e961099c3660046151a4565b61285c565b61050c6109af36600461576c565b6128c0565b6006546104c39081565b6104c36109cc36600461511c565b6128cb565b6109e46109df36600461511c565b6128fe565b6040516104cd91906157a3565b6104c36109ff366004614fe9565b612a1f565b610a5f610a12366004615101565b6019602052600090815260409020805460018201546002830154600384015460048501546005860154600687015460079097015495969495939492936001600160a01b0390921692909188565b6040805198895260208901979097529587019490945260608601929092526001600160a01b0316608085015260a084015260c083015260e0820152610100016104cd565b61054a610ab13660046157f0565b612a73565b61050c610ac436600461576c565b612ad1565b61050c610ad736600461511c565b612b9b565b6104c3610aea36600461511c565b60176020526000908152604090205481565b61050c612e26565b61050c610b12366004615528565b612e6f565b6104c360115481565b61050c610b2e366004615101565b612f55565b61050c610b4136600461511c565b612fa1565b6104c3600d5481565b6104e9610b5d366004614fe9565b612fd0565b6104e9610b70366004614fe9565b6132b1565b61050c613576565b6104c360105481565b61050c610b9436600461511c565b6136b1565b61050c610ba736600461511c565b613727565b61050c610bba36600461511c565b613756565b6104c360095481565b6104e9610bd6366004615734565b6001600160a01b03918216600090815260016020908152604080832093909416825291909152205460ff1690565b6104c3600e5481565b61050c610c1b366004615887565b613785565b61050c610c2e366004615101565b61380c565b61050c6138a7565b6106ee610c4936600461511c565b6138ee565b6104c3610c5c36600461511c565b6139d1565b60006001600160a01b038316610cd25760405162461bcd60e51b815260206004820152602b60248201527f455243313135353a2062616c616e636520717565727920666f7220746865207a60448201526a65726f206164647265737360a81b60648201526084015b60405180910390fd5b506000818152602081815260408083206001600160a01b03861684529091529020545b92915050565b60006001600160e01b03198216636cdb3d1360e11b1480610d2c57506001600160e01b031982166303a24d0760e21b145b80610cf557506301ffc9a760e01b6001600160e01b0319831614610cf5565b60026004541415610d6e5760405162461bcd60e51b8152600401610cc9906158eb565b600260045586610dae5760405162461bcd60e51b815260206004820152600b60248201526a656d70747920636c61696d60a81b6044820152606401610cc9565b610dc7338888888888610dc03361124f565b8989612a73565b6018546001600160a01b03908116911614610e185760405162461bcd60e51b8152602060048201526011602482015270696e76616c6964207369676e617475726560781b6044820152606401610cc9565b6013546001600160a01b03166340c10f19336040516001600160e01b031960e084901b1681526001600160a01b039091166004820152602481018a9052604401600060405180830381600087803b158015610e7257600080fd5b505af1158015610e86573d6000803e3d6000fd5b50505050610ec160206000610e983390565b6001600160a01b03166001600160a01b0316815260200190815260200160002080546001019055565b336000818152601a6020908152604091829020548251610100810184528b81529182018a9052918101829052606081018890526001600160a01b038716608082015260a08101869052909160c0820190610f1a9061124f565b815242602091820152336000908152601982526040908190208351815591830151600183015582015160028201556060820151600382015560808201516004820180546001600160a01b0319166001600160a01b0390921691909117905560a0820151600582015560c0820151600682015560e0909101516007909101558615611003576013546040516340c10f1960e01b8152306004820152602481018990526001600160a01b03909116906340c10f1990604401600060405180830381600087803b158015610fea57600080fd5b505af1158015610ffe573d6000803e3d6000fd5b505050505b6001600160a01b0385161580159061101b5750600084115b15611087576013546040516340c10f1960e01b81526001600160a01b03878116600483015260248201879052909116906340c10f1990604401600060405180830381600087803b15801561106e57600080fd5b505af1158015611082573d6000803e3d6000fd5b505050505b600081118015611098575060065481105b80156110a45750600086115b156110c4576110c433828860405180602001604052806000815250613a37565b60408051898152602081018990528082018890526060810186905290516001600160a01b03871691839133917f43b0af35ff85236f17bb5c8ce62bd525213a6fb4694f4f2f080f2603baaa06b2919081900360800190a450506001600455505050505050565b6003546001600160a01b031633146111545760405162461bcd60e51b8152600401610cc990615922565b601880546001600160a01b0319166001600160a01b0392909216919091179055565b606060006005805461118790615957565b90501161121e576005805461119b90615957565b80601f01602080910402602001604051908101604052809291908181526020018280546111c790615957565b80156112145780601f106111e957610100808354040283529160200191611214565b820191906000526020600020905b8154815290600101906020018083116111f757829003601f168201915b5050505050610cf5565b600561122983613b47565b60405160200161123a9291906159ae565b60405160208183030381529060405292915050565b6001600160a01b0381166000908152602080526040812054610cf5565b6001600160a01b03166000908152601a602052604090206004015460ff1690565b6003546001600160a01b031633146112b75760405162461bcd60e51b8152600401610cc990615922565b6007805460ff19811660ff90911615179055565b3360009081526014602052604090205460ff166113195760405162461bcd60e51b815260206004820152600c60248201526b41646d696e73206f6e6c792160a01b6044820152606401610cc9565b604080518281526001600160a01b0385163281146020830152849290917f69dff97591dfad68d690a0deccd16ef2aaf0b65205732bf647a9e5b129b77099910160405180910390a361137c83838360405180602001604052806000815250613a37565b505050565b6003546001600160a01b031633146113ab5760405162461bcd60e51b8152600401610cc990615922565b6001600160a01b0381166113f15760405162461bcd60e51b815260206004820152600d60248201526c656d707479206164647265737360981b6044820152606401610cc9565b6001600160a01b03166000908152601460205260409020805460ff19169055565b6003546001600160a01b0316331461143c5760405162461bcd60e51b8152600401610cc990615922565b600855565b6114756040518060a00160405280600081526020016000815260200160008152602001600081526020016000151581525090565b506001600160a01b03166000908152601a6020908152604091829020825160a081018452815481526001820154928101929092526002810154928201929092526003820154606082015260049091015460ff161515608082015290565b6001600160a01b0385163314806114ee57506114ee8533610bd6565b6115555760405162461bcd60e51b815260206004820152603260248201527f455243313135353a207472616e736665722063616c6c6572206973206e6f74206044820152711bdddb995c881b9bdc88185c1c1c9bdd995960721b6064820152608401610cc9565b6115628585858585613c4c565b5050505050565b6000808211801561157a5750600482105b6115965760405162461bcd60e51b8152600401610cc990615a55565b6000805b6006548110156115da576000818152601760205260409020548414156115c857816115c481615a99565b9250505b806115d281615a99565b91505061159a565b5092915050565b606060006115ee83612203565b90506000816001600160401b0381111561160a5761160a615212565b60405190808252806020026020018201604052801561164357816020015b611630614ed2565b8152602001906001900390816116285790505b5090506000805b601b548110156117705785601a6000601b848154811061166c5761166c615ab4565b60009182526020808320909101546001600160a01b03168352820192909252604001902054141561175e57601b81815481106116aa576116aa615ab4565b9060005260206000200160009054906101000a90046001600160a01b03168383815181106116da576116da615ab4565b6020026020010151600001906001600160a01b031690816001600160a01b03168152505061172e601b828154811061171457611714615ab4565b6000918252602090912001546001600160a01b0316611441565b83838151811061174057611740615ab4565b602002602001015160600181905250818061175a90615a99565b9250505b8061176881615a99565b91505061164a565b5090949350505050565b6002600454141561179d5760405162461bcd60e51b8152600401610cc9906158eb565b6002600455600754610100900460ff166117ef5760405162461bcd60e51b81526020600482015260136024820152721999585d1d5c99481b9bdd08195b98589b1959606a1b6044820152606401610cc9565b6000811180156117ff5750600481105b61181b5760405162461bcd60e51b8152600401610cc990615a55565b60008211801561182c575060065482105b6118675760405162461bcd60e51b815260206004820152600c60248201526b34b73b30b634b21031b630b760a11b6044820152606401610cc9565b6000828152601760205260409020548114156118d15760405162461bcd60e51b815260206004820152602360248201527f636c616e20616c72656164792062656c6f6e677320746f207468697320636f6c6044820152626f6e7960e81b6064820152608401610cc9565b600082815260176020526040812054906118ea82611569565b9050601154811161194d5760405162461bcd60e51b815260206004820152602760248201527f636f6c6f6e79206e6565647320746f2068617665206174206c6561737420736f60448201526636b29031b630b760c91b6064820152608401610cc9565b3360009081526014602052604090205460ff16611a0e576000848152601660205260409020546001600160a01b0316331461199a5760405162461bcd60e51b8152600401610cc990615aca565b6013546001600160a01b0316639dc29fac33600b546040516001600160e01b031960e085901b1681526001600160a01b0390921660048301526024820152604401600060405180830381600087803b1580156119f557600080fd5b505af1158015611a09573d6000803e3d6000fd5b505050505b6040518390859033907f11e18d222af18722d0ce2b9363cf0777a37b4de62d4bac0494bf9a9e9137138890600090a45050600091825260176020526040909120556001600455565b601b8181548110611a6657600080fd5b6000918252602090912001546001600160a01b0316905081565b6003546001600160a01b03163314611aaa5760405162461bcd60e51b8152600401610cc990615922565b601155565b6003546001600160a01b03163314611ad95760405162461bcd60e51b8152600401610cc990615922565b600e55565b60608151835114611b435760405162461bcd60e51b815260206004820152602960248201527f455243313135353a206163636f756e747320616e6420696473206c656e677468604482015268040dad2e6dac2e8c6d60bb1b6064820152608401610cc9565b600083516001600160401b03811115611b5e57611b5e615212565b604051908082528060200260200182016040528015611b87578160200160208202803683370190505b50905060005b8451811015611bff57611bd2858281518110611bab57611bab615ab4565b6020026020010151858381518110611bc557611bc5615ab4565b6020026020010151610c61565b828281518110611be457611be4615ab4565b6020908102919091010152611bf881615a99565b9050611b8d565b509392505050565b611c146020600033610e98565b60026004541415611c375760405162461bcd60e51b8152600401610cc9906158eb565b60026004556001600160a01b0383166000908152601f60205260409020805460ff16611ca55760405162461bcd60e51b815260206004820152601c60248201527f746f6b656e20636f6e7472616374206973206e6f7420616374697665000000006044820152606401610cc9565b611cae33612801565b15611d1157336000908152601a60205260409020548214611d115760405162461bcd60e51b815260206004820152601f60248201527f636c616e206c65616465722063616e27742073776974636820636c616e7321006044820152606401610cc9565b611d1b3383613e2f565b60005b8351811015611eb8576000848281518110611d3b57611d3b615ab4565b60200260200101519050611d4c3390565b6001600160a01b038781166000908152601d60209081526040808320868452909152902080546001600160a01b0319169282169290921790915583546101009004166323b872dd336040516001600160e01b031960e084901b1681526001600160a01b03909116600482015230602482015260448101849052606401600060405180830381600087803b158015611de257600080fd5b505af1158015611df6573d6000803e3d6000fd5b5050506001600160a01b0387166000908152601c60205260408120611e3e92508391611e1f3390565b6001600160a01b0316815260208101919091526040016000209061402e565b506001600160a01b0386166000818152601e6020908152604080832085845282529182902042905581518481529081019290925233828201525185917ff7373f56c201647feae85a62d3cf56286ed3a43d20c5eb7f9883d6ea690ef7c0919081900360600190a25080611eb081615a99565b915050611d1e565b50506001600455505050565b6003546001600160a01b03163314611eee5760405162461bcd60e51b8152600401610cc990615922565b8051611f01906005906020840190614f34565b5050565b611f126020600033610e98565b81611f1e60218261403a565b611f3a5760405162461bcd60e51b8152600401610cc990615af4565b60026004541415611f5d5760405162461bcd60e51b8152600401610cc9906158eb565b60026004556001600160a01b0383166000908152601f60205260408120905b8351811015611eb8576000848281518110611f9957611f99615ab4565b60200260200101519050611ff481601c6000896001600160a01b03166001600160a01b031681526020019081526020016000206000611fd53390565b6001600160a01b0316815260208101919091526040016000209061405c565b6120365760405162461bcd60e51b81526020600482015260136024820152721d1bdad95b881a5cc81b9bdd081cdd185ad959606a1b6044820152606401610cc9565b6001600160a01b038681166000908152601d60209081526040808320858452909152902080546001600160a01b031916905583546101009004166323b872dd30336040516001600160e01b031960e085901b1681526001600160a01b0392831660048201529116602482015260448101849052606401600060405180830381600087803b1580156120c657600080fd5b505af11580156120da573d6000803e3d6000fd5b5050506001600160a01b0387166000908152601c60205260408120612122925083916121033390565b6001600160a01b03168152602081019190915260400160002090614074565b506001600160a01b0386166000818152601e602090815260408083208584528252808320929092558151848152908101929092523382820152517fda7b3993b5962cc80555cf305cbd92948048874e1a76a22272bdaaff09baeb659181900360600190a1508061219181615a99565b915050611f7c565b6003546001600160a01b031633146121c35760405162461bcd60e51b8152600401610cc990615922565b6001600160a01b0381166000818152601f6020526040902080546101009092026001600160a81b0319909216919091176001179055611f01602182613a10565b600080805b601b548110156115da5783601a6000601b848154811061222a5761222a615ab4565b60009182526020808320909101546001600160a01b031683528201929092526040019020541415612263578161225f81615a99565b9250505b8061226d81615a99565b915050612208565b6003546001600160a01b0316331461229f5760405162461bcd60e51b8152600401610cc990615922565b600d55565b606060006122b184612203565b90506000816001600160401b038111156122cd576122cd615212565b60405190808252806020026020018201604052801561230657816020015b6122f3614ed2565b8152602001906001900390816122eb5790505b5090506000805b601b548110156125b25786601a6000601b848154811061232f5761232f615ab4565b60009182526020808320909101546001600160a01b0316835282019290925260400190205414156125a057601b818154811061236d5761236d615ab4565b9060005260206000200160009054906101000a90046001600160a01b031683838151811061239d5761239d615ab4565b6020026020010151600001906001600160a01b031690816001600160a01b0316815250506123d7601b828154811061171457611714615ab4565b8383815181106123e9576123e9615ab4565b60200260200101516060018190525061242986601b838154811061240f5761240f615ab4565b6000918252602090912001546001600160a01b031661270d565b83838151811061243b5761243b615ab4565b602002602001015160200181905250600083838151811061245e5761245e615ab4565b60200260200101516020015151111561259257600083838151811061248557612485615ab4565b602002602001015160200151516001600160401b038111156124a9576124a9615212565b6040519080825280602002602001820160405280156124d2578160200160208202803683370190505b50905060005b8484815181106124ea576124ea615ab4565b6020026020010151602001515181101561256d5761253e8886868151811061251457612514615ab4565b602002602001015160200151838151811061253157612531615ab4565b6020026020010151612a1f565b82828151811061255057612550615ab4565b60209081029190910101528061256581615a99565b9150506124d8565b508084848151811061258157612581615ab4565b602002602001015160400181905250505b8161259c81615a99565b9250505b806125aa81615a99565b91505061230d565b509095945050505050565b6003546001600160a01b031633146125e75760405162461bcd60e51b8152600401610cc990615922565b600b55565b6003546001600160a01b031633146126165760405162461bcd60e51b8152600401610cc990615922565b6001600160a01b03811661265c5760405162461bcd60e51b815260206004820152600d60248201526c656d707479206164647265737360981b6044820152606401610cc9565b6001600160a01b03166000908152601460205260409020805460ff19166001179055565b6012546001600160a01b039081166000908152601c6020908152604080832093851683529290529081206126b381614080565b9392505050565b6000600a546126c860065490565b6126d29190615b2b565b905090565b6003546001600160a01b031633146127015760405162461bcd60e51b8152600401610cc990615922565b61270b600061408a565b565b60608261271b60218261403a565b6127375760405162461bcd60e51b8152600401610cc990615af4565b6001600160a01b038085166000908152601c6020908152604080832093871683529290529081209061276882614080565b6001600160401b0381111561277f5761277f615212565b6040519080825280602002602001820160405280156127a8578160200160208202803683370190505b50905060005b6127b783614080565b8110156127f7576127c883826140dc565b8282815181106127da576127da615ab4565b6020908102919091010152806127ef81615a99565b9150506127ae565b5095945050505050565b6001600160a01b0381166000908152601a602052604081206004015460ff161561285457506001600160a01b039081166000818152601a6020908152604080832054835260169091529020549091161490565b506000919050565b6000828152601660205260408120546001600160a01b0385811691161415612886575060006126b3565b6001600160a01b0384166000908152601a602052604090205483146128ad575060006126b3565b6128b6836139d1565b9091119392505050565b611f013383836140e8565b6000620186a0600d546128dd84612203565b6128e79190615b2b565b6128f19190615b60565b600c54610cf59190615b74565b6060600061290b83612203565b90506000816001600160401b0381111561292757612927615212565b604051908082528060200260200182016040528015612950578160200160208202803683370190505b5090506000805b601b548110156117705785601a6000601b848154811061297957612979615ab4565b60009182526020808320909101546001600160a01b031683528201929092526040019020541415612a0d57601b81815481106129b7576129b7615ab4565b9060005260206000200160009054906101000a90046001600160a01b03168383815181106129e7576129e7615ab4565b6001600160a01b039092166020928302919091019091015281612a0981615a99565b9250505b80612a1781615a99565b915050612957565b600082612a2d60218261403a565b612a495760405162461bcd60e51b8152600401610cc990615af4565b50506001600160a01b03919091166000908152601e60209081526040808320938352929052205490565b6000612ac3612a878b8b8b8b8b8b8b6141c9565b84848080601f01602080910402602001604051908101604052809392919081815260200183838082843760009201919091525061426392505050565b9a9950505050505050505050565b6003546001600160a01b03163314612afb5760405162461bcd60e51b8152600401610cc990615922565b81612b0760218261403a565b612b235760405162461bcd60e51b8152600401610cc990615af4565b612b2e60218461403a565b612b6f5760405162461bcd60e51b815260206004820152601260248201527118dbdb9d1c9858dd081b9bdd08185919195960721b6044820152606401610cc9565b506001600160a01b03919091166000908152601f60205260409020805460ff1916911515919091179055565b60026004541415612bbe5760405162461bcd60e51b8152600401610cc9906158eb565b600260045560075460ff16612c0b5760405162461bcd60e51b81526020600482015260136024820152721999585d1d5c99481b9bdd08195b98589b1959606a1b6044820152606401610cc9565b600081118015612c1b5750600481105b612c375760405162461bcd60e51b8152600401610cc990615a55565b612c4033612801565b15612c975760405162461bcd60e51b815260206004820152602160248201527f636c616e206c65616465722063616e277420637265617465206e657720636c616044820152603760f91b6064820152608401610cc9565b3360009081526014602052604090205460ff16612d7e57612cb73361126c565b612cf75760405162461bcd60e51b815260206004820152601160248201527036bab9ba1031329034b710309031b630b760791b6044820152606401610cc9565b6000612d016126ba565b90508015612d7c576013546001600160a01b0316639dc29fac336040516001600160e01b031960e084901b1681526001600160a01b03909116600482015260248101849052604401600060405180830381600087803b158015612d6357600080fd5b505af1158015612d77573d6000803e3d6000fd5b505050505b505b6000612d8960065490565b60008181526017602052604090208390559050612daa600680546001019055565b6040518290829033907f098df9d435f5abb718c2804ce7d7b6550ff16ebbabc96ba0da01d4860e2c4b6590600090a4336000818152601a602090815260408083208581554260028201819055600182018590556003909101556008548151928301909152918152612e1d92918491613a37565b50506001600455565b6003546001600160a01b03163314612e505760405162461bcd60e51b8152600401610cc990615922565b6007805462ff0000198116620100009182900460ff1615909102179055565b3360009081526014602052604090205460ff16612ebd5760405162461bcd60e51b815260206004820152600c60248201526b41646d696e73206f6e6c792160a01b6044820152606401610cc9565b612ec73283610c61565b612f135760405162461bcd60e51b815260206004820152601760248201527f4f6f707320796f7520646f6e2774206f776e20746861740000000000000000006044820152606401610cc9565b604051818152829032907f23ff0e75edf108e3d0392d92e13e8c8a868ef19001bd49f9e94876dc46dff87f9060200160405180910390a3611f0132838361427f565b6003546001600160a01b03163314612f7f5760405162461bcd60e51b8152600401610cc990615922565b601380546001600160a01b0319166001600160a01b0392909216919091179055565b6003546001600160a01b03163314612fcb5760405162461bcd60e51b8152600401610cc990615922565b600c55565b6000612fdb8361126c565b6130215760405162461bcd60e51b815260206004820152601760248201527630b1b1b7bab73a103737ba1034b71030b73c9031b630b760491b6044820152606401610cc9565b6001600160a01b0383166000908152601a6020526040902054821461307e5760405162461bcd60e51b815260206004820152601360248201527230b1b1b7bab73a103737ba1034b71031b630b760691b6044820152606401610cc9565b6010546001600160a01b0384166000908152601a6020526040902060010154106130dd5760405162461bcd60e51b815260206004820152601060248201526f1b585e081c985b9ac81c995858da195960821b6044820152606401610cc9565b33600090815260146020526040812054819060ff1661320d576000848152601660205260409020546001600160a01b0316331461312c5760405162461bcd60e51b8152600401610cc990615aca565b600e546001600160a01b0386166000908152601a60205260409020600101546131559190615b2b565b915081156131d0576013546001600160a01b0316639dc29fac336040516001600160e01b031960e084901b1681526001600160a01b03909116600482015260248101859052604401600060405180830381600087803b1580156131b757600080fd5b505af11580156131cb573d6000803e3d6000fd5b505050505b600f546001600160a01b0386166000908152601a60205260409020600101546131f99190615b2b565b9050801561320d5761320d335b858361427f565b6001600160a01b0385166000908152601a6020526040902060019081015461323491615b74565b6001600160a01b0386166000818152601a6020908152604091829020600181018590554260039091015581518881529081019390935282018490526060820183905233917fbd7c6040aaef966cca2731d89abf2e7bde6aa52643f6567712514d7f21225534906080015b60405180910390a3506001949350505050565b60006132bc8361126c565b6133025760405162461bcd60e51b815260206004820152601760248201527630b1b1b7bab73a103737ba1034b71030b73c9031b630b760491b6044820152606401610cc9565b6001600160a01b0383166000908152601a6020526040902054821461335f5760405162461bcd60e51b815260206004820152601360248201527230b1b1b7bab73a103737ba1034b71031b630b760691b6044820152606401610cc9565b6001600160a01b0383166000908152601a60205260409020600101546133b35760405162461bcd60e51b8152602060048201526009602482015268072616e6b20697320360bc1b6044820152606401610cc9565b33600090815260146020526040812054819060ff166134e0576000848152601660205260409020546001600160a01b031633146134025760405162461bcd60e51b8152600401610cc990615aca565b600e546001600160a01b0386166000908152601a602052604090206001015461342b9190615b2b565b915081156134a6576013546001600160a01b0316639dc29fac336040516001600160e01b031960e084901b1681526001600160a01b03909116600482015260248101859052604401600060405180830381600087803b15801561348d57600080fd5b505af11580156134a1573d6000803e3d6000fd5b505050505b600f546001600160a01b0386166000908152601a60205260409020600101546134cf9190615b2b565b905080156134e0576134e033613206565b6001600160a01b0385166000908152601a602052604090206001908101546135089190615b8c565b6001600160a01b0386166000818152601a6020908152604091829020600181018590554260039091015581518881529081019390935282018490526060820183905233917f5077700d83b75631faaade235d69f1895833ee74fe19c70585d601501db8967e9060800161329e565b6003546001600160a01b031633146135a05760405162461bcd60e51b8152600401610cc990615922565b6013546040516370a0823160e01b81523060048201526000916001600160a01b0316906370a082319060240160206040518083038186803b1580156135e457600080fd5b505afa1580156135f8573d6000803e3d6000fd5b505050506040513d601f19601f8201168201806040525081019061361c9190615ba3565b6013549091506001600160a01b031663a9059cbb336040516001600160e01b031960e084901b1681526001600160a01b03909116600482015260248101849052604401602060405180830381600087803b15801561367957600080fd5b505af115801561368d573d6000803e3d6000fd5b505050506040513d601f19601f82011682018060405250810190611f019190615bbc565b6003546001600160a01b031633146136db5760405162461bcd60e51b8152600401610cc990615922565b6000600954116137225760405162461bcd60e51b815260206004820152601260248201527156616c7565206c6f776572207468656e203160701b6044820152606401610cc9565b600955565b6003546001600160a01b031633146137515760405162461bcd60e51b8152600401610cc990615922565b600f55565b6003546001600160a01b031633146137805760405162461bcd60e51b8152600401610cc990615922565b600a55565b6001600160a01b0385163314806137a157506137a18533610bd6565b6137ff5760405162461bcd60e51b815260206004820152602960248201527f455243313135353a2063616c6c6572206973206e6f74206f776e6572206e6f7260448201526808185c1c1c9bdd995960ba1b6064820152608401610cc9565b61156285858585856143f8565b6003546001600160a01b031633146138365760405162461bcd60e51b8152600401610cc990615922565b6001600160a01b03811661389b5760405162461bcd60e51b815260206004820152602660248201527f4f776e61626c653a206e6577206f776e657220697320746865207a65726f206160448201526564647265737360d01b6064820152608401610cc9565b6138a48161408a565b50565b6003546001600160a01b031633146138d15760405162461bcd60e51b8152600401610cc990615922565b6007805461ff001981166101009182900460ff1615909102179055565b60606000821180156139005750600482105b61391c5760405162461bcd60e51b8152600401610cc990615a55565b600061392783611569565b90506000816001600160401b0381111561394357613943615212565b60405190808252806020026020018201604052801561396c578160200160208202803683370190505b5090506000805b600654811015611770576000818152601760205260409020548614156139bf57808383815181106139a6576139a6615ab4565b6020908102919091010152816139bb81615a99565b9250505b806139c981615a99565b915050613973565b6000606460095460646139e49190615b74565b6000848152601560205260409020546139fd9190615b2b565b610cf59190615b60565b80546001019055565b60006126b3836001600160a01b038416614515565b5490565b505050505050565b3b151590565b6001600160a01b038416613a975760405162461bcd60e51b815260206004820152602160248201527f455243313135353a206d696e7420746f20746865207a65726f206164647265736044820152607360f81b6064820152608401610cc9565b33613ab781600087613aa888614564565b613ab188614564565b876145af565b6000848152602081815260408083206001600160a01b038916845290915281208054859290613ae7908490615b74565b909155505060408051858152602081018590526001600160a01b0380881692600092918516917fc3d58168c5ae7397731d063d5bbf3d657854427343f4c083240f7aacaa2d0f62910160405180910390a4611562816000878787876146c1565b606081613b6b5750506040805180820190915260018152600360fc1b602082015290565b8160005b8115613b955780613b7f81615a99565b9150613b8e9050600a83615b60565b9150613b6f565b6000816001600160401b03811115613baf57613baf615212565b6040519080825280601f01601f191660200182016040528015613bd9576020820181803683370190505b5090505b8415613c4457613bee600183615b8c565b9150613bfb600a86615bd9565b613c06906030615b74565b60f81b818381518110613c1b57613c1b615ab4565b60200101906001600160f81b031916908160001a905350613c3d600a86615b60565b9450613bdd565b949350505050565b8151835114613cae5760405162461bcd60e51b815260206004820152602860248201527f455243313135353a2069647320616e6420616d6f756e7473206c656e677468206044820152670dad2e6dac2e8c6d60c31b6064820152608401610cc9565b6001600160a01b038416613cd45760405162461bcd60e51b8152600401610cc990615bed565b33613ce38187878787876145af565b60005b8451811015613dc9576000858281518110613d0357613d03615ab4565b602002602001015190506000858381518110613d2157613d21615ab4565b602090810291909101810151600084815280835260408082206001600160a01b038e168352909352919091205490915081811015613d715760405162461bcd60e51b8152600401610cc990615c32565b6000838152602081815260408083206001600160a01b038e8116855292528083208585039055908b16825281208054849290613dae908490615b74565b9250508190555050505080613dc290615a99565b9050613ce6565b50846001600160a01b0316866001600160a01b0316826001600160a01b03167f4a39dc06d4c0dbc64b70af90fd698a233a518aa5d07e595d983b8c0526c8f7fb8787604051613e19929190615c7c565b60405180910390a4613a2981878787878761482c565b600081118015613e40575060065481105b613e7b5760405162461bcd60e51b815260206004820152600c60248201526b34b73b30b634b21031b630b760a11b6044820152606401610cc9565b613e848261126c565b15613fac576001600160a01b0382166000908152601a60205260409020548114611f01576000613eb3826128cb565b6013549091506001600160a01b0316639dc29fac336040516001600160e01b031960e084901b1681526001600160a01b03909116600482015260248101849052604401600060405180830381600087803b158015613f1057600080fd5b505af1158015613f24573d6000803e3d6000fd5b505050506001600160a01b0383166000818152601a60209081526040918290205491518481528593917f128f8187fdb209b274c54d01b145ffae6942993c055272a988ec0c86d9432dab910160405180910390a4506001600160a01b0382166000908152601a6020526040812082815542600282018190556001820192909255600301555050565b6001600160a01b0382166000818152601a602052604081208381556001808201839055426002830181905560038301556004909101805460ff191682179055601b805491820181559091527f3ad8aa4f87544323a9d1e5dd902f40c356527a7955687113db5f9a85ad579dc10180546001600160a01b03191690911790555050565b60006126b38383614515565b6001600160a01b038116600090815260018301602052604081205415156126b3565b600081815260018301602052604081205415156126b3565b60006126b383836148f6565b6000610cf5825490565b600380546001600160a01b038381166001600160a01b0319831681179093556040519116919082907f8be0079c531659141344cd1fd0a4f28419497f9722a3daafe3b4186f6b6457e090600090a35050565b60006126b383836149e9565b816001600160a01b0316836001600160a01b0316141561415c5760405162461bcd60e51b815260206004820152602960248201527f455243313135353a2073657474696e6720617070726f76616c20737461747573604482015268103337b91039b2b63360b91b6064820152608401610cc9565b6001600160a01b03838116600081815260016020908152604080832094871680845294825291829020805460ff191686151590811790915591519182527f17307eab39ab6107e8899845ad3d59bd9653f200f220920489ca2b5937696c31910160405180910390a3505050565b604080517ff516aa69a56834c8ed06a1f693723fffb56050e7775a9db0066298abdb8f41d360208201526001600160a01b03808a1692820192909252606081018890526080810187905260a0810186905290841660c082015260e081018390526101008101829052600090614257906101200160405160208183030381529060405280519060200120614a13565b98975050505050505050565b60008060006142728585614a61565b91509150611bff81614ad1565b6001600160a01b0383166142e15760405162461bcd60e51b815260206004820152602360248201527f455243313135353a206275726e2066726f6d20746865207a65726f206164647260448201526265737360e81b6064820152608401610cc9565b33614310818560006142f287614564565b6142fb87614564565b604051806020016040528060008152506145af565b6000838152602081815260408083206001600160a01b03881684529091529020548281101561438d5760405162461bcd60e51b8152602060048201526024808201527f455243313135353a206275726e20616d6f756e7420657863656564732062616c604482015263616e636560e01b6064820152608401610cc9565b6000848152602081815260408083206001600160a01b03898116808652918452828520888703905582518981529384018890529092908616917fc3d58168c5ae7397731d063d5bbf3d657854427343f4c083240f7aacaa2d0f62910160405180910390a45050505050565b6001600160a01b03841661441e5760405162461bcd60e51b8152600401610cc990615bed565b3361442e818787613aa888614564565b6000848152602081815260408083206001600160a01b038a1684529091529020548381101561446f5760405162461bcd60e51b8152600401610cc990615c32565b6000858152602081815260408083206001600160a01b038b81168552925280832087850390559088168252812080548692906144ac908490615b74565b909155505060408051868152602081018690526001600160a01b03808916928a821692918616917fc3d58168c5ae7397731d063d5bbf3d657854427343f4c083240f7aacaa2d0f62910160405180910390a461450c8288888888886146c1565b50505050505050565b600081815260018301602052604081205461455c57508154600181810184556000848152602080822090930184905584548482528286019093526040902091909155610cf5565b506000610cf5565b6040805160018082528183019092526060916000919060208083019080368337019050509050828160008151811061459e5761459e615ab4565b602090810291909101015292915050565b60005b83518110156146bb5760008482815181106145cf576145cf615ab4565b6020026020010151905060008483815181106145ed576145ed615ab4565b60200260200101516145ff8884610c61565b6146099190615b74565b905061461687838361285c565b156146a8576000828152601660209081526040918290205491518381526001600160a01b03928316928592908b169184917fe5de49455cbc88f3dd9d0d5cb562cc7e6513716e573a5be2023a8b3a42a733ee910160405180910390a45060008281526015602090815260408083208490556016909152902080546001600160a01b0319166001600160a01b0389161790555b5050806146b490615a99565b90506145b2565b50613a29565b6001600160a01b0384163b15613a295760405163f23a6e6160e01b81526001600160a01b0385169063f23a6e61906147059089908990889088908890600401615ca1565b602060405180830381600087803b15801561471f57600080fd5b505af192505050801561474f575060408051601f3d908101601f1916820190925261474c91810190615ce6565b60015b6147fc5761475b615d03565b806308c379a014156147955750614770615d1e565b8061477b5750614797565b8060405162461bcd60e51b8152600401610cc99190615191565b505b60405162461bcd60e51b815260206004820152603460248201527f455243313135353a207472616e7366657220746f206e6f6e20455243313135356044820152732932b1b2b4bb32b91034b6b83632b6b2b73a32b960611b6064820152608401610cc9565b6001600160e01b0319811663f23a6e6160e01b1461450c5760405162461bcd60e51b8152600401610cc990615d9c565b6001600160a01b0384163b15613a295760405163bc197c8160e01b81526001600160a01b0385169063bc197c81906148709089908990889088908890600401615de4565b602060405180830381600087803b15801561488a57600080fd5b505af19250505080156148ba575060408051601f3d908101601f191682019092526148b791810190615ce6565b60015b6148c65761475b615d03565b6001600160e01b0319811663bc197c8160e01b1461450c5760405162461bcd60e51b8152600401610cc990615d9c565b600081815260018301602052604081205480156149df57600061491a600183615b8c565b855490915060009061492e90600190615b8c565b905081811461499357600086600001828154811061494e5761494e615ab4565b906000526020600020015490508087600001848154811061497157614971615ab4565b6000918252602080832090910192909255918252600188019052604090208390555b85548690806149a4576149a4615e36565b600190038181906000526020600020016000905590558560010160008681526020019081526020016000206000905560019350505050610cf5565b6000915050610cf5565b6000826000018281548110614a0057614a00615ab4565b9060005260206000200154905092915050565b6000610cf5614a20614c8c565b8360405161190160f01b6020820152602281018390526042810182905260009060620160405160208183030381529060405280519060200120905092915050565b600080825160411415614a985760208301516040840151606085015160001a614a8c87828585614db6565b94509450505050614aca565b825160401415614ac25760208301516040840151614ab7868383614ea3565b935093505050614aca565b506000905060025b9250929050565b6000816004811115614ae557614ae5615e4c565b1415614aee5750565b6001816004811115614b0257614b02615e4c565b1415614b505760405162461bcd60e51b815260206004820152601860248201527f45434453413a20696e76616c6964207369676e617475726500000000000000006044820152606401610cc9565b6002816004811115614b6457614b64615e4c565b1415614bb25760405162461bcd60e51b815260206004820152601f60248201527f45434453413a20696e76616c6964207369676e6174757265206c656e677468006044820152606401610cc9565b6003816004811115614bc657614bc6615e4c565b1415614c1f5760405162461bcd60e51b815260206004820152602260248201527f45434453413a20696e76616c6964207369676e6174757265202773272076616c604482015261756560f01b6064820152608401610cc9565b6004816004811115614c3357614c33615e4c565b14156138a45760405162461bcd60e51b815260206004820152602260248201527f45434453413a20696e76616c6964207369676e6174757265202776272076616c604482015261756560f01b6064820152608401610cc9565b6000306001600160a01b037f000000000000000000000000000000000000000000000000000000000000000016148015614ce557507f000000000000000000000000000000000000000000000000000000000000000046145b15614d0f57507f000000000000000000000000000000000000000000000000000000000000000090565b50604080517f00000000000000000000000000000000000000000000000000000000000000006020808301919091527f0000000000000000000000000000000000000000000000000000000000000000828401527f000000000000000000000000000000000000000000000000000000000000000060608301524660808301523060a0808401919091528351808403909101815260c0909201909252805191012090565b90565b6000807f7fffffffffffffffffffffffffffffff5d576e7357a4501ddfe92f46681b20a0831115614ded5750600090506003614e9a565b8460ff16601b14158015614e0557508460ff16601c14155b15614e165750600090506004614e9a565b6040805160008082526020820180845289905260ff881692820192909252606081018690526080810185905260019060a0016020604051602081039080840390855afa158015614e6a573d6000803e3d6000fd5b5050604051601f1901519150506001600160a01b038116614e9357600060019250925050614e9a565b9150600090505b94509492505050565b6000806001600160ff1b03831660ff84901c601b01614ec487828885614db6565b935093505050935093915050565b604051806080016040528060006001600160a01b031681526020016060815260200160608152602001614f2f6040518060a00160405280600081526020016000815260200160008152602001600081526020016000151581525090565b905290565b828054614f4090615957565b90600052602060002090601f016020900481019282614f625760008555614fa8565b82601f10614f7b57805160ff1916838001178555614fa8565b82800160010185558215614fa8579182015b82811115614fa8578251825591602001919060010190614f8d565b50614fb4929150614fb8565b5090565b5b80821115614fb45760008155600101614fb9565b80356001600160a01b0381168114614fe457600080fd5b919050565b60008060408385031215614ffc57600080fd5b61500583614fcd565b946020939093013593505050565b6001600160e01b0319811681146138a457600080fd5b60006020828403121561503b57600080fd5b81356126b381615013565b60008083601f84011261505857600080fd5b5081356001600160401b0381111561506f57600080fd5b602083019150836020828501011115614aca57600080fd5b600080600080600080600060c0888a0312156150a257600080fd5b8735965060208801359550604088013594506150c060608901614fcd565b93506080880135925060a08801356001600160401b038111156150e257600080fd5b6150ee8a828b01615046565b989b979a50959850939692959293505050565b60006020828403121561511357600080fd5b6126b382614fcd565b60006020828403121561512e57600080fd5b5035919050565b60005b83811015615150578181015183820152602001615138565b8381111561515f576000848401525b50505050565b6000815180845261517d816020860160208601615135565b601f01601f19169290920160200192915050565b6020815260006126b36020830184615165565b6000806000606084860312156151b957600080fd5b6151c284614fcd565b95602085013595506040909401359392505050565b60a08101610cf58284805182526020810151602083015260408101516040830152606081015160608301526080810151151560808301525050565b634e487b7160e01b600052604160045260246000fd5b601f8201601f191681016001600160401b038111828210171561524d5761524d615212565b6040525050565b60006001600160401b0382111561526d5761526d615212565b5060051b60200190565b600082601f83011261528857600080fd5b8135602061529582615254565b6040516152a28282615228565b83815260059390931b85018201928281019150868411156152c257600080fd5b8286015b848110156152dd57803583529183019183016152c6565b509695505050505050565b60006001600160401b0383111561530157615301615212565b604051615318601f8501601f191660200182615228565b80915083815284848401111561532d57600080fd5b83836020830137600060208583010152509392505050565b600082601f83011261535657600080fd5b6126b3838335602085016152e8565b600080600080600060a0868803121561537d57600080fd5b61538686614fcd565b945061539460208701614fcd565b935060408601356001600160401b03808211156153b057600080fd5b6153bc89838a01615277565b945060608801359150808211156153d257600080fd5b6153de89838a01615277565b935060808801359150808211156153f457600080fd5b5061540188828901615345565b9150509295509295909350565b600081518084526020808501945080840160005b8381101561543e57815187529582019590820190600101615422565b509495945050505050565b60006020808301818452808551808352604092508286019150828160051b87010184880160005b8381101561551a57888303603f19018552815180516001600160a01b0316845287810151610100898601819052906154aa8287018261540e565b91505087820151858203898701526154c2828261540e565b915050606080830151925061550681870184805182526020810151602083015260408101516040830152606081015160608301526080810151151560808301525050565b509588019593505090860190600101615470565b509098975050505050505050565b6000806040838503121561553b57600080fd5b50508035926020909101359150565b6000806040838503121561555d57600080fd5b82356001600160401b038082111561557457600080fd5b818501915085601f83011261558857600080fd5b8135602061559582615254565b6040516155a28282615228565b83815260059390931b85018201928281019150898411156155c257600080fd5b948201945b838610156155e7576155d886614fcd565b825294820194908201906155c7565b965050860135925050808211156155fd57600080fd5b5061560a85828601615277565b9150509250929050565b6020815260006126b3602083018461540e565b60008060006060848603121561563c57600080fd5b61564584614fcd565b925060208401356001600160401b0381111561566057600080fd5b61566c86828701615277565b925050604084013590509250925092565b60006020828403121561568f57600080fd5b81356001600160401b038111156156a557600080fd5b8201601f810184136156b657600080fd5b613c44848235602084016152e8565b600080604083850312156156d857600080fd5b6156e183614fcd565b915060208301356001600160401b038111156156fc57600080fd5b61560a85828601615277565b6000806040838503121561571b57600080fd5b8235915061572b60208401614fcd565b90509250929050565b6000806040838503121561574757600080fd5b61575083614fcd565b915061572b60208401614fcd565b80151581146138a457600080fd5b6000806040838503121561577f57600080fd5b61578883614fcd565b915060208301356157988161575e565b809150509250929050565b6020808252825182820181905260009190848201906040850190845b818110156157e45783516001600160a01b0316835292840192918401916001016157bf565b50909695505050505050565b60008060008060008060008060006101008a8c03121561580f57600080fd5b6158188a614fcd565b985060208a0135975060408a0135965060608a0135955061583b60808b01614fcd565b945060a08a0135935060c08a0135925060e08a01356001600160401b0381111561586457600080fd5b6158708c828d01615046565b915080935050809150509295985092959850929598565b600080600080600060a0868803121561589f57600080fd5b6158a886614fcd565b94506158b660208701614fcd565b9350604086013592506060860135915060808601356001600160401b038111156158df57600080fd5b61540188828901615345565b6020808252601f908201527f5265656e7472616e637947756172643a207265656e7472616e742063616c6c00604082015260600190565b6020808252818101527f4f776e61626c653a2063616c6c6572206973206e6f7420746865206f776e6572604082015260600190565b600181811c9082168061596b57607f821691505b6020821081141561598c57634e487b7160e01b600052602260045260246000fd5b50919050565b600081516159a4818560208601615135565b9290920192915050565b600080845481600182811c9150808316806159ca57607f831692505b60208084108214156159ea57634e487b7160e01b86526022600452602486fd5b8180156159fe5760018114615a0f57615a3c565b60ff19861689528489019650615a3c565b60008b81526020902060005b86811015615a345781548b820152908501908301615a1b565b505084890196505b505050505050615a4c8185615992565b95945050505050565b60208082526014908201527337b7363c90199031b7b637b734b2b99032bb32b960611b604082015260600190565b634e487b7160e01b600052601160045260246000fd5b6000600019821415615aad57615aad615a83565b5060010190565b634e487b7160e01b600052603260045260246000fd5b60208082526010908201526f636c616e206c6561646572206f6e6c7960801b604082015260600190565b60208082526018908201527f636f6e747261637420646f6573206e6f74206578697374730000000000000000604082015260600190565b6000816000190483118215151615615b4557615b45615a83565b500290565b634e487b7160e01b600052601260045260246000fd5b600082615b6f57615b6f615b4a565b500490565b60008219821115615b8757615b87615a83565b500190565b600082821015615b9e57615b9e615a83565b500390565b600060208284031215615bb557600080fd5b5051919050565b600060208284031215615bce57600080fd5b81516126b38161575e565b600082615be857615be8615b4a565b500690565b60208082526025908201527f455243313135353a207472616e7366657220746f20746865207a65726f206164604082015264647265737360d81b606082015260800190565b6020808252602a908201527f455243313135353a20696e73756666696369656e742062616c616e636520666f60408201526939103a3930b739b332b960b11b606082015260800190565b604081526000615c8f604083018561540e565b8281036020840152615a4c818561540e565b6001600160a01b03868116825285166020820152604081018490526060810183905260a060808201819052600090615cdb90830184615165565b979650505050505050565b600060208284031215615cf857600080fd5b81516126b381615013565b600060033d1115614db35760046000803e5060005160e01c90565b600060443d1015615d2c5790565b6040516003193d81016004833e81513d6001600160401b038160248401118184111715615d5b57505050505090565b8285019150815181811115615d735750505050505090565b843d8701016020828501011115615d8d5750505050505090565b6125b260208286010187615228565b60208082526028908201527f455243313135353a204552433131353552656365697665722072656a656374656040820152676420746f6b656e7360c01b606082015260800190565b6001600160a01b0386811682528516602082015260a060408201819052600090615e109083018661540e565b8281036060840152615e22818661540e565b905082810360808401526142578185615165565b634e487b7160e01b600052603160045260246000fd5b634e487b7160e01b600052602160045260246000fdfea26469706673582212209a59f3d65962debaeff5a1b08263f0ceef676b1acfb93b68373bc472756b872664736f6c634300080900334f776e61626c653a2063616c6c6572206973206e6f7420746865206f776e6572",
  "linkReferences": {},
  "deployedLinkReferences": {}
}