{
  "_format": "hh-sol-artifact-1",
  "contractName": "Clans",
  "sourceName": "contracts/Clans.sol",
  "abi": [
    {
      "inputs": [
        {
          "internalType": "string",
          "name": "_baseURI",
          "type": "string"
        },
        {
          "internalType": "address",
          "name": "_oxgnToken",
          "type": "address"
        },
        {
          "internalType": "address",
          "name": "_y2123Nft",
          "type": "address"
        }
      ],
      "stateMutability": "nonpayable",
      "type": "constructor"
    },
    {
      "anonymous": false,
      "inputs": [
        {
          "indexed": true,
          "internalType": "address",
          "name": "account",
          "type": "address"
        },
        {
          "indexed": true,
          "internalType": "address",
          "name": "operator",
          "type": "address"
        },
        {
          "indexed": false,
          "internalType": "bool",
          "name": "approved",
          "type": "bool"
        }
      ],
      "name": "ApprovalForAll",
      "type": "event"
    },
    {
      "anonymous": false,
      "inputs": [
        {
          "indexed": true,
          "internalType": "address",
          "name": "addr",
          "type": "address"
        },
        {
          "indexed": true,
          "internalType": "uint256",
          "name": "id",
          "type": "uint256"
        },
        {
          "indexed": false,
          "internalType": "uint256",
          "name": "amount",
          "type": "uint256"
        }
      ],
      "name": "Burned",
      "type": "event"
    },
    {
      "anonymous": false,
      "inputs": [
        {
          "indexed": true,
          "internalType": "address",
          "name": "oldLeader",
          "type": "address"
        },
        {
          "indexed": true,
          "internalType": "address",
          "name": "newLeader",
          "type": "address"
        },
        {
          "indexed": true,
          "internalType": "uint256",
          "name": "clanId",
          "type": "uint256"
        },
        {
          "indexed": false,
          "internalType": "uint256",
          "name": "clanTokens",
          "type": "uint256"
        }
      ],
      "name": "ChangeLeader",
      "type": "event"
    },
    {
      "anonymous": false,
      "inputs": [
        {
          "indexed": true,
          "internalType": "address",
          "name": "addr",
          "type": "address"
        },
        {
          "indexed": false,
          "internalType": "uint256",
          "name": "oxgnTokenClaim",
          "type": "uint256"
        },
        {
          "indexed": false,
          "internalType": "uint256",
          "name": "oxgnTokenDonate",
          "type": "uint256"
        },
        {
          "indexed": true,
          "internalType": "uint256",
          "name": "clanId",
          "type": "uint256"
        },
        {
          "indexed": false,
          "internalType": "uint256",
          "name": "clanTokenClaim",
          "type": "uint256"
        },
        {
          "indexed": true,
          "internalType": "address",
          "name": "benificiaryOfTax",
          "type": "address"
        },
        {
          "indexed": false,
          "internalType": "uint256",
          "name": "oxgnTokenTax",
          "type": "uint256"
        }
      ],
      "name": "Claim",
      "type": "event"
    },
    {
      "anonymous": false,
      "inputs": [
        {
          "indexed": true,
          "internalType": "address",
          "name": "leader",
          "type": "address"
        },
        {
          "indexed": true,
          "internalType": "uint256",
          "name": "clanId",
          "type": "uint256"
        },
        {
          "indexed": true,
          "internalType": "uint256",
          "name": "colonyId",
          "type": "uint256"
        }
      ],
      "name": "ClanCreated",
      "type": "event"
    },
    {
      "anonymous": false,
      "inputs": [
        {
          "indexed": true,
          "internalType": "address",
          "name": "addr",
          "type": "address"
        },
        {
          "indexed": true,
          "internalType": "uint256",
          "name": "id",
          "type": "uint256"
        },
        {
          "indexed": false,
          "internalType": "uint256",
          "name": "amount",
          "type": "uint256"
        },
        {
          "indexed": false,
          "internalType": "bool",
          "name": "recipientOrigin",
          "type": "bool"
        }
      ],
      "name": "Minted",
      "type": "event"
    },
    {
      "anonymous": false,
      "inputs": [
        {
          "indexed": true,
          "internalType": "address",
          "name": "previousOwner",
          "type": "address"
        },
        {
          "indexed": true,
          "internalType": "address",
          "name": "newOwner",
          "type": "address"
        }
      ],
      "name": "OwnershipTransferred",
      "type": "event"
    },
    {
      "anonymous": false,
      "inputs": [
        {
          "indexed": false,
          "internalType": "uint256",
          "name": "tokenId",
          "type": "uint256"
        },
        {
          "indexed": false,
          "internalType": "address",
          "name": "contractAddress",
          "type": "address"
        },
        {
          "indexed": false,
          "internalType": "address",
          "name": "owner",
          "type": "address"
        },
        {
          "indexed": true,
          "internalType": "uint256",
          "name": "clanId",
          "type": "uint256"
        }
      ],
      "name": "Stake",
      "type": "event"
    },
    {
      "anonymous": false,
      "inputs": [
        {
          "indexed": true,
          "internalType": "address",
          "name": "addr",
          "type": "address"
        },
        {
          "indexed": true,
          "internalType": "uint256",
          "name": "oldClanId",
          "type": "uint256"
        },
        {
          "indexed": true,
          "internalType": "uint256",
          "name": "newClanId",
          "type": "uint256"
        },
        {
          "indexed": false,
          "internalType": "uint256",
          "name": "switchClanCost",
          "type": "uint256"
        }
      ],
      "name": "SwitchClan",
      "type": "event"
    },
    {
      "anonymous": false,
      "inputs": [
        {
          "indexed": true,
          "internalType": "address",
          "name": "leader",
          "type": "address"
        },
        {
          "indexed": true,
          "internalType": "uint256",
          "name": "clanId",
          "type": "uint256"
        },
        {
          "indexed": true,
          "internalType": "uint256",
          "name": "colonyId",
          "type": "uint256"
        }
      ],
      "name": "SwitchColony",
      "type": "event"
    },
    {
      "anonymous": false,
      "inputs": [
        {
          "indexed": true,
          "internalType": "address",
          "name": "operator",
          "type": "address"
        },
        {
          "indexed": true,
          "internalType": "address",
          "name": "from",
          "type": "address"
        },
        {
          "indexed": true,
          "internalType": "address",
          "name": "to",
          "type": "address"
        },
        {
          "indexed": false,
          "internalType": "uint256[]",
          "name": "ids",
          "type": "uint256[]"
        },
        {
          "indexed": false,
          "internalType": "uint256[]",
          "name": "values",
          "type": "uint256[]"
        }
      ],
      "name": "TransferBatch",
      "type": "event"
    },
    {
      "anonymous": false,
      "inputs": [
        {
          "indexed": true,
          "internalType": "address",
          "name": "operator",
          "type": "address"
        },
        {
          "indexed": true,
          "internalType": "address",
          "name": "from",
          "type": "address"
        },
        {
          "indexed": true,
          "internalType": "address",
          "name": "to",
          "type": "address"
        },
        {
          "indexed": false,
          "internalType": "uint256",
          "name": "id",
          "type": "uint256"
        },
        {
          "indexed": false,
          "internalType": "uint256",
          "name": "value",
          "type": "uint256"
        }
      ],
      "name": "TransferSingle",
      "type": "event"
    },
    {
      "anonymous": false,
      "inputs": [
        {
          "indexed": false,
          "internalType": "string",
          "name": "value",
          "type": "string"
        },
        {
          "indexed": true,
          "internalType": "uint256",
          "name": "id",
          "type": "uint256"
        }
      ],
      "name": "URI",
      "type": "event"
    },
    {
      "anonymous": false,
      "inputs": [
        {
          "indexed": false,
          "internalType": "uint256",
          "name": "tokenId",
          "type": "uint256"
        },
        {
          "indexed": false,
          "internalType": "address",
          "name": "contractAddress",
          "type": "address"
        },
        {
          "indexed": false,
          "internalType": "address",
          "name": "owner",
          "type": "address"
        }
      ],
      "name": "Unstake",
      "type": "event"
    },
    {
      "inputs": [
        {
          "internalType": "address",
          "name": "accountAddress",
          "type": "address"
        }
      ],
      "name": "accountNonce",
      "outputs": [
        {
          "internalType": "uint256",
          "name": "",
          "type": "uint256"
        }
      ],
      "stateMutability": "view",
      "type": "function"
    },
    {
      "inputs": [
        {
          "internalType": "address",
          "name": "",
          "type": "address"
        }
      ],
      "name": "accountToLastClaim",
      "outputs": [
        {
          "internalType": "uint256",
          "name": "oxgnTokenClaim",
          "type": "uint256"
        },
        {
          "internalType": "uint256",
          "name": "oxgnTokenDonate",
          "type": "uint256"
        },
        {
          "internalType": "uint256",
          "name": "clanId",
          "type": "uint256"
        },
        {
          "internalType": "uint256",
          "name": "clanTokenClaim",
          "type": "uint256"
        },
        {
          "internalType": "address",
          "name": "benificiaryOfTax",
          "type": "address"
        },
        {
          "internalType": "uint256",
          "name": "oxgnTokenTax",
          "type": "uint256"
        },
        {
          "internalType": "uint256",
          "name": "nonce",
          "type": "uint256"
        },
        {
          "internalType": "uint256",
          "name": "blocktime",
          "type": "uint256"
        }
      ],
      "stateMutability": "view",
      "type": "function"
    },
    {
      "inputs": [
        {
          "internalType": "address",
          "name": "addr",
          "type": "address"
        }
      ],
      "name": "addAdmin",
      "outputs": [],
      "stateMutability": "nonpayable",
      "type": "function"
    },
    {
      "inputs": [
        {
          "internalType": "address",
          "name": "contractAddress",
          "type": "address"
        }
      ],
      "name": "addContract",
      "outputs": [],
      "stateMutability": "nonpayable",
      "type": "function"
    },
    {
      "inputs": [
        {
          "internalType": "address",
          "name": "account",
          "type": "address"
        },
        {
          "internalType": "uint256",
          "name": "id",
          "type": "uint256"
        }
      ],
      "name": "balanceOf",
      "outputs": [
        {
          "internalType": "uint256",
          "name": "",
          "type": "uint256"
        }
      ],
      "stateMutability": "view",
      "type": "function"
    },
    {
      "inputs": [
        {
          "internalType": "address",
          "name": "owner",
          "type": "address"
        }
      ],
      "name": "balanceOf",
      "outputs": [
        {
          "internalType": "uint256",
          "name": "",
          "type": "uint256"
        }
      ],
      "stateMutability": "view",
      "type": "function"
    },
    {
      "inputs": [
        {
          "internalType": "address[]",
          "name": "accounts",
          "type": "address[]"
        },
        {
          "internalType": "uint256[]",
          "name": "ids",
          "type": "uint256[]"
        }
      ],
      "name": "balanceOfBatch",
      "outputs": [
        {
          "internalType": "uint256[]",
          "name": "",
          "type": "uint256[]"
        }
      ],
      "stateMutability": "view",
      "type": "function"
    },
    {
      "inputs": [
        {
          "internalType": "uint256",
          "name": "id",
          "type": "uint256"
        },
        {
          "internalType": "uint256",
          "name": "amount",
          "type": "uint256"
        }
      ],
      "name": "burn",
      "outputs": [],
      "stateMutability": "nonpayable",
      "type": "function"
    },
    {
      "inputs": [],
      "name": "changeLeaderPercentage",
      "outputs": [
        {
          "internalType": "uint256",
          "name": "",
          "type": "uint256"
        }
      ],
      "stateMutability": "view",
      "type": "function"
    },
    {
      "inputs": [
        {
          "internalType": "uint256",
          "name": "oxgnTokenClaim",
          "type": "uint256"
        },
        {
          "internalType": "uint256",
          "name": "oxgnTokenDonate",
          "type": "uint256"
        },
        {
          "internalType": "uint256",
          "name": "clanTokenClaim",
          "type": "uint256"
        },
        {
          "internalType": "address",
          "name": "benificiaryOfTax",
          "type": "address"
        },
        {
          "internalType": "uint256",
          "name": "oxgnTokenTax",
          "type": "uint256"
        },
        {
          "internalType": "bytes",
          "name": "signature",
          "type": "bytes"
        }
      ],
      "name": "claim",
      "outputs": [],
      "stateMutability": "nonpayable",
      "type": "function"
    },
    {
      "inputs": [
        {
          "internalType": "address",
          "name": "contractAddress",
          "type": "address"
        },
        {
          "internalType": "address",
          "name": "owner",
          "type": "address"
        }
      ],
      "name": "claimableOfOwner",
      "outputs": [
        {
          "internalType": "uint256[]",
          "name": "stakedTimestamps",
          "type": "uint256[]"
        },
        {
          "internalType": "uint256[]",
          "name": "claimableTimestamps",
          "type": "uint256[]"
        }
      ],
      "stateMutability": "view",
      "type": "function"
    },
    {
      "inputs": [],
      "name": "clanIdTracker",
      "outputs": [
        {
          "internalType": "uint256",
          "name": "_value",
          "type": "uint256"
        }
      ],
      "stateMutability": "view",
      "type": "function"
    },
    {
      "inputs": [
        {
          "internalType": "address",
          "name": "",
          "type": "address"
        }
      ],
      "name": "clanStructs",
      "outputs": [
        {
          "internalType": "uint256",
          "name": "clanId",
          "type": "uint256"
        },
        {
          "internalType": "uint256",
          "name": "updateClanTimestamp",
          "type": "uint256"
        },
        {
          "internalType": "bool",
          "name": "isEntity",
          "type": "bool"
        }
      ],
      "stateMutability": "view",
      "type": "function"
    },
    {
      "inputs": [
        {
          "internalType": "uint256",
          "name": "",
          "type": "uint256"
        }
      ],
      "name": "clanToColony",
      "outputs": [
        {
          "internalType": "uint256",
          "name": "",
          "type": "uint256"
        }
      ],
      "stateMutability": "view",
      "type": "function"
    },
    {
      "inputs": [
        {
          "internalType": "uint256",
          "name": "",
          "type": "uint256"
        }
      ],
      "name": "clanToHighestOwnedAccount",
      "outputs": [
        {
          "internalType": "address",
          "name": "",
          "type": "address"
        }
      ],
      "stateMutability": "view",
      "type": "function"
    },
    {
      "inputs": [
        {
          "internalType": "uint256",
          "name": "",
          "type": "uint256"
        }
      ],
      "name": "clanToHighestOwnedCount",
      "outputs": [
        {
          "internalType": "uint256",
          "name": "",
          "type": "uint256"
        }
      ],
      "stateMutability": "view",
      "type": "function"
    },
    {
      "inputs": [
        {
          "internalType": "address",
          "name": "",
          "type": "address"
        }
      ],
      "name": "contracts",
      "outputs": [
        {
          "internalType": "bool",
          "name": "active",
          "type": "bool"
        },
        {
          "internalType": "contract IERC721",
          "name": "instance",
          "type": "address"
        }
      ],
      "stateMutability": "view",
      "type": "function"
    },
    {
      "inputs": [
        {
          "internalType": "uint256",
          "name": "colonyId",
          "type": "uint256"
        }
      ],
      "name": "createClan",
      "outputs": [],
      "stateMutability": "nonpayable",
      "type": "function"
    },
    {
      "inputs": [],
      "name": "createClanCostMultiplier",
      "outputs": [
        {
          "internalType": "uint256",
          "name": "",
          "type": "uint256"
        }
      ],
      "stateMutability": "view",
      "type": "function"
    },
    {
      "inputs": [],
      "name": "creatorInitialClanTokens",
      "outputs": [
        {
          "internalType": "uint256",
          "name": "",
          "type": "uint256"
        }
      ],
      "stateMutability": "view",
      "type": "function"
    },
    {
      "inputs": [
        {
          "internalType": "uint256",
          "name": "",
          "type": "uint256"
        }
      ],
      "name": "entityList",
      "outputs": [
        {
          "internalType": "address",
          "name": "",
          "type": "address"
        }
      ],
      "stateMutability": "view",
      "type": "function"
    },
    {
      "inputs": [],
      "name": "featureFlagCreateClan",
      "outputs": [
        {
          "internalType": "bool",
          "name": "",
          "type": "bool"
        }
      ],
      "stateMutability": "view",
      "type": "function"
    },
    {
      "inputs": [],
      "name": "featureFlagSwitchColony",
      "outputs": [
        {
          "internalType": "bool",
          "name": "",
          "type": "bool"
        }
      ],
      "stateMutability": "view",
      "type": "function"
    },
    {
      "inputs": [
        {
          "internalType": "uint256",
          "name": "clanId",
          "type": "uint256"
        }
      ],
      "name": "getAccountsInClan",
      "outputs": [
        {
          "internalType": "address[]",
          "name": "",
          "type": "address[]"
        }
      ],
      "stateMutability": "view",
      "type": "function"
    },
    {
      "inputs": [
        {
          "internalType": "uint256",
          "name": "clanId",
          "type": "uint256"
        }
      ],
      "name": "getChangeClanLeaderThreshold",
      "outputs": [
        {
          "internalType": "uint256",
          "name": "amount",
          "type": "uint256"
        }
      ],
      "stateMutability": "view",
      "type": "function"
    },
    {
      "inputs": [
        {
          "internalType": "uint256",
          "name": "colonyId",
          "type": "uint256"
        }
      ],
      "name": "getClanCountInColony",
      "outputs": [
        {
          "internalType": "uint256",
          "name": "clans",
          "type": "uint256"
        }
      ],
      "stateMutability": "view",
      "type": "function"
    },
    {
      "inputs": [
        {
          "internalType": "uint256",
          "name": "clanId",
          "type": "uint256"
        }
      ],
      "name": "getClanRecords",
      "outputs": [
        {
          "internalType": "address[]",
          "name": "entity",
          "type": "address[]"
        },
        {
          "internalType": "uint256[]",
          "name": "updateClanTimestamp",
          "type": "uint256[]"
        }
      ],
      "stateMutability": "view",
      "type": "function"
    },
    {
      "inputs": [
        {
          "internalType": "uint256",
          "name": "colonyId",
          "type": "uint256"
        }
      ],
      "name": "getClansInColony",
      "outputs": [
        {
          "internalType": "uint256[]",
          "name": "",
          "type": "uint256[]"
        }
      ],
      "stateMutability": "view",
      "type": "function"
    },
    {
      "inputs": [],
      "name": "getCreateClanCost",
      "outputs": [
        {
          "internalType": "uint256",
          "name": "amount",
          "type": "uint256"
        }
      ],
      "stateMutability": "view",
      "type": "function"
    },
    {
      "inputs": [
        {
          "internalType": "uint256",
          "name": "clanId",
          "type": "uint256"
        }
      ],
      "name": "getEntityClanCount",
      "outputs": [
        {
          "internalType": "uint256",
          "name": "entityCount",
          "type": "uint256"
        }
      ],
      "stateMutability": "view",
      "type": "function"
    },
    {
      "inputs": [],
      "name": "getEntityCount",
      "outputs": [
        {
          "internalType": "uint256",
          "name": "entityCount",
          "type": "uint256"
        }
      ],
      "stateMutability": "view",
      "type": "function"
    },
    {
      "inputs": [
        {
          "internalType": "uint256",
          "name": "clanId",
          "type": "uint256"
        }
      ],
      "name": "getSwitchClanCost",
      "outputs": [
        {
          "internalType": "uint256",
          "name": "amount",
          "type": "uint256"
        }
      ],
      "stateMutability": "view",
      "type": "function"
    },
    {
      "inputs": [
        {
          "internalType": "address",
          "name": "account",
          "type": "address"
        },
        {
          "internalType": "address",
          "name": "operator",
          "type": "address"
        }
      ],
      "name": "isApprovedForAll",
      "outputs": [
        {
          "internalType": "bool",
          "name": "",
          "type": "bool"
        }
      ],
      "stateMutability": "view",
      "type": "function"
    },
    {
      "inputs": [
        {
          "internalType": "address",
          "name": "entityAddress",
          "type": "address"
        }
      ],
      "name": "isClanLeader",
      "outputs": [
        {
          "internalType": "bool",
          "name": "",
          "type": "bool"
        }
      ],
      "stateMutability": "view",
      "type": "function"
    },
    {
      "inputs": [
        {
          "internalType": "address",
          "name": "entityAddress",
          "type": "address"
        }
      ],
      "name": "isEntity",
      "outputs": [
        {
          "internalType": "bool",
          "name": "isIndeed",
          "type": "bool"
        }
      ],
      "stateMutability": "view",
      "type": "function"
    },
    {
      "inputs": [],
      "name": "minClanInColony",
      "outputs": [
        {
          "internalType": "uint256",
          "name": "",
          "type": "uint256"
        }
      ],
      "stateMutability": "view",
      "type": "function"
    },
    {
      "inputs": [
        {
          "internalType": "address",
          "name": "recipient",
          "type": "address"
        },
        {
          "internalType": "uint256",
          "name": "id",
          "type": "uint256"
        },
        {
          "internalType": "uint256",
          "name": "amount",
          "type": "uint256"
        }
      ],
      "name": "mint",
      "outputs": [],
      "stateMutability": "nonpayable",
      "type": "function"
    },
    {
      "inputs": [],
      "name": "owner",
      "outputs": [
        {
          "internalType": "address",
          "name": "",
          "type": "address"
        }
      ],
      "stateMutability": "view",
      "type": "function"
    },
    {
      "inputs": [
        {
          "internalType": "uint256",
          "name": "tokenId",
          "type": "uint256"
        }
      ],
      "name": "ownerOf",
      "outputs": [
        {
          "internalType": "address",
          "name": "",
          "type": "address"
        }
      ],
      "stateMutability": "view",
      "type": "function"
    },
    {
      "inputs": [],
      "name": "oxgnToken",
      "outputs": [
        {
          "internalType": "contract IOxygen",
          "name": "",
          "type": "address"
        }
      ],
      "stateMutability": "view",
      "type": "function"
    },
    {
      "inputs": [
        {
          "internalType": "address",
          "name": "account",
          "type": "address"
        },
        {
          "internalType": "uint256",
          "name": "oxgnTokenClaim",
          "type": "uint256"
        },
        {
          "internalType": "uint256",
          "name": "oxgnTokenDonate",
          "type": "uint256"
        },
        {
          "internalType": "uint256",
          "name": "clanTokenClaim",
          "type": "uint256"
        },
        {
          "internalType": "address",
          "name": "benificiaryOfTax",
          "type": "address"
        },
        {
          "internalType": "uint256",
          "name": "oxgnTokenTax",
          "type": "uint256"
        },
        {
          "internalType": "uint256",
          "name": "nonce",
          "type": "uint256"
        },
        {
          "internalType": "bytes",
          "name": "signature",
          "type": "bytes"
        }
      ],
      "name": "recoverAddress",
      "outputs": [
        {
          "internalType": "address",
          "name": "",
          "type": "address"
        }
      ],
      "stateMutability": "view",
      "type": "function"
    },
    {
      "inputs": [
        {
          "internalType": "address",
          "name": "addr",
          "type": "address"
        }
      ],
      "name": "removeAdmin",
      "outputs": [],
      "stateMutability": "nonpayable",
      "type": "function"
    },
    {
      "inputs": [],
      "name": "renounceOwnership",
      "outputs": [],
      "stateMutability": "nonpayable",
      "type": "function"
    },
    {
      "inputs": [
        {
          "internalType": "address",
          "name": "from",
          "type": "address"
        },
        {
          "internalType": "address",
          "name": "to",
          "type": "address"
        },
        {
          "internalType": "uint256[]",
          "name": "ids",
          "type": "uint256[]"
        },
        {
          "internalType": "uint256[]",
          "name": "amounts",
          "type": "uint256[]"
        },
        {
          "internalType": "bytes",
          "name": "data",
          "type": "bytes"
        }
      ],
      "name": "safeBatchTransferFrom",
      "outputs": [],
      "stateMutability": "nonpayable",
      "type": "function"
    },
    {
      "inputs": [
        {
          "internalType": "address",
          "name": "from",
          "type": "address"
        },
        {
          "internalType": "address",
          "name": "to",
          "type": "address"
        },
        {
          "internalType": "uint256",
          "name": "id",
          "type": "uint256"
        },
        {
          "internalType": "uint256",
          "name": "amount",
          "type": "uint256"
        },
        {
          "internalType": "bytes",
          "name": "data",
          "type": "bytes"
        }
      ],
      "name": "safeTransferFrom",
      "outputs": [],
      "stateMutability": "nonpayable",
      "type": "function"
    },
    {
      "inputs": [
        {
          "internalType": "address",
          "name": "operator",
          "type": "address"
        },
        {
          "internalType": "bool",
          "name": "approved",
          "type": "bool"
        }
      ],
      "name": "setApprovalForAll",
      "outputs": [],
      "stateMutability": "nonpayable",
      "type": "function"
    },
    {
      "inputs": [
        {
          "internalType": "string",
          "name": "newBaseURI",
          "type": "string"
        }
      ],
      "name": "setBaseURI",
      "outputs": [],
      "stateMutability": "nonpayable",
      "type": "function"
    },
    {
      "inputs": [
        {
          "internalType": "uint256",
          "name": "newVal",
          "type": "uint256"
        }
      ],
      "name": "setChangeLeaderPercentage",
      "outputs": [],
      "stateMutability": "nonpayable",
      "type": "function"
    },
    {
      "inputs": [
        {
          "internalType": "uint256",
          "name": "newVal",
          "type": "uint256"
        }
      ],
      "name": "setCreateClanCostMultiplier",
      "outputs": [],
      "stateMutability": "nonpayable",
      "type": "function"
    },
    {
      "inputs": [
        {
          "internalType": "uint256",
          "name": "newVal",
          "type": "uint256"
        }
      ],
      "name": "setCreatorInitialClanTokens",
      "outputs": [],
      "stateMutability": "nonpayable",
      "type": "function"
    },
    {
      "inputs": [
        {
          "internalType": "uint256",
          "name": "newVal",
          "type": "uint256"
        }
      ],
      "name": "setMinClanInColony",
      "outputs": [],
      "stateMutability": "nonpayable",
      "type": "function"
    },
    {
      "inputs": [
        {
          "internalType": "address",
          "name": "signerAddress",
          "type": "address"
        }
      ],
      "name": "setSignerAddress",
      "outputs": [],
      "stateMutability": "nonpayable",
      "type": "function"
    },
    {
      "inputs": [
        {
          "internalType": "uint256",
          "name": "newVal",
          "type": "uint256"
        }
      ],
      "name": "setSwitchClanCostBase",
      "outputs": [],
      "stateMutability": "nonpayable",
      "type": "function"
    },
    {
      "inputs": [
        {
          "internalType": "uint256",
          "name": "newVal",
          "type": "uint256"
        }
      ],
      "name": "setSwitchClanCostMultiplier",
      "outputs": [],
      "stateMutability": "nonpayable",
      "type": "function"
    },
    {
      "inputs": [
        {
          "internalType": "uint256",
          "name": "newVal",
          "type": "uint256"
        }
      ],
      "name": "setSwitchColonyCost",
      "outputs": [],
      "stateMutability": "nonpayable",
      "type": "function"
    },
    {
      "inputs": [
        {
          "internalType": "address",
          "name": "_oxgnToken",
          "type": "address"
        }
      ],
      "name": "setTokenContract",
      "outputs": [],
      "stateMutability": "nonpayable",
      "type": "function"
    },
    {
      "inputs": [
        {
          "internalType": "address",
          "name": "member",
          "type": "address"
        },
        {
          "internalType": "uint256",
          "name": "clanId",
          "type": "uint256"
        },
        {
          "internalType": "uint256",
          "name": "amount",
          "type": "uint256"
        }
      ],
      "name": "shouldChangeLeader",
      "outputs": [
        {
          "internalType": "bool",
          "name": "",
          "type": "bool"
        }
      ],
      "stateMutability": "view",
      "type": "function"
    },
    {
      "inputs": [
        {
          "internalType": "address",
          "name": "contractAddress",
          "type": "address"
        },
        {
          "internalType": "uint256[]",
          "name": "tokenIds",
          "type": "uint256[]"
        },
        {
          "internalType": "uint256",
          "name": "clanId",
          "type": "uint256"
        }
      ],
      "name": "stake",
      "outputs": [],
      "stateMutability": "nonpayable",
      "type": "function"
    },
    {
      "inputs": [
        {
          "internalType": "address",
          "name": "contractAddress",
          "type": "address"
        },
        {
          "internalType": "uint256",
          "name": "tokenId",
          "type": "uint256"
        }
      ],
      "name": "stakedTokenTimestamp",
      "outputs": [
        {
          "internalType": "uint256",
          "name": "",
          "type": "uint256"
        }
      ],
      "stateMutability": "view",
      "type": "function"
    },
    {
      "inputs": [
        {
          "internalType": "address",
          "name": "contractAddress",
          "type": "address"
        },
        {
          "internalType": "address",
          "name": "owner",
          "type": "address"
        }
      ],
      "name": "stakedTokensOfOwner",
      "outputs": [
        {
          "internalType": "uint256[]",
          "name": "",
          "type": "uint256[]"
        }
      ],
      "stateMutability": "view",
      "type": "function"
    },
    {
      "inputs": [
        {
          "internalType": "bytes4",
          "name": "interfaceId",
          "type": "bytes4"
        }
      ],
      "name": "supportsInterface",
      "outputs": [
        {
          "internalType": "bool",
          "name": "",
          "type": "bool"
        }
      ],
      "stateMutability": "view",
      "type": "function"
    },
    {
      "inputs": [],
      "name": "switchClanCostBase",
      "outputs": [
        {
          "internalType": "uint256",
          "name": "",
          "type": "uint256"
        }
      ],
      "stateMutability": "view",
      "type": "function"
    },
    {
      "inputs": [],
      "name": "switchClanCostMultiplier",
      "outputs": [
        {
          "internalType": "uint256",
          "name": "",
          "type": "uint256"
        }
      ],
      "stateMutability": "view",
      "type": "function"
    },
    {
      "inputs": [
        {
          "internalType": "uint256",
          "name": "clanId",
          "type": "uint256"
        },
        {
          "internalType": "uint256",
          "name": "colonyId",
          "type": "uint256"
        }
      ],
      "name": "switchColony",
      "outputs": [],
      "stateMutability": "nonpayable",
      "type": "function"
    },
    {
      "inputs": [],
      "name": "switchColonyCost",
      "outputs": [
        {
          "internalType": "uint256",
          "name": "",
          "type": "uint256"
        }
      ],
      "stateMutability": "view",
      "type": "function"
    },
    {
      "inputs": [],
      "name": "toggleFeatureFlagCreateClan",
      "outputs": [],
      "stateMutability": "nonpayable",
      "type": "function"
    },
    {
      "inputs": [],
      "name": "toggleFeatureFlagSwitchColony",
      "outputs": [],
      "stateMutability": "nonpayable",
      "type": "function"
    },
    {
      "inputs": [
        {
          "internalType": "address",
          "name": "newOwner",
          "type": "address"
        }
      ],
      "name": "transferOwnership",
      "outputs": [],
      "stateMutability": "nonpayable",
      "type": "function"
    },
    {
      "inputs": [
        {
          "internalType": "address",
          "name": "contractAddress",
          "type": "address"
        },
        {
          "internalType": "uint256[]",
          "name": "tokenIds",
          "type": "uint256[]"
        }
      ],
      "name": "unstake",
      "outputs": [],
      "stateMutability": "nonpayable",
      "type": "function"
    },
    {
      "inputs": [
        {
          "internalType": "address",
          "name": "contractAddress",
          "type": "address"
        },
        {
          "internalType": "bool",
          "name": "active",
          "type": "bool"
        }
      ],
      "name": "updateContract",
      "outputs": [],
      "stateMutability": "nonpayable",
      "type": "function"
    },
    {
      "inputs": [
        {
          "internalType": "uint256",
          "name": "clanId",
          "type": "uint256"
        }
      ],
      "name": "uri",
      "outputs": [
        {
          "internalType": "string",
          "name": "",
          "type": "string"
        }
      ],
      "stateMutability": "view",
      "type": "function"
    },
    {
      "inputs": [],
      "name": "withdrawForDonation",
      "outputs": [],
      "stateMutability": "nonpayable",
      "type": "function"
    },
    {
      "inputs": [],
      "name": "y2123Nft",
      "outputs": [
        {
          "internalType": "address",
          "name": "",
          "type": "address"
        }
      ],
      "stateMutability": "view",
      "type": "function"
    }
  ],
  "bytecode": "0x6101406040526007805461ffff191660019081179091556064600855600a600981905568056bc75e2d63100000905569021e19e0c9bab2400000600b55678ac7230489e80000600c55662386f26fc10000600d55600e553480156200006357600080fd5b506040516200672f3803806200672f833981016040819052620000869162000f9f565b60405180604001604052806005815260200164793231323360d81b815250604051806040016040528060038152602001620312e360ec1b81525084620000d281620001ed60201b60201c565b50815160208084019190912082519183019190912060e08290526101008190524660a0527f8b73c3c69bb8fe3d512ecc4cf759cc79239f7b179b0ffacaa9a75d522b39400f6200012481848462000206565b6080523060c0526101205250620001479250620001419150503390565b62000250565b600160045582516200016190600590602086019062000e64565b506200016d33620002a2565b62000178826200035d565b6200018381620003ca565b600f80546001600160a01b0319166001600160a01b038316179055620001b6600662000467602090811b6200314a17901c565b620001c2600162000470565b620001ce600262000470565b620001da600362000470565b50506007805460ff1916905550620012b0565b80516200020290600290602084019062000e64565b5050565b6040805160208101859052908101839052606081018290524660808201523060a082015260009060c0016040516020818303038152906040528051906020012090505b9392505050565b600380546001600160a01b038381166001600160a01b0319831681179093556040519116919082907f8be0079c531659141344cd1fd0a4f28419497f9722a3daafe3b4186f6b6457e090600090a35050565b6003546001600160a01b03163314620002f15760405162461bcd60e51b815260206004820181905260248201526000805160206200670f83398151915260448201526064015b60405180910390fd5b6001600160a01b038116620003395760405162461bcd60e51b815260206004820152600d60248201526c656d707479206164647265737360981b6044820152606401620002e8565b6001600160a01b03166000908152601160205260409020805460ff19166001179055565b6003546001600160a01b03163314620003a85760405162461bcd60e51b815260206004820181905260248201526000805160206200670f8339815191526044820152606401620002e8565b601080546001600160a01b0319166001600160a01b0392909216919091179055565b6003546001600160a01b03163314620004155760405162461bcd60e51b815260206004820181905260248201526000805160206200670f8339815191526044820152606401620002e8565b6001600160a01b0381166000818152601c6020908152604090912080546101009093026001600160a81b0319909316929092176001179091556200020290601e9083906200315362000797821b17901c565b80546001019055565b60026004541415620004c55760405162461bcd60e51b815260206004820152601f60248201527f5265656e7472616e637947756172643a207265656e7472616e742063616c6c006044820152606401620002e8565b600260045560075460ff166200051e5760405162461bcd60e51b815260206004820152601360248201527f66656174757265206e6f7420656e61626c6564000000000000000000000000006044820152606401620002e8565b6000811180156200052f5750600481105b6200057d5760405162461bcd60e51b815260206004820152601460248201527f6f6e6c79203320636f6c6f6e69657320657665720000000000000000000000006044820152606401620002e8565b6200058833620007b7565b15620005e15760405162461bcd60e51b815260206004820152602160248201527f636c616e206c65616465722063616e277420637265617465206e657720636c616044820152603760f91b6064820152608401620002e8565b3360009081526011602052604090205460ff16620006dd573360009081526017602052604090206002015460ff16620006515760405162461bcd60e51b815260206004820152601160248201527036bab9ba1031329034b710309031b630b760791b6044820152606401620002e8565b60006200065d62000813565b90508015620006db576010546001600160a01b0316639dc29fac336040516001600160e01b031960e084901b1681526001600160a01b03909116600482015260248101849052604401600060405180830381600087803b158015620006c157600080fd5b505af1158015620006d6573d6000803e3d6000fd5b505050505b505b6000620006f660066200084060201b620031681760201c565b90508160146000838152602001908152602001600020819055506200072760066200046760201b6200314a1760201c565b6040518290829033907f098df9d435f5abb718c2804ce7d7b6550ff16ebbabc96ba0da01d4860e2c4b6590600090a43360008181526017602090815260408083208581554260019091015560085481519283019091529181526200078e9291849162000844565b50506001600455565b6000620007ae836001600160a01b03841662000967565b90505b92915050565b6001600160a01b03811660009081526017602052604081206002015460ff16156200080b57506001600160a01b03908116600081815260176020908152604080832054835260139091529020549091161490565b506000919050565b6000600a546200082f60066200084060201b620031681760201c565b6200083b91906200107d565b905090565b5490565b6001600160a01b038416620008a65760405162461bcd60e51b815260206004820152602160248201527f455243313135353a206d696e7420746f20746865207a65726f206164647265736044820152607360f81b6064820152608401620002e8565b33620008cc81600087620008ba88620009b9565b620008c588620009b9565b8762000a07565b6000848152602081815260408083206001600160a01b038916845290915281208054859290620008fe9084906200109f565b909155505060408051858152602081018590526001600160a01b0380881692600092918516917fc3d58168c5ae7397731d063d5bbf3d657854427343f4c083240f7aacaa2d0f62910160405180910390a4620009608160008787878762000b4e565b5050505050565b6000818152600183016020526040812054620009b057508154600181810184556000848152602080822090930184905584548482528286019093526040902091909155620007b1565b506000620007b1565b60408051600180825281830190925260609160009190602080830190803683370190505090508281600081518110620009f657620009f6620010ba565b602090810291909101015292915050565b60005b835181101562000b2a57600084828151811062000a2b5762000a2b620010ba565b60200260200101519050600084838151811062000a4c5762000a4c620010ba565b602002602001015162000a66888462000d2460201b60201c565b62000a7291906200109f565b905062000a8187838362000db8565b1562000b14576000828152601360209081526040918290205491518381526001600160a01b03928316928592908b169184917fe5de49455cbc88f3dd9d0d5cb562cc7e6513716e573a5be2023a8b3a42a733ee910160405180910390a45060008281526012602090815260408083208490556013909152902080546001600160a01b0319166001600160a01b0389161790555b50508062000b2290620010d0565b905062000a0a565b5062000b4686868686868662000b4660201b6200316c1760201c565b505050505050565b62000b6d846001600160a01b031662000e2260201b620031741760201c565b1562000b465760405163f23a6e6160e01b81526001600160a01b0385169063f23a6e619062000ba990899089908890889088906004016200111c565b6020604051808303816000875af192505050801562000be7575060408051601f3d908101601f1916820190925262000be49181019062001163565b60015b62000ca85762000bf66200118f565b806308c379a0141562000c37575062000c0e620011ac565b8062000c1b575062000c39565b8060405162461bcd60e51b8152600401620002e891906200123b565b505b60405162461bcd60e51b815260206004820152603460248201527f455243313135353a207472616e7366657220746f206e6f6e204552433131353560448201527f526563656976657220696d706c656d656e7465720000000000000000000000006064820152608401620002e8565b6001600160e01b0319811663f23a6e6160e01b1462000d1b5760405162461bcd60e51b815260206004820152602860248201527f455243313135353a204552433131353552656365697665722072656a656374656044820152676420746f6b656e7360c01b6064820152608401620002e8565b50505050505050565b60006001600160a01b03831662000d925760405162461bcd60e51b815260206004820152602b60248201527f455243313135353a2062616c616e636520717565727920666f7220746865207a60448201526a65726f206164647265737360a81b6064820152608401620002e8565b506000908152602081815260408083206001600160a01b03949094168352929052205490565b6000828152601360205260408120546001600160a01b038581169116141562000de45750600062000249565b6001600160a01b038416600090815260176020526040902054831462000e0d5750600062000249565b62000e188362000e28565b9091119392505050565b3b151590565b60006064600954606462000e3d91906200109f565b60008481526012602052604090205462000e5891906200107d565b620007b1919062001250565b82805462000e729062001273565b90600052602060002090601f01602090048101928262000e96576000855562000ee1565b82601f1062000eb157805160ff191683800117855562000ee1565b8280016001018555821562000ee1579182015b8281111562000ee157825182559160200191906001019062000ec4565b5062000eef92915062000ef3565b5090565b5b8082111562000eef576000815560010162000ef4565b634e487b7160e01b600052604160045260246000fd5b601f8201601f191681016001600160401b038111828210171562000f485762000f4862000f0a565b6040525050565b60005b8381101562000f6c57818101518382015260200162000f52565b8381111562000f7c576000848401525b50505050565b80516001600160a01b038116811462000f9a57600080fd5b919050565b60008060006060848603121562000fb557600080fd5b83516001600160401b038082111562000fcd57600080fd5b818601915086601f83011262000fe257600080fd5b81518181111562000ff75762000ff762000f0a565b604051915062001012601f8201601f19166020018362000f20565b8082528760208285010111156200102857600080fd5b6200103b81602084016020860162000f4f565b5093506200104e90506020850162000f82565b91506200105e6040850162000f82565b90509250925092565b634e487b7160e01b600052601160045260246000fd5b60008160001904831182151516156200109a576200109a62001067565b500290565b60008219821115620010b557620010b562001067565b500190565b634e487b7160e01b600052603260045260246000fd5b6000600019821415620010e757620010e762001067565b5060010190565b600081518084526200110881602086016020860162000f4f565b601f01601f19169290920160200192915050565b6001600160a01b03868116825285166020820152604081018490526060810183905260a0608082018190526000906200115890830184620010ee565b979650505050505050565b6000602082840312156200117657600080fd5b81516001600160e01b0319811681146200024957600080fd5b600060033d1115620011a95760046000803e5060005160e01c5b90565b600060443d1015620011bb5790565b6040516003193d81016004833e81513d6001600160401b038083116024840183101715620011eb57505050505090565b8285019150815181811115620012045750505050505090565b843d87010160208285010111156200121f5750505050505090565b620012306020828601018762000f20565b509095945050505050565b602081526000620007ae6020830184620010ee565b6000826200126e57634e487b7160e01b600052601260045260246000fd5b500490565b600181811c908216806200128857607f821691505b60208210811415620012aa57634e487b7160e01b600052602260045260246000fd5b50919050565b60805160a05160c05160e051610100516101205161540f6200130060003960006144390152600061448801526000614463015260006143bc015260006143e601526000614410015261540f6000f3fe608060405234801561001057600080fd5b50600436106104325760003560e01c80637048027511610236578063a971ea061161013b578063cb1ca663116100c3578063f242432a11610087578063f242432a14610ad9578063f2fde38b14610aec578063f327a62c14610aff578063fbbbec0a14610b07578063fbe5df7414610b1a57600080fd5b8063cb1ca66314610a4d578063df79823514610a60578063e407724414610a73578063e985e9c514610a7c578063eace48cb14610ab857600080fd5b8063b94884301161010a578063b948843014610a0d578063bbcd5bbe14610a16578063bef704ff14610a29578063c004d49814610a3c578063c284f84114610a4557600080fd5b8063a971ea06146109b4578063abaf7648146109c7578063ae910f5f146109da578063b390c0ab146109fa57600080fd5b80639dd1e9d0116101be578063a47f3b701161018d578063a47f3b70146108bc578063a491445b146108cf578063a686eb5f146108ef578063a7757c9c14610902578063a7fe13db146109a157600080fd5b80639dd1e9d014610863578063a0becea01461088c578063a22cb4651461089f578063a2e3d9e3146108b257600080fd5b806371c10cae1161020557806371c10cae146107ca578063754b069f14610819578063772638741461082c57806380ee44601461083f5780638da5cb5b1461085257600080fd5b8063704802751461079457806370a08231146107a757806370fde7e0146107ba578063715018a6146107c257600080fd5b80633ddb9e851161033c5780635dbe4756116102c45780636352211e116102935780636352211e146106c057806364090615146106fc57806367a46f731461070f57806369dc9ff31461072f5780636cbc168c1461078157600080fd5b80635dbe47561461067e5780635f539d69146106915780636154ec1d146106a4578063620dee42146106b757600080fd5b806354fa7b6e1161030b57806354fa7b6e1461063a578063552c5b3c1461064d57806355c0beaa1461065a57806355f804b3146106635780635d1b45b51461067657600080fd5b80633ddb9e85146105c9578063404cbffb146105f45780634b56a707146106075780634e1273f41461061a57600080fd5b8063156e29f6116103bf5780632eb2c2d61161038e5780632eb2c2d61461055d578063369e0e091461057057806336d814ff146105835780633b091756146105a45780633b6e8919146105b657600080fd5b8063156e29f61461051b5780631785f53c1461052e57806324d16a1c1461054157806329d36a5b1461054a57600080fd5b80630e89341c116104065780630e89341c146104a8578063106cffe2146104c85780631324b10f146104db57806314887c58146104e45780631506a40c1461051357600080fd5b8062fdd58e1461043757806301ffc9a71461045d57806302d61d0f14610480578063046dc16614610495575b600080fd5b61044a6104453660046146aa565b610b2d565b6040519081526020015b60405180910390f35b61047061046b3660046146ea565b610bc7565b6040519015158152602001610454565b61049361048e366004614748565b610c17565b005b6104936104a33660046147c2565b611040565b6104bb6104b63660046147dd565b61108c565b6040516104549190614852565b61044a6104d63660046147c2565b611165565b61044a60085481565b6104706104f23660046147c2565b6001600160a01b031660009081526017602052604090206002015460ff1690565b610493611183565b610493610529366004614865565b6111c1565b61049361053c3660046147c2565b611277565b61044a600b5481565b6104936105583660046147dd565b611308565b61049361056b3660046149eb565b611337565b61044a61057e3660046147dd565b6113ce565b6105966105913660046147dd565b611446565b604051610454929190614b08565b60075461047090610100900460ff1681565b6104936105c4366004614b36565b611621565b600f546105dc906001600160a01b031681565b6040516001600160a01b039091168152602001610454565b6105dc6106023660046147dd565b611920565b6104936106153660046147dd565b61194a565b61062d610628366004614b58565b611979565b6040516104549190614c22565b610493610648366004614c35565b611aa2565b6007546104709060ff1681565b61044a600a5481565b610493610671366004614c8b565b611d5f565b60185461044a565b61049361068c366004614cd3565b611da0565b61049361069f3660046147c2565b612034565b61044a6106b23660046147dd565b61209e565b61044a600c5481565b6105dc6106ce3660046147dd565b600f546001600160a01b039081166000908152601a6020908152604080832094835293905291909120541690565b61049361070a3660046147dd565b612110565b61044a61071d3660046147dd565b60126020526000908152604090205481565b61076261073d3660046147c2565b601c6020526000908152604090205460ff81169061010090046001600160a01b031682565b6040805192151583526001600160a01b03909116602083015201610454565b61049361078f3660046147dd565b61213f565b6104936107a23660046147c2565b61216e565b61044a6107b53660046147c2565b612202565b61044a61223c565b610493612259565b6107fc6107d83660046147c2565b60176020526000908152604090208054600182015460029092015490919060ff1683565b604080519384526020840192909252151590820152606001610454565b61062d610827366004614d16565b61228f565b61047061083a3660046147c2565b612383565b6010546105dc906001600160a01b031681565b6003546001600160a01b03166105dc565b6105dc6108713660046147dd565b6013602052600090815260409020546001600160a01b031681565b61047061089a366004614865565b6123de565b6104936108ad366004614d57565b612442565b60065461044a9081565b61044a6108ca3660046147dd565b61244d565b6108e26108dd3660046147dd565b612472565b6040516104549190614d8e565b61044a6108fd3660046146aa565b61259d565b61095d6109103660046147c2565b6016602052600090815260409020805460018201546002830154600384015460048501546005860154600687015460079097015495969495939492936001600160a01b0390921692909188565b6040805198895260208901979097529587019490945260608601929092526001600160a01b0316608085015260a084015260c083015260e082015261010001610454565b6105dc6109af366004614da1565b6125f1565b6104936109c2366004614d57565b61264f565b6104936109d53660046147dd565b612719565b61044a6109e83660046147dd565b60146020526000908152604090205481565b610493610a08366004614b36565b612996565b61044a600e5481565b610493610a243660046147c2565b612a7c565b610493610a373660046147dd565b612ac8565b61044a600d5481565b610493612af7565b610493610a5b3660046147dd565b612c14565b610493610a6e3660046147dd565b612c8a565b61044a60095481565b610470610a8a366004614d16565b6001600160a01b03918216600090815260016020908152604080832093909416825291909152205460ff1690565b610acb610ac6366004614d16565b612cb9565b604051610454929190614e38565b610493610ae7366004614e4b565b612ec8565b610493610afa3660046147c2565b612f4f565b610493612fea565b61062d610b153660046147dd565b613031565b61044a610b283660046147dd565b613114565b60006001600160a01b038316610b9e5760405162461bcd60e51b815260206004820152602b60248201527f455243313135353a2062616c616e636520717565727920666f7220746865207a60448201526a65726f206164647265737360a81b60648201526084015b60405180910390fd5b506000818152602081815260408083206001600160a01b03861684529091529020545b92915050565b60006001600160e01b03198216636cdb3d1360e11b1480610bf857506001600160e01b031982166303a24d0760e21b145b80610bc157506301ffc9a760e01b6001600160e01b0319831614610bc1565b60026004541415610c3a5760405162461bcd60e51b8152600401610b9590614eaf565b600260045586610c7a5760405162461bcd60e51b815260206004820152600b60248201526a656d70747920636c61696d60a81b6044820152606401610b95565b610c93338888888888610c8c33611165565b89896125f1565b6015546001600160a01b03908116911614610ce45760405162461bcd60e51b8152602060048201526011602482015270696e76616c6964207369676e617475726560781b6044820152606401610b95565b6010546001600160a01b03166340c10f1933610d088a670de0b6b3a7640000614efc565b6040516001600160e01b031960e085901b1681526001600160a01b0390921660048301526024820152604401600060405180830381600087803b158015610d4e57600080fd5b505af1158015610d62573d6000803e3d6000fd5b50505050610d9d601d6000610d743390565b6001600160a01b03166001600160a01b0316815260200190815260200160002080546001019055565b33600081815260176020908152604091829020548251610100810184528b81529182018a9052918101829052606081018890526001600160a01b038716608082015260a08101869052909160c0820190610df690611165565b815242602091820152336000908152601682526040908190208351815591830151600183015582015160028201556060820151600382015560808201516004820180546001600160a01b0319166001600160a01b0390921691909117905560a0820151600582015560c0820151600682015560e0909101516007909101558615610efd576010546001600160a01b03166340c10f1930610e9e8a670de0b6b3a7640000614efc565b6040516001600160e01b031960e085901b1681526001600160a01b0390921660048301526024820152604401600060405180830381600087803b158015610ee457600080fd5b505af1158015610ef8573d6000803e3d6000fd5b505050505b6001600160a01b03851615801590610f155750600084115b15610f9d576010546001600160a01b03166340c10f1986610f3e87670de0b6b3a7640000614efc565b6040516001600160e01b031960e085901b1681526001600160a01b0390921660048301526024820152604401600060405180830381600087803b158015610f8457600080fd5b505af1158015610f98573d6000803e3d6000fd5b505050505b600081118015610fae575060065481105b8015610fba5750600086115b15610fda57610fda3382886040518060200160405280600081525061317a565b60408051898152602081018990528082018890526060810186905290516001600160a01b03871691839133917f43b0af35ff85236f17bb5c8ce62bd525213a6fb4694f4f2f080f2603baaa06b2919081900360800190a450506001600455505050505050565b6003546001600160a01b0316331461106a5760405162461bcd60e51b8152600401610b9590614f1b565b601580546001600160a01b0319166001600160a01b0392909216919091179055565b606060006005805461109d90614f50565b90501161113457600580546110b190614f50565b80601f01602080910402602001604051908101604052809291908181526020018280546110dd90614f50565b801561112a5780601f106110ff5761010080835404028352916020019161112a565b820191906000526020600020905b81548152906001019060200180831161110d57829003601f168201915b5050505050610bc1565b600561113f8361328a565b604051602001611150929190614fa7565b60405160208183030381529060405292915050565b6001600160a01b0381166000908152601d6020526040812054610bc1565b6003546001600160a01b031633146111ad5760405162461bcd60e51b8152600401610b9590614f1b565b6007805460ff19811660ff90911615179055565b3360009081526011602052604090205460ff1661120f5760405162461bcd60e51b815260206004820152600c60248201526b41646d696e73206f6e6c792160a01b6044820152606401610b95565b604080518281526001600160a01b0385163281146020830152849290917f69dff97591dfad68d690a0deccd16ef2aaf0b65205732bf647a9e5b129b77099910160405180910390a36112728383836040518060200160405280600081525061317a565b505050565b6003546001600160a01b031633146112a15760405162461bcd60e51b8152600401610b9590614f1b565b6001600160a01b0381166112e75760405162461bcd60e51b815260206004820152600d60248201526c656d707479206164647265737360981b6044820152606401610b95565b6001600160a01b03166000908152601160205260409020805460ff19169055565b6003546001600160a01b031633146113325760405162461bcd60e51b8152600401610b9590614f1b565b600855565b6001600160a01b03851633148061135357506113538533610a8a565b6113ba5760405162461bcd60e51b815260206004820152603260248201527f455243313135353a207472616e736665722063616c6c6572206973206e6f74206044820152711bdddb995c881b9bdc88185c1c1c9bdd995960721b6064820152608401610b95565b6113c7858585858561338f565b5050505050565b600080821180156113df5750600482105b6113fb5760405162461bcd60e51b8152600401610b9590615045565b6000805b60065481101561143f5760008181526014602052604090205484141561142d578161142981615073565b9250505b8061143781615073565b9150506113ff565b5092915050565b60608060006114548461209e565b90506000816001600160401b0381111561147057611470614898565b604051908082528060200260200182016040528015611499578160200160208202803683370190505b5090506000826001600160401b038111156114b6576114b6614898565b6040519080825280602002602001820160405280156114df578160200160208202803683370190505b5090506000805b601854811015611614578760176000601884815481106115085761150861508e565b60009182526020808320909101546001600160a01b03168352820192909252604001902054141561160257601881815481106115465761154661508e565b9060005260206000200160009054906101000a90046001600160a01b03168483815181106115765761157661508e565b60200260200101906001600160a01b031690816001600160a01b03168152505060176000601883815481106115ad576115ad61508e565b60009182526020808320909101546001600160a01b0316835282019290925260400190206001015483518490849081106115e9576115e961508e565b6020908102919091010152816115fe81615073565b9250505b8061160c81615073565b9150506114e6565b5091969095509350505050565b600260045414156116445760405162461bcd60e51b8152600401610b9590614eaf565b6002600455600754610100900460ff166116965760405162461bcd60e51b81526020600482015260136024820152721999585d1d5c99481b9bdd08195b98589b1959606a1b6044820152606401610b95565b6000811180156116a65750600481105b6116c25760405162461bcd60e51b8152600401610b9590615045565b6000821180156116d3575060065482105b61170e5760405162461bcd60e51b815260206004820152600c60248201526b34b73b30b634b21031b630b760a11b6044820152606401610b95565b6000828152601460205260409020548114156117785760405162461bcd60e51b815260206004820152602360248201527f636c616e20616c72656164792062656c6f6e677320746f207468697320636f6c6044820152626f6e7960e81b6064820152608401610b95565b60008281526014602052604081205490611791826113ce565b9050600e5481116117f45760405162461bcd60e51b815260206004820152602760248201527f636f6c6f6e79206e6565647320746f2068617665206174206c6561737420736f60448201526636b29031b630b760c91b6064820152608401610b95565b3360009081526011602052604090205460ff166118d8576000848152601360205260409020546001600160a01b031633146118645760405162461bcd60e51b815260206004820152601060248201526f636c616e206c6561646572206f6e6c7960801b6044820152606401610b95565b6010546001600160a01b0316639dc29fac33600b546040516001600160e01b031960e085901b1681526001600160a01b0390921660048301526024820152604401600060405180830381600087803b1580156118bf57600080fd5b505af11580156118d3573d6000803e3d6000fd5b505050505b6040518390859033907f11e18d222af18722d0ce2b9363cf0777a37b4de62d4bac0494bf9a9e9137138890600090a45050600091825260146020526040909120556001600455565b6018818154811061193057600080fd5b6000918252602090912001546001600160a01b0316905081565b6003546001600160a01b031633146119745760405162461bcd60e51b8152600401610b9590614f1b565b600e55565b606081518351146119de5760405162461bcd60e51b815260206004820152602960248201527f455243313135353a206163636f756e747320616e6420696473206c656e677468604482015268040dad2e6dac2e8c6d60bb1b6064820152608401610b95565b600083516001600160401b038111156119f9576119f9614898565b604051908082528060200260200182016040528015611a22578160200160208202803683370190505b50905060005b8451811015611a9a57611a6d858281518110611a4657611a4661508e565b6020026020010151858381518110611a6057611a6061508e565b6020026020010151610b2d565b828281518110611a7f57611a7f61508e565b6020908102919091010152611a9381615073565b9050611a28565b509392505050565b611aaf601d600033610d74565b60026004541415611ad25760405162461bcd60e51b8152600401610b9590614eaf565b60026004556001600160a01b0383166000908152601c60205260409020805460ff16611b405760405162461bcd60e51b815260206004820152601c60248201527f746f6b656e20636f6e7472616374206973206e6f7420616374697665000000006044820152606401610b95565b611b4933612383565b15611bac57336000908152601760205260409020548214611bac5760405162461bcd60e51b815260206004820152601f60248201527f636c616e206c65616465722063616e27742073776974636820636c616e7321006044820152606401610b95565b611bb63383613572565b60005b8351811015611d53576000848281518110611bd657611bd661508e565b60200260200101519050611be73390565b6001600160a01b038781166000908152601a60209081526040808320868452909152902080546001600160a01b0319169282169290921790915583546101009004166323b872dd336040516001600160e01b031960e084901b1681526001600160a01b03909116600482015230602482015260448101849052606401600060405180830381600087803b158015611c7d57600080fd5b505af1158015611c91573d6000803e3d6000fd5b5050506001600160a01b0387166000908152601960205260408120611cd992508391611cba3390565b6001600160a01b0316815260208101919091526040016000209061376f565b506001600160a01b0386166000818152601b6020908152604080832085845282529182902042905581518481529081019290925233828201525185917ff7373f56c201647feae85a62d3cf56286ed3a43d20c5eb7f9883d6ea690ef7c0919081900360600190a25080611d4b81615073565b915050611bb9565b50506001600455505050565b6003546001600160a01b03163314611d895760405162461bcd60e51b8152600401610b9590614f1b565b8051611d9c9060059060208401906145f5565b5050565b611dad601d600033610d74565b81611db9601e8261377b565b611dd55760405162461bcd60e51b8152600401610b95906150a4565b60026004541415611df85760405162461bcd60e51b8152600401610b9590614eaf565b60026004556001600160a01b0383166000908152601c60205260408120905b8351811015611d53576000848281518110611e3457611e3461508e565b60200260200101519050611e8f8160196000896001600160a01b03166001600160a01b031681526020019081526020016000206000611e703390565b6001600160a01b0316815260208101919091526040016000209061379d565b611ed15760405162461bcd60e51b81526020600482015260136024820152721d1bdad95b881a5cc81b9bdd081cdd185ad959606a1b6044820152606401610b95565b6001600160a01b038681166000908152601a60209081526040808320858452909152902080546001600160a01b031916905583546101009004166323b872dd30336040516001600160e01b031960e085901b1681526001600160a01b0392831660048201529116602482015260448101849052606401600060405180830381600087803b158015611f6157600080fd5b505af1158015611f75573d6000803e3d6000fd5b5050506001600160a01b0387166000908152601960205260408120611fbd92508391611f9e3390565b6001600160a01b031681526020810191909152604001600020906137b5565b506001600160a01b0386166000818152601b602090815260408083208584528252808320929092558151848152908101929092523382820152517fda7b3993b5962cc80555cf305cbd92948048874e1a76a22272bdaaff09baeb659181900360600190a1508061202c81615073565b915050611e17565b6003546001600160a01b0316331461205e5760405162461bcd60e51b8152600401610b9590614f1b565b6001600160a01b0381166000818152601c6020526040902080546101009092026001600160a81b0319909216919091176001179055611d9c601e82613153565b600080805b60185481101561143f578360176000601884815481106120c5576120c561508e565b60009182526020808320909101546001600160a01b0316835282019290925260400190205414156120fe57816120fa81615073565b9250505b8061210881615073565b9150506120a3565b6003546001600160a01b0316331461213a5760405162461bcd60e51b8152600401610b9590614f1b565b600d55565b6003546001600160a01b031633146121695760405162461bcd60e51b8152600401610b9590614f1b565b600b55565b6003546001600160a01b031633146121985760405162461bcd60e51b8152600401610b9590614f1b565b6001600160a01b0381166121de5760405162461bcd60e51b815260206004820152600d60248201526c656d707479206164647265737360981b6044820152606401610b95565b6001600160a01b03166000908152601160205260409020805460ff19166001179055565b600f546001600160a01b0390811660009081526019602090815260408083209385168352929052908120612235816137c1565b9392505050565b6000600a5461224a60065490565b6122549190614efc565b905090565b6003546001600160a01b031633146122835760405162461bcd60e51b8152600401610b9590614f1b565b61228d60006137cb565b565b60608261229d601e8261377b565b6122b95760405162461bcd60e51b8152600401610b95906150a4565b6001600160a01b0380851660009081526019602090815260408083209387168352929052908120906122ea826137c1565b6001600160401b0381111561230157612301614898565b60405190808252806020026020018201604052801561232a578160200160208202803683370190505b50905060005b612339836137c1565b8110156123795761234a838261381d565b82828151811061235c5761235c61508e565b60209081029190910101528061237181615073565b915050612330565b5095945050505050565b6001600160a01b03811660009081526017602052604081206002015460ff16156123d657506001600160a01b03908116600081815260176020908152604080832054835260139091529020549091161490565b506000919050565b6000828152601360205260408120546001600160a01b038581169116141561240857506000612235565b6001600160a01b038416600090815260176020526040902054831461242f57506000612235565b61243883613114565b9091119392505050565b611d9c338383613829565b6000600d5461245b8361209e565b6124659190614efc565b600c54610bc191906150db565b6060600061247f8361209e565b90506000816001600160401b0381111561249b5761249b614898565b6040519080825280602002602001820160405280156124c4578160200160208202803683370190505b5090506000805b601854811015612593578560176000601884815481106124ed576124ed61508e565b60009182526020808320909101546001600160a01b031683528201929092526040019020541415612581576018818154811061252b5761252b61508e565b9060005260206000200160009054906101000a90046001600160a01b031683838151811061255b5761255b61508e565b6001600160a01b03909216602092830291909101909101528161257d81615073565b9250505b8061258b81615073565b9150506124cb565b5090949350505050565b6000826125ab601e8261377b565b6125c75760405162461bcd60e51b8152600401610b95906150a4565b50506001600160a01b03919091166000908152601b60209081526040808320938352929052205490565b60006126416126058b8b8b8b8b8b8b61390a565b84848080601f0160208091040260200160405190810160405280939291908181526020018383808284376000920191909152506139a492505050565b9a9950505050505050505050565b6003546001600160a01b031633146126795760405162461bcd60e51b8152600401610b9590614f1b565b81612685601e8261377b565b6126a15760405162461bcd60e51b8152600401610b95906150a4565b6126ac601e8461377b565b6126ed5760405162461bcd60e51b815260206004820152601260248201527118dbdb9d1c9858dd081b9bdd08185919195960721b6044820152606401610b95565b506001600160a01b03919091166000908152601c60205260409020805460ff1916911515919091179055565b6002600454141561273c5760405162461bcd60e51b8152600401610b9590614eaf565b600260045560075460ff166127895760405162461bcd60e51b81526020600482015260136024820152721999585d1d5c99481b9bdd08195b98589b1959606a1b6044820152606401610b95565b6000811180156127995750600481105b6127b55760405162461bcd60e51b8152600401610b9590615045565b6127be33612383565b156128155760405162461bcd60e51b815260206004820152602160248201527f636c616e206c65616465722063616e277420637265617465206e657720636c616044820152603760f91b6064820152608401610b95565b3360009081526011602052604090205460ff166128fc57612835336104f2565b6128755760405162461bcd60e51b815260206004820152601160248201527036bab9ba1031329034b710309031b630b760791b6044820152606401610b95565b600061287f61223c565b905080156128fa576010546001600160a01b0316639dc29fac336040516001600160e01b031960e084901b1681526001600160a01b03909116600482015260248101849052604401600060405180830381600087803b1580156128e157600080fd5b505af11580156128f5573d6000803e3d6000fd5b505050505b505b600061290760065490565b60008181526014602052604090208390559050612928600680546001019055565b6040518290829033907f098df9d435f5abb718c2804ce7d7b6550ff16ebbabc96ba0da01d4860e2c4b6590600090a433600081815260176020908152604080832085815542600190910155600854815192830190915291815261298d9291849161317a565b50506001600455565b3360009081526011602052604090205460ff166129e45760405162461bcd60e51b815260206004820152600c60248201526b41646d696e73206f6e6c792160a01b6044820152606401610b95565b6129ee3283610b2d565b612a3a5760405162461bcd60e51b815260206004820152601760248201527f4f6f707320796f7520646f6e2774206f776e20746861740000000000000000006044820152606401610b95565b604051818152829032907f23ff0e75edf108e3d0392d92e13e8c8a868ef19001bd49f9e94876dc46dff87f9060200160405180910390a3611d9c3283836139c0565b6003546001600160a01b03163314612aa65760405162461bcd60e51b8152600401610b9590614f1b565b601080546001600160a01b0319166001600160a01b0392909216919091179055565b6003546001600160a01b03163314612af25760405162461bcd60e51b8152600401610b9590614f1b565b600c55565b6003546001600160a01b03163314612b215760405162461bcd60e51b8152600401610b9590614f1b565b6010546040516370a0823160e01b81523060048201526000916001600160a01b0316906370a0823190602401602060405180830381865afa158015612b6a573d6000803e3d6000fd5b505050506040513d601f19601f82011682018060405250810190612b8e91906150f3565b6010549091506001600160a01b031663a9059cbb336040516001600160e01b031960e084901b1681526001600160a01b039091166004820152602481018490526044016020604051808303816000875af1158015612bf0573d6000803e3d6000fd5b505050506040513d601f19601f82011682018060405250810190611d9c919061510c565b6003546001600160a01b03163314612c3e5760405162461bcd60e51b8152600401610b9590614f1b565b600060095411612c855760405162461bcd60e51b815260206004820152601260248201527156616c7565206c6f776572207468656e203160701b6044820152606401610b95565b600955565b6003546001600160a01b03163314612cb45760405162461bcd60e51b8152600401610b9590614f1b565b600a55565b60608083612cc8601e8261377b565b612ce45760405162461bcd60e51b8152600401610b95906150a4565b6001600160a01b038086166000908152601960209081526040808320938816835292905290812090612d15826137c1565b6001600160401b03811115612d2c57612d2c614898565b604051908082528060200260200182016040528015612d55578160200160208202803683370190505b5090506000612d63836137c1565b6001600160401b03811115612d7a57612d7a614898565b604051908082528060200260200182016040528015612da3578160200160208202803683370190505b506001600160a01b0388166000908152601660205260408120600701549192505b612dcd856137c1565b811015612eb9576000612de0868361381d565b6001600160a01b038c166000908152601b60209081526040808320848452909152902054865191925090869084908110612e1c57612e1c61508e565b602002602001018181525050848281518110612e3a57612e3a61508e565b6020026020010151831115612e6d5782848381518110612e5c57612e5c61508e565b602002602001018181525050612ea6565b848281518110612e7f57612e7f61508e565b6020026020010151848381518110612e9957612e9961508e565b6020026020010181815250505b5080612eb181615073565b915050612dc4565b50919890975095505050505050565b6001600160a01b038516331480612ee45750612ee48533610a8a565b612f425760405162461bcd60e51b815260206004820152602960248201527f455243313135353a2063616c6c6572206973206e6f74206f776e6572206e6f7260448201526808185c1c1c9bdd995960ba1b6064820152608401610b95565b6113c78585858585613b39565b6003546001600160a01b03163314612f795760405162461bcd60e51b8152600401610b9590614f1b565b6001600160a01b038116612fde5760405162461bcd60e51b815260206004820152602660248201527f4f776e61626c653a206e6577206f776e657220697320746865207a65726f206160448201526564647265737360d01b6064820152608401610b95565b612fe7816137cb565b50565b6003546001600160a01b031633146130145760405162461bcd60e51b8152600401610b9590614f1b565b6007805461ff001981166101009182900460ff1615909102179055565b60606000821180156130435750600482105b61305f5760405162461bcd60e51b8152600401610b9590615045565b600061306a836113ce565b90506000816001600160401b0381111561308657613086614898565b6040519080825280602002602001820160405280156130af578160200160208202803683370190505b5090506000805b6006548110156125935760008181526014602052604090205486141561310257808383815181106130e9576130e961508e565b6020908102919091010152816130fe81615073565b9250505b8061310c81615073565b9150506130b6565b60006064600954606461312791906150db565b6000848152601260205260409020546131409190614efc565b610bc1919061513f565b80546001019055565b6000612235836001600160a01b038416613c56565b5490565b505050505050565b3b151590565b6001600160a01b0384166131da5760405162461bcd60e51b815260206004820152602160248201527f455243313135353a206d696e7420746f20746865207a65726f206164647265736044820152607360f81b6064820152608401610b95565b336131fa816000876131eb88613ca5565b6131f488613ca5565b87613cf0565b6000848152602081815260408083206001600160a01b03891684529091528120805485929061322a9084906150db565b909155505060408051858152602081018590526001600160a01b0380881692600092918516917fc3d58168c5ae7397731d063d5bbf3d657854427343f4c083240f7aacaa2d0f62910160405180910390a46113c781600087878787613e02565b6060816132ae5750506040805180820190915260018152600360fc1b602082015290565b8160005b81156132d857806132c281615073565b91506132d19050600a8361513f565b91506132b2565b6000816001600160401b038111156132f2576132f2614898565b6040519080825280601f01601f19166020018201604052801561331c576020820181803683370190505b5090505b841561338757613331600183615153565b915061333e600a8661516a565b6133499060306150db565b60f81b81838151811061335e5761335e61508e565b60200101906001600160f81b031916908160001a905350613380600a8661513f565b9450613320565b949350505050565b81518351146133f15760405162461bcd60e51b815260206004820152602860248201527f455243313135353a2069647320616e6420616d6f756e7473206c656e677468206044820152670dad2e6dac2e8c6d60c31b6064820152608401610b95565b6001600160a01b0384166134175760405162461bcd60e51b8152600401610b959061517e565b33613426818787878787613cf0565b60005b845181101561350c5760008582815181106134465761344661508e565b6020026020010151905060008583815181106134645761346461508e565b602090810291909101810151600084815280835260408082206001600160a01b038e1683529093529190912054909150818110156134b45760405162461bcd60e51b8152600401610b95906151c3565b6000838152602081815260408083206001600160a01b038e8116855292528083208585039055908b168252812080548492906134f19084906150db565b925050819055505050508061350590615073565b9050613429565b50846001600160a01b0316866001600160a01b0316826001600160a01b03167f4a39dc06d4c0dbc64b70af90fd698a233a518aa5d07e595d983b8c0526c8f7fb878760405161355c929190614e38565b60405180910390a461316c818787878787613f5e565b600081118015613583575060065481105b6135be5760405162461bcd60e51b815260206004820152600c60248201526b34b73b30b634b21031b630b760a11b6044820152606401610b95565b6001600160a01b03821660009081526017602052604090206002015460ff16156136f8576001600160a01b0382166000908152601760205260409020548114611d9c57600061360c8261244d565b6010549091506001600160a01b0316639dc29fac336040516001600160e01b031960e084901b1681526001600160a01b03909116600482015260248101849052604401600060405180830381600087803b15801561366957600080fd5b505af115801561367d573d6000803e3d6000fd5b505050506001600160a01b0383166000818152601760209081526040918290205491518481528593917f128f8187fdb209b274c54d01b145ffae6942993c055272a988ec0c86d9432dab910160405180910390a4506001600160a01b0382166000908152601760205260409020818155426001909101555050565b6001600160a01b0382166000818152601760205260408120838155426001808301919091556002909101805460ff1916821790556018805491820181559091527fb13d2d76d1f4b7be834882e410b3e3a8afaf69f83600ae24db354391d2378d2e0180546001600160a01b03191690911790555050565b60006122358383613c56565b6001600160a01b03811660009081526001830160205260408120541515612235565b60008181526001830160205260408120541515612235565b60006122358383614019565b6000610bc1825490565b600380546001600160a01b038381166001600160a01b0319831681179093556040519116919082907f8be0079c531659141344cd1fd0a4f28419497f9722a3daafe3b4186f6b6457e090600090a35050565b6000612235838361410c565b816001600160a01b0316836001600160a01b0316141561389d5760405162461bcd60e51b815260206004820152602960248201527f455243313135353a2073657474696e6720617070726f76616c20737461747573604482015268103337b91039b2b63360b91b6064820152608401610b95565b6001600160a01b03838116600081815260016020908152604080832094871680845294825291829020805460ff191686151590811790915591519182527f17307eab39ab6107e8899845ad3d59bd9653f200f220920489ca2b5937696c31910160405180910390a3505050565b604080517ff516aa69a56834c8ed06a1f693723fffb56050e7775a9db0066298abdb8f41d360208201526001600160a01b03808a1692820192909252606081018890526080810187905260a0810186905290841660c082015260e081018390526101008101829052600090613998906101200160405160208183030381529060405280519060200120614136565b98975050505050505050565b60008060006139b38585614184565b91509150611a9a816141f4565b6001600160a01b038316613a225760405162461bcd60e51b815260206004820152602360248201527f455243313135353a206275726e2066726f6d20746865207a65726f206164647260448201526265737360e81b6064820152608401610b95565b33613a5181856000613a3387613ca5565b613a3c87613ca5565b60405180602001604052806000815250613cf0565b6000838152602081815260408083206001600160a01b038816845290915290205482811015613ace5760405162461bcd60e51b8152602060048201526024808201527f455243313135353a206275726e20616d6f756e7420657863656564732062616c604482015263616e636560e01b6064820152608401610b95565b6000848152602081815260408083206001600160a01b03898116808652918452828520888703905582518981529384018890529092908616917fc3d58168c5ae7397731d063d5bbf3d657854427343f4c083240f7aacaa2d0f62910160405180910390a45050505050565b6001600160a01b038416613b5f5760405162461bcd60e51b8152600401610b959061517e565b33613b6f8187876131eb88613ca5565b6000848152602081815260408083206001600160a01b038a16845290915290205483811015613bb05760405162461bcd60e51b8152600401610b95906151c3565b6000858152602081815260408083206001600160a01b038b8116855292528083208785039055908816825281208054869290613bed9084906150db565b909155505060408051868152602081018690526001600160a01b03808916928a821692918616917fc3d58168c5ae7397731d063d5bbf3d657854427343f4c083240f7aacaa2d0f62910160405180910390a4613c4d828888888888613e02565b50505050505050565b6000818152600183016020526040812054613c9d57508154600181810184556000848152602080822090930184905584548482528286019093526040902091909155610bc1565b506000610bc1565b60408051600180825281830190925260609160009190602080830190803683370190505090508281600081518110613cdf57613cdf61508e565b602090810291909101015292915050565b60005b8351811015613dfc576000848281518110613d1057613d1061508e565b602002602001015190506000848381518110613d2e57613d2e61508e565b6020026020010151613d408884610b2d565b613d4a91906150db565b9050613d578783836123de565b15613de9576000828152601360209081526040918290205491518381526001600160a01b03928316928592908b169184917fe5de49455cbc88f3dd9d0d5cb562cc7e6513716e573a5be2023a8b3a42a733ee910160405180910390a45060008281526012602090815260408083208490556013909152902080546001600160a01b0319166001600160a01b0389161790555b505080613df590615073565b9050613cf3565b5061316c565b6001600160a01b0384163b1561316c5760405163f23a6e6160e01b81526001600160a01b0385169063f23a6e6190613e46908990899088908890889060040161520d565b6020604051808303816000875af1925050508015613e81575060408051601f3d908101601f19168201909252613e7e91810190615252565b60015b613f2e57613e8d61526f565b806308c379a01415613ec75750613ea261528a565b80613ead5750613ec9565b8060405162461bcd60e51b8152600401610b959190614852565b505b60405162461bcd60e51b815260206004820152603460248201527f455243313135353a207472616e7366657220746f206e6f6e20455243313135356044820152732932b1b2b4bb32b91034b6b83632b6b2b73a32b960611b6064820152608401610b95565b6001600160e01b0319811663f23a6e6160e01b14613c4d5760405162461bcd60e51b8152600401610b9590615313565b6001600160a01b0384163b1561316c5760405163bc197c8160e01b81526001600160a01b0385169063bc197c8190613fa2908990899088908890889060040161535b565b6020604051808303816000875af1925050508015613fdd575060408051601f3d908101601f19168201909252613fda91810190615252565b60015b613fe957613e8d61526f565b6001600160e01b0319811663bc197c8160e01b14613c4d5760405162461bcd60e51b8152600401610b9590615313565b6000818152600183016020526040812054801561410257600061403d600183615153565b855490915060009061405190600190615153565b90508181146140b65760008660000182815481106140715761407161508e565b90600052602060002001549050808760000184815481106140945761409461508e565b6000918252602080832090910192909255918252600188019052604090208390555b85548690806140c7576140c76153ad565b600190038181906000526020600020016000905590558560010160008681526020019081526020016000206000905560019350505050610bc1565b6000915050610bc1565b60008260000182815481106141235761412361508e565b9060005260206000200154905092915050565b6000610bc16141436143af565b8360405161190160f01b6020820152602281018390526042810182905260009060620160405160208183030381529060405280519060200120905092915050565b6000808251604114156141bb5760208301516040840151606085015160001a6141af878285856144d9565b945094505050506141ed565b8251604014156141e557602083015160408401516141da8683836145c6565b9350935050506141ed565b506000905060025b9250929050565b6000816004811115614208576142086153c3565b14156142115750565b6001816004811115614225576142256153c3565b14156142735760405162461bcd60e51b815260206004820152601860248201527f45434453413a20696e76616c6964207369676e617475726500000000000000006044820152606401610b95565b6002816004811115614287576142876153c3565b14156142d55760405162461bcd60e51b815260206004820152601f60248201527f45434453413a20696e76616c6964207369676e6174757265206c656e677468006044820152606401610b95565b60038160048111156142e9576142e96153c3565b14156143425760405162461bcd60e51b815260206004820152602260248201527f45434453413a20696e76616c6964207369676e6174757265202773272076616c604482015261756560f01b6064820152608401610b95565b6004816004811115614356576143566153c3565b1415612fe75760405162461bcd60e51b815260206004820152602260248201527f45434453413a20696e76616c6964207369676e6174757265202776272076616c604482015261756560f01b6064820152608401610b95565b6000306001600160a01b037f00000000000000000000000000000000000000000000000000000000000000001614801561440857507f000000000000000000000000000000000000000000000000000000000000000046145b1561443257507f000000000000000000000000000000000000000000000000000000000000000090565b50604080517f00000000000000000000000000000000000000000000000000000000000000006020808301919091527f0000000000000000000000000000000000000000000000000000000000000000828401527f000000000000000000000000000000000000000000000000000000000000000060608301524660808301523060a0808401919091528351808403909101815260c0909201909252805191012090565b90565b6000807f7fffffffffffffffffffffffffffffff5d576e7357a4501ddfe92f46681b20a083111561451057506000905060036145bd565b8460ff16601b1415801561452857508460ff16601c14155b1561453957506000905060046145bd565b6040805160008082526020820180845289905260ff881692820192909252606081018690526080810185905260019060a0016020604051602081039080840390855afa15801561458d573d6000803e3d6000fd5b5050604051601f1901519150506001600160a01b0381166145b6576000600192509250506145bd565b9150600090505b94509492505050565b6000806001600160ff1b03831660ff84901c601b016145e7878288856144d9565b935093505050935093915050565b82805461460190614f50565b90600052602060002090601f0160209004810192826146235760008555614669565b82601f1061463c57805160ff1916838001178555614669565b82800160010185558215614669579182015b8281111561466957825182559160200191906001019061464e565b50614675929150614679565b5090565b5b80821115614675576000815560010161467a565b80356001600160a01b03811681146146a557600080fd5b919050565b600080604083850312156146bd57600080fd5b6146c68361468e565b946020939093013593505050565b6001600160e01b031981168114612fe757600080fd5b6000602082840312156146fc57600080fd5b8135612235816146d4565b60008083601f84011261471957600080fd5b5081356001600160401b0381111561473057600080fd5b6020830191508360208285010111156141ed57600080fd5b600080600080600080600060c0888a03121561476357600080fd5b8735965060208801359550604088013594506147816060890161468e565b93506080880135925060a08801356001600160401b038111156147a357600080fd5b6147af8a828b01614707565b989b979a50959850939692959293505050565b6000602082840312156147d457600080fd5b6122358261468e565b6000602082840312156147ef57600080fd5b5035919050565b60005b838110156148115781810151838201526020016147f9565b83811115614820576000848401525b50505050565b6000815180845261483e8160208601602086016147f6565b601f01601f19169290920160200192915050565b6020815260006122356020830184614826565b60008060006060848603121561487a57600080fd5b6148838461468e565b95602085013595506040909401359392505050565b634e487b7160e01b600052604160045260246000fd5b601f8201601f191681016001600160401b03811182821017156148d3576148d3614898565b6040525050565b60006001600160401b038211156148f3576148f3614898565b5060051b60200190565b600082601f83011261490e57600080fd5b8135602061491b826148da565b60405161492882826148ae565b83815260059390931b850182019282810191508684111561494857600080fd5b8286015b84811015614963578035835291830191830161494c565b509695505050505050565b60006001600160401b0383111561498757614987614898565b60405161499e601f8501601f1916602001826148ae565b8091508381528484840111156149b357600080fd5b83836020830137600060208583010152509392505050565b600082601f8301126149dc57600080fd5b6122358383356020850161496e565b600080600080600060a08688031215614a0357600080fd5b614a0c8661468e565b9450614a1a6020870161468e565b935060408601356001600160401b0380821115614a3657600080fd5b614a4289838a016148fd565b94506060880135915080821115614a5857600080fd5b614a6489838a016148fd565b93506080880135915080821115614a7a57600080fd5b50614a87888289016149cb565b9150509295509295909350565b600081518084526020808501945080840160005b83811015614acd5781516001600160a01b031687529582019590820190600101614aa8565b509495945050505050565b600081518084526020808501945080840160005b83811015614acd57815187529582019590820190600101614aec565b604081526000614b1b6040830185614a94565b8281036020840152614b2d8185614ad8565b95945050505050565b60008060408385031215614b4957600080fd5b50508035926020909101359150565b60008060408385031215614b6b57600080fd5b82356001600160401b0380821115614b8257600080fd5b818501915085601f830112614b9657600080fd5b81356020614ba3826148da565b604051614bb082826148ae565b83815260059390931b8501820192828101915089841115614bd057600080fd5b948201945b83861015614bf557614be68661468e565b82529482019490820190614bd5565b96505086013592505080821115614c0b57600080fd5b50614c18858286016148fd565b9150509250929050565b6020815260006122356020830184614ad8565b600080600060608486031215614c4a57600080fd5b614c538461468e565b925060208401356001600160401b03811115614c6e57600080fd5b614c7a868287016148fd565b925050604084013590509250925092565b600060208284031215614c9d57600080fd5b81356001600160401b03811115614cb357600080fd5b8201601f81018413614cc457600080fd5b6133878482356020840161496e565b60008060408385031215614ce657600080fd5b614cef8361468e565b915060208301356001600160401b03811115614d0a57600080fd5b614c18858286016148fd565b60008060408385031215614d2957600080fd5b614d328361468e565b9150614d406020840161468e565b90509250929050565b8015158114612fe757600080fd5b60008060408385031215614d6a57600080fd5b614d738361468e565b91506020830135614d8381614d49565b809150509250929050565b6020815260006122356020830184614a94565b60008060008060008060008060006101008a8c031215614dc057600080fd5b614dc98a61468e565b985060208a0135975060408a0135965060608a01359550614dec60808b0161468e565b945060a08a0135935060c08a0135925060e08a01356001600160401b03811115614e1557600080fd5b614e218c828d01614707565b915080935050809150509295985092959850929598565b604081526000614b1b6040830185614ad8565b600080600080600060a08688031215614e6357600080fd5b614e6c8661468e565b9450614e7a6020870161468e565b9350604086013592506060860135915060808601356001600160401b03811115614ea357600080fd5b614a87888289016149cb565b6020808252601f908201527f5265656e7472616e637947756172643a207265656e7472616e742063616c6c00604082015260600190565b634e487b7160e01b600052601160045260246000fd5b6000816000190483118215151615614f1657614f16614ee6565b500290565b6020808252818101527f4f776e61626c653a2063616c6c6572206973206e6f7420746865206f776e6572604082015260600190565b600181811c90821680614f6457607f821691505b60208210811415614f8557634e487b7160e01b600052602260045260246000fd5b50919050565b60008151614f9d8185602086016147f6565b9290920192915050565b600080845481600182811c915080831680614fc357607f831692505b6020808410821415614fe357634e487b7160e01b86526022600452602486fd5b818015614ff7576001811461500857615035565b60ff19861689528489019650615035565b60008b81526020902060005b8681101561502d5781548b820152908501908301615014565b505084890196505b505050505050614b2d8185614f8b565b60208082526014908201527337b7363c90199031b7b637b734b2b99032bb32b960611b604082015260600190565b600060001982141561508757615087614ee6565b5060010190565b634e487b7160e01b600052603260045260246000fd5b60208082526018908201527f636f6e747261637420646f6573206e6f74206578697374730000000000000000604082015260600190565b600082198211156150ee576150ee614ee6565b500190565b60006020828403121561510557600080fd5b5051919050565b60006020828403121561511e57600080fd5b815161223581614d49565b634e487b7160e01b600052601260045260246000fd5b60008261514e5761514e615129565b500490565b60008282101561516557615165614ee6565b500390565b60008261517957615179615129565b500690565b60208082526025908201527f455243313135353a207472616e7366657220746f20746865207a65726f206164604082015264647265737360d81b606082015260800190565b6020808252602a908201527f455243313135353a20696e73756666696369656e742062616c616e636520666f60408201526939103a3930b739b332b960b11b606082015260800190565b6001600160a01b03868116825285166020820152604081018490526060810183905260a06080820181905260009061524790830184614826565b979650505050505050565b60006020828403121561526457600080fd5b8151612235816146d4565b600060033d11156144d65760046000803e5060005160e01c90565b600060443d10156152985790565b6040516003193d81016004833e81513d6001600160401b0381602484011181841117156152c757505050505090565b82850191508151818111156152df5750505050505090565b843d87010160208285010111156152f95750505050505090565b615308602082860101876148ae565b509095945050505050565b60208082526028908201527f455243313135353a204552433131353552656365697665722072656a656374656040820152676420746f6b656e7360c01b606082015260800190565b6001600160a01b0386811682528516602082015260a06040820181905260009061538790830186614ad8565b82810360608401526153998186614ad8565b905082810360808401526139988185614826565b634e487b7160e01b600052603160045260246000fd5b634e487b7160e01b600052602160045260246000fdfea2646970667358221220b13e7176ffb022778877338978da3a747eeb4be0f43c40e3ade6a63d4bd191b364736f6c634300080b00334f776e61626c653a2063616c6c6572206973206e6f7420746865206f776e6572",
  "linkReferences": {},
  "deployedLinkReferences": {}
}