{
  "_format": "hh-sol-artifact-1",
  "contractName": "Land",
  "sourceName": "contracts/Land.sol",
  "abi": [
    {
      "inputs": [
        {
          "internalType": "string",
          "name": "uri",
          "type": "string"
        },
        {
          "internalType": "address",
          "name": "_oxgnToken",
          "type": "address"
        },
        {
          "internalType": "address",
          "name": "_clansAddress",
          "type": "address"
        },
        {
          "internalType": "address",
          "name": "_proxyRegistryAddress",
          "type": "address"
        }
      ],
      "stateMutability": "nonpayable",
      "type": "constructor"
    },
    {
      "inputs": [],
      "name": "ApprovalCallerNotOwnerNorApproved",
      "type": "error"
    },
    {
      "inputs": [],
      "name": "ApprovalQueryForNonexistentToken",
      "type": "error"
    },
    {
      "inputs": [],
      "name": "ApprovalToCurrentOwner",
      "type": "error"
    },
    {
      "inputs": [],
      "name": "ApproveToCaller",
      "type": "error"
    },
    {
      "inputs": [],
      "name": "BalanceQueryForZeroAddress",
      "type": "error"
    },
    {
      "inputs": [],
      "name": "MintToZeroAddress",
      "type": "error"
    },
    {
      "inputs": [],
      "name": "MintZeroQuantity",
      "type": "error"
    },
    {
      "inputs": [],
      "name": "OwnerQueryForNonexistentToken",
      "type": "error"
    },
    {
      "inputs": [],
      "name": "TransferCallerNotOwnerNorApproved",
      "type": "error"
    },
    {
      "inputs": [],
      "name": "TransferFromIncorrectOwner",
      "type": "error"
    },
    {
      "inputs": [],
      "name": "TransferToNonERC721ReceiverImplementer",
      "type": "error"
    },
    {
      "inputs": [],
      "name": "TransferToZeroAddress",
      "type": "error"
    },
    {
      "inputs": [],
      "name": "URIQueryForNonexistentToken",
      "type": "error"
    },
    {
      "anonymous": false,
      "inputs": [
        {
          "indexed": true,
          "internalType": "address",
          "name": "owner",
          "type": "address"
        },
        {
          "indexed": true,
          "internalType": "address",
          "name": "approved",
          "type": "address"
        },
        {
          "indexed": true,
          "internalType": "uint256",
          "name": "tokenId",
          "type": "uint256"
        }
      ],
      "name": "Approval",
      "type": "event"
    },
    {
      "anonymous": false,
      "inputs": [
        {
          "indexed": true,
          "internalType": "address",
          "name": "owner",
          "type": "address"
        },
        {
          "indexed": true,
          "internalType": "address",
          "name": "operator",
          "type": "address"
        },
        {
          "indexed": false,
          "internalType": "bool",
          "name": "approved",
          "type": "bool"
        }
      ],
      "name": "ApprovalForAll",
      "type": "event"
    },
    {
      "anonymous": false,
      "inputs": [
        {
          "indexed": true,
          "internalType": "address",
          "name": "previousOwner",
          "type": "address"
        },
        {
          "indexed": true,
          "internalType": "address",
          "name": "newOwner",
          "type": "address"
        }
      ],
      "name": "OwnershipTransferred",
      "type": "event"
    },
    {
      "anonymous": false,
      "inputs": [
        {
          "indexed": false,
          "internalType": "uint256",
          "name": "tokenId",
          "type": "uint256"
        },
        {
          "indexed": false,
          "internalType": "address",
          "name": "contractAddress",
          "type": "address"
        },
        {
          "indexed": false,
          "internalType": "address",
          "name": "owner",
          "type": "address"
        },
        {
          "indexed": true,
          "internalType": "uint256",
          "name": "landTokenId",
          "type": "uint256"
        }
      ],
      "name": "Stake",
      "type": "event"
    },
    {
      "anonymous": false,
      "inputs": [
        {
          "indexed": false,
          "internalType": "uint256",
          "name": "tokenId",
          "type": "uint256"
        },
        {
          "indexed": false,
          "internalType": "address",
          "name": "contractAddress",
          "type": "address"
        },
        {
          "indexed": false,
          "internalType": "address",
          "name": "owner",
          "type": "address"
        },
        {
          "indexed": true,
          "internalType": "uint256",
          "name": "landTokenId",
          "type": "uint256"
        }
      ],
      "name": "StakeInternal",
      "type": "event"
    },
    {
      "anonymous": false,
      "inputs": [
        {
          "indexed": true,
          "internalType": "address",
          "name": "from",
          "type": "address"
        },
        {
          "indexed": true,
          "internalType": "address",
          "name": "to",
          "type": "address"
        },
        {
          "indexed": true,
          "internalType": "uint256",
          "name": "tokenId",
          "type": "uint256"
        }
      ],
      "name": "Transfer",
      "type": "event"
    },
    {
      "anonymous": false,
      "inputs": [
        {
          "indexed": false,
          "internalType": "uint256",
          "name": "tokenId",
          "type": "uint256"
        },
        {
          "indexed": false,
          "internalType": "address",
          "name": "contractAddress",
          "type": "address"
        },
        {
          "indexed": false,
          "internalType": "address",
          "name": "owner",
          "type": "address"
        },
        {
          "indexed": true,
          "internalType": "uint256",
          "name": "landTokenId",
          "type": "uint256"
        }
      ],
      "name": "Unstake",
      "type": "event"
    },
    {
      "anonymous": false,
      "inputs": [
        {
          "indexed": false,
          "internalType": "uint256",
          "name": "tokenId",
          "type": "uint256"
        },
        {
          "indexed": false,
          "internalType": "address",
          "name": "contractAddress",
          "type": "address"
        },
        {
          "indexed": false,
          "internalType": "address",
          "name": "owner",
          "type": "address"
        },
        {
          "indexed": true,
          "internalType": "uint256",
          "name": "landTokenId",
          "type": "uint256"
        }
      ],
      "name": "UnstakeInternal",
      "type": "event"
    },
    {
      "inputs": [],
      "name": "MAX_SUPPLY",
      "outputs": [
        {
          "internalType": "uint256",
          "name": "",
          "type": "uint256"
        }
      ],
      "stateMutability": "view",
      "type": "function"
    },
    {
      "inputs": [
        {
          "internalType": "address",
          "name": "contractAddress",
          "type": "address"
        }
      ],
      "name": "addContract",
      "outputs": [],
      "stateMutability": "nonpayable",
      "type": "function"
    },
    {
      "inputs": [
        {
          "internalType": "address",
          "name": "to",
          "type": "address"
        },
        {
          "internalType": "uint256",
          "name": "tokenId",
          "type": "uint256"
        }
      ],
      "name": "approve",
      "outputs": [],
      "stateMutability": "nonpayable",
      "type": "function"
    },
    {
      "inputs": [
        {
          "internalType": "address",
          "name": "owner",
          "type": "address"
        }
      ],
      "name": "balanceOf",
      "outputs": [
        {
          "internalType": "uint256",
          "name": "",
          "type": "uint256"
        }
      ],
      "stateMutability": "view",
      "type": "function"
    },
    {
      "inputs": [
        {
          "internalType": "uint256",
          "name": "landTokenId",
          "type": "uint256"
        },
        {
          "internalType": "uint256",
          "name": "itemId",
          "type": "uint256"
        },
        {
          "internalType": "uint256",
          "name": "cost",
          "type": "uint256"
        }
      ],
      "name": "buyUpgrades",
      "outputs": [],
      "stateMutability": "nonpayable",
      "type": "function"
    },
    {
      "inputs": [
        {
          "internalType": "uint256",
          "name": "landTokenId",
          "type": "uint256"
        },
        {
          "internalType": "uint256",
          "name": "itemId",
          "type": "uint256"
        },
        {
          "internalType": "uint256",
          "name": "cost",
          "type": "uint256"
        }
      ],
      "name": "buyUpgradesColony",
      "outputs": [],
      "stateMutability": "nonpayable",
      "type": "function"
    },
    {
      "inputs": [],
      "name": "clansAddress",
      "outputs": [
        {
          "internalType": "address",
          "name": "",
          "type": "address"
        }
      ],
      "stateMutability": "view",
      "type": "function"
    },
    {
      "inputs": [
        {
          "internalType": "address",
          "name": "",
          "type": "address"
        }
      ],
      "name": "contracts",
      "outputs": [
        {
          "internalType": "bool",
          "name": "active",
          "type": "bool"
        },
        {
          "internalType": "contract IERC721",
          "name": "instance",
          "type": "address"
        }
      ],
      "stateMutability": "view",
      "type": "function"
    },
    {
      "inputs": [
        {
          "internalType": "uint256",
          "name": "tokenId",
          "type": "uint256"
        }
      ],
      "name": "getApproved",
      "outputs": [
        {
          "internalType": "address",
          "name": "",
          "type": "address"
        }
      ],
      "stateMutability": "view",
      "type": "function"
    },
    {
      "inputs": [
        {
          "internalType": "address",
          "name": "addr",
          "type": "address"
        }
      ],
      "name": "getTokenIDs",
      "outputs": [
        {
          "internalType": "uint256[]",
          "name": "",
          "type": "uint256[]"
        }
      ],
      "stateMutability": "view",
      "type": "function"
    },
    {
      "inputs": [
        {
          "internalType": "address",
          "name": "owner",
          "type": "address"
        },
        {
          "internalType": "address",
          "name": "operator",
          "type": "address"
        }
      ],
      "name": "isApprovedForAll",
      "outputs": [
        {
          "internalType": "bool",
          "name": "",
          "type": "bool"
        }
      ],
      "stateMutability": "view",
      "type": "function"
    },
    {
      "inputs": [
        {
          "internalType": "address",
          "name": "owner",
          "type": "address"
        },
        {
          "internalType": "address",
          "name": "operator",
          "type": "address"
        }
      ],
      "name": "isValidOpenseaProxy",
      "outputs": [
        {
          "internalType": "bool",
          "name": "",
          "type": "bool"
        }
      ],
      "stateMutability": "view",
      "type": "function"
    },
    {
      "inputs": [
        {
          "internalType": "uint256",
          "name": "",
          "type": "uint256"
        },
        {
          "internalType": "uint256",
          "name": "",
          "type": "uint256"
        }
      ],
      "name": "landToItem",
      "outputs": [
        {
          "internalType": "uint256",
          "name": "",
          "type": "uint256"
        }
      ],
      "stateMutability": "view",
      "type": "function"
    },
    {
      "inputs": [
        {
          "internalType": "uint256",
          "name": "",
          "type": "uint256"
        },
        {
          "internalType": "uint256",
          "name": "",
          "type": "uint256"
        }
      ],
      "name": "landToItemColony",
      "outputs": [
        {
          "internalType": "uint256",
          "name": "",
          "type": "uint256"
        }
      ],
      "stateMutability": "view",
      "type": "function"
    },
    {
      "inputs": [],
      "name": "mintPrice",
      "outputs": [
        {
          "internalType": "uint256",
          "name": "",
          "type": "uint256"
        }
      ],
      "stateMutability": "view",
      "type": "function"
    },
    {
      "inputs": [],
      "name": "name",
      "outputs": [
        {
          "internalType": "string",
          "name": "",
          "type": "string"
        }
      ],
      "stateMutability": "view",
      "type": "function"
    },
    {
      "inputs": [
        {
          "internalType": "address",
          "name": "owner",
          "type": "address"
        }
      ],
      "name": "nextLevelTankPrice",
      "outputs": [
        {
          "internalType": "uint256",
          "name": "",
          "type": "uint256"
        }
      ],
      "stateMutability": "view",
      "type": "function"
    },
    {
      "inputs": [],
      "name": "openseaProxyEnabled",
      "outputs": [
        {
          "internalType": "bool",
          "name": "",
          "type": "bool"
        }
      ],
      "stateMutability": "view",
      "type": "function"
    },
    {
      "inputs": [],
      "name": "owner",
      "outputs": [
        {
          "internalType": "address",
          "name": "",
          "type": "address"
        }
      ],
      "stateMutability": "view",
      "type": "function"
    },
    {
      "inputs": [
        {
          "internalType": "uint256",
          "name": "tokenId",
          "type": "uint256"
        }
      ],
      "name": "ownerOf",
      "outputs": [
        {
          "internalType": "address",
          "name": "",
          "type": "address"
        }
      ],
      "stateMutability": "view",
      "type": "function"
    },
    {
      "inputs": [],
      "name": "oxgnToken",
      "outputs": [
        {
          "internalType": "contract IOxygen",
          "name": "",
          "type": "address"
        }
      ],
      "stateMutability": "view",
      "type": "function"
    },
    {
      "inputs": [
        {
          "internalType": "uint256",
          "name": "amount",
          "type": "uint256"
        }
      ],
      "name": "paidMint",
      "outputs": [],
      "stateMutability": "nonpayable",
      "type": "function"
    },
    {
      "inputs": [],
      "name": "proxyRegistryAddress",
      "outputs": [
        {
          "internalType": "address",
          "name": "",
          "type": "address"
        }
      ],
      "stateMutability": "view",
      "type": "function"
    },
    {
      "inputs": [],
      "name": "renounceOwnership",
      "outputs": [],
      "stateMutability": "nonpayable",
      "type": "function"
    },
    {
      "inputs": [
        {
          "internalType": "uint256",
          "name": "tokenId",
          "type": "uint256"
        }
      ],
      "name": "resetTimestamps",
      "outputs": [
        {
          "internalType": "uint256[]",
          "name": "",
          "type": "uint256[]"
        }
      ],
      "stateMutability": "view",
      "type": "function"
    },
    {
      "inputs": [
        {
          "internalType": "address",
          "name": "from",
          "type": "address"
        },
        {
          "internalType": "address",
          "name": "to",
          "type": "address"
        },
        {
          "internalType": "uint256",
          "name": "tokenId",
          "type": "uint256"
        }
      ],
      "name": "safeTransferFrom",
      "outputs": [],
      "stateMutability": "nonpayable",
      "type": "function"
    },
    {
      "inputs": [
        {
          "internalType": "address",
          "name": "from",
          "type": "address"
        },
        {
          "internalType": "address",
          "name": "to",
          "type": "address"
        },
        {
          "internalType": "uint256",
          "name": "tokenId",
          "type": "uint256"
        },
        {
          "internalType": "bytes",
          "name": "_data",
          "type": "bytes"
        }
      ],
      "name": "safeTransferFrom",
      "outputs": [],
      "stateMutability": "nonpayable",
      "type": "function"
    },
    {
      "inputs": [],
      "name": "saleEnabled",
      "outputs": [
        {
          "internalType": "bool",
          "name": "",
          "type": "bool"
        }
      ],
      "stateMutability": "view",
      "type": "function"
    },
    {
      "inputs": [
        {
          "internalType": "address",
          "name": "operator",
          "type": "address"
        },
        {
          "internalType": "bool",
          "name": "approved",
          "type": "bool"
        }
      ],
      "name": "setApprovalForAll",
      "outputs": [],
      "stateMutability": "nonpayable",
      "type": "function"
    },
    {
      "inputs": [
        {
          "internalType": "string",
          "name": "newBaseURI",
          "type": "string"
        }
      ],
      "name": "setBaseURI",
      "outputs": [],
      "stateMutability": "nonpayable",
      "type": "function"
    },
    {
      "inputs": [
        {
          "internalType": "address",
          "name": "_clansAddress",
          "type": "address"
        }
      ],
      "name": "setClansContract",
      "outputs": [],
      "stateMutability": "nonpayable",
      "type": "function"
    },
    {
      "inputs": [
        {
          "internalType": "uint256",
          "name": "newMaxSupply",
          "type": "uint256"
        }
      ],
      "name": "setMaxSupply",
      "outputs": [],
      "stateMutability": "nonpayable",
      "type": "function"
    },
    {
      "inputs": [
        {
          "internalType": "uint256",
          "name": "newPrice",
          "type": "uint256"
        }
      ],
      "name": "setMintPrice",
      "outputs": [],
      "stateMutability": "nonpayable",
      "type": "function"
    },
    {
      "inputs": [
        {
          "internalType": "address",
          "name": "_oxgnToken",
          "type": "address"
        }
      ],
      "name": "setOxgnContract",
      "outputs": [],
      "stateMutability": "nonpayable",
      "type": "function"
    },
    {
      "inputs": [
        {
          "internalType": "address",
          "name": "_proxyRegistryAddress",
          "type": "address"
        }
      ],
      "name": "setProxyRegistry",
      "outputs": [],
      "stateMutability": "nonpayable",
      "type": "function"
    },
    {
      "inputs": [
        {
          "internalType": "uint256[]",
          "name": "newPrices",
          "type": "uint256[]"
        }
      ],
      "name": "setTankPrices",
      "outputs": [],
      "stateMutability": "nonpayable",
      "type": "function"
    },
    {
      "inputs": [
        {
          "internalType": "address",
          "name": "contractAddress",
          "type": "address"
        },
        {
          "internalType": "uint256[]",
          "name": "tokenIds",
          "type": "uint256[]"
        },
        {
          "internalType": "uint256",
          "name": "landTokenId",
          "type": "uint256"
        }
      ],
      "name": "stake",
      "outputs": [],
      "stateMutability": "nonpayable",
      "type": "function"
    },
    {
      "inputs": [
        {
          "internalType": "address",
          "name": "contractAddress",
          "type": "address"
        },
        {
          "internalType": "uint256[]",
          "name": "tokenIds",
          "type": "uint256[]"
        },
        {
          "internalType": "uint256",
          "name": "landTokenId",
          "type": "uint256"
        }
      ],
      "name": "stakeInternal",
      "outputs": [],
      "stateMutability": "nonpayable",
      "type": "function"
    },
    {
      "inputs": [
        {
          "internalType": "address",
          "name": "contractAddress",
          "type": "address"
        },
        {
          "internalType": "uint256",
          "name": "landId",
          "type": "uint256"
        }
      ],
      "name": "stakedByLand",
      "outputs": [
        {
          "internalType": "uint256[]",
          "name": "stakedIds",
          "type": "uint256[]"
        },
        {
          "internalType": "uint256[]",
          "name": "stakedTimestamps",
          "type": "uint256[]"
        },
        {
          "internalType": "address[]",
          "name": "owners",
          "type": "address[]"
        }
      ],
      "stateMutability": "view",
      "type": "function"
    },
    {
      "inputs": [
        {
          "internalType": "address",
          "name": "contractAddress",
          "type": "address"
        },
        {
          "internalType": "uint256",
          "name": "landId",
          "type": "uint256"
        }
      ],
      "name": "stakedByLandInternal",
      "outputs": [
        {
          "internalType": "uint256[]",
          "name": "stakedIds",
          "type": "uint256[]"
        },
        {
          "internalType": "uint256[]",
          "name": "stakedTimestamps",
          "type": "uint256[]"
        },
        {
          "internalType": "address[]",
          "name": "owners",
          "type": "address[]"
        }
      ],
      "stateMutability": "view",
      "type": "function"
    },
    {
      "inputs": [
        {
          "internalType": "address",
          "name": "contractAddress",
          "type": "address"
        },
        {
          "internalType": "address",
          "name": "owner",
          "type": "address"
        }
      ],
      "name": "stakedByOwner",
      "outputs": [
        {
          "internalType": "uint256[]",
          "name": "stakedIds",
          "type": "uint256[]"
        },
        {
          "internalType": "uint256[]",
          "name": "stakedTimestamps",
          "type": "uint256[]"
        },
        {
          "internalType": "uint256[]",
          "name": "landIds",
          "type": "uint256[]"
        }
      ],
      "stateMutability": "view",
      "type": "function"
    },
    {
      "inputs": [
        {
          "internalType": "address",
          "name": "contractAddress",
          "type": "address"
        },
        {
          "internalType": "address",
          "name": "owner",
          "type": "address"
        }
      ],
      "name": "stakedByOwnerInternal",
      "outputs": [
        {
          "internalType": "uint256[]",
          "name": "stakedIds",
          "type": "uint256[]"
        },
        {
          "internalType": "uint256[]",
          "name": "stakedTimestamps",
          "type": "uint256[]"
        },
        {
          "internalType": "uint256[]",
          "name": "landIds",
          "type": "uint256[]"
        }
      ],
      "stateMutability": "view",
      "type": "function"
    },
    {
      "inputs": [
        {
          "internalType": "address",
          "name": "contractAddress",
          "type": "address"
        },
        {
          "internalType": "uint256",
          "name": "tokenId",
          "type": "uint256"
        }
      ],
      "name": "stakedByToken",
      "outputs": [
        {
          "internalType": "address",
          "name": "",
          "type": "address"
        },
        {
          "internalType": "uint256",
          "name": "",
          "type": "uint256"
        },
        {
          "internalType": "uint256",
          "name": "",
          "type": "uint256"
        }
      ],
      "stateMutability": "view",
      "type": "function"
    },
    {
      "inputs": [
        {
          "internalType": "address",
          "name": "contractAddress",
          "type": "address"
        },
        {
          "internalType": "uint256",
          "name": "tokenId",
          "type": "uint256"
        }
      ],
      "name": "stakedByTokenInternal",
      "outputs": [
        {
          "internalType": "address",
          "name": "",
          "type": "address"
        },
        {
          "internalType": "uint256",
          "name": "",
          "type": "uint256"
        },
        {
          "internalType": "uint256",
          "name": "",
          "type": "uint256"
        }
      ],
      "stateMutability": "view",
      "type": "function"
    },
    {
      "inputs": [
        {
          "internalType": "bytes4",
          "name": "interfaceId",
          "type": "bytes4"
        }
      ],
      "name": "supportsInterface",
      "outputs": [
        {
          "internalType": "bool",
          "name": "",
          "type": "bool"
        }
      ],
      "stateMutability": "view",
      "type": "function"
    },
    {
      "inputs": [],
      "name": "symbol",
      "outputs": [
        {
          "internalType": "string",
          "name": "",
          "type": "string"
        }
      ],
      "stateMutability": "view",
      "type": "function"
    },
    {
      "inputs": [
        {
          "internalType": "address",
          "name": "owner",
          "type": "address"
        }
      ],
      "name": "tankLevelOfOwner",
      "outputs": [
        {
          "internalType": "uint256",
          "name": "",
          "type": "uint256"
        }
      ],
      "stateMutability": "view",
      "type": "function"
    },
    {
      "inputs": [
        {
          "internalType": "uint256",
          "name": "",
          "type": "uint256"
        }
      ],
      "name": "tankPrices",
      "outputs": [
        {
          "internalType": "uint256",
          "name": "",
          "type": "uint256"
        }
      ],
      "stateMutability": "view",
      "type": "function"
    },
    {
      "inputs": [],
      "name": "toggleOpenseaProxy",
      "outputs": [],
      "stateMutability": "nonpayable",
      "type": "function"
    },
    {
      "inputs": [],
      "name": "toggleSale",
      "outputs": [],
      "stateMutability": "nonpayable",
      "type": "function"
    },
    {
      "inputs": [],
      "name": "toggleTransferLogic",
      "outputs": [],
      "stateMutability": "nonpayable",
      "type": "function"
    },
    {
      "inputs": [],
      "name": "toggleUpgradeSameColony",
      "outputs": [],
      "stateMutability": "nonpayable",
      "type": "function"
    },
    {
      "inputs": [
        {
          "internalType": "uint256",
          "name": "",
          "type": "uint256"
        },
        {
          "internalType": "address",
          "name": "",
          "type": "address"
        }
      ],
      "name": "tokenToBlacklist",
      "outputs": [
        {
          "internalType": "bool",
          "name": "",
          "type": "bool"
        }
      ],
      "stateMutability": "view",
      "type": "function"
    },
    {
      "inputs": [
        {
          "internalType": "uint256",
          "name": "",
          "type": "uint256"
        },
        {
          "internalType": "uint256",
          "name": "",
          "type": "uint256"
        }
      ],
      "name": "tokenToResetTimestamp",
      "outputs": [
        {
          "internalType": "uint256",
          "name": "",
          "type": "uint256"
        }
      ],
      "stateMutability": "view",
      "type": "function"
    },
    {
      "inputs": [
        {
          "internalType": "uint256",
          "name": "",
          "type": "uint256"
        },
        {
          "internalType": "uint256",
          "name": "",
          "type": "uint256"
        }
      ],
      "name": "tokenToTransferTimestamp",
      "outputs": [
        {
          "internalType": "uint256",
          "name": "",
          "type": "uint256"
        }
      ],
      "stateMutability": "view",
      "type": "function"
    },
    {
      "inputs": [
        {
          "internalType": "uint256",
          "name": "tokenId",
          "type": "uint256"
        }
      ],
      "name": "tokenURI",
      "outputs": [
        {
          "internalType": "string",
          "name": "",
          "type": "string"
        }
      ],
      "stateMutability": "view",
      "type": "function"
    },
    {
      "inputs": [],
      "name": "totalSupply",
      "outputs": [
        {
          "internalType": "uint256",
          "name": "",
          "type": "uint256"
        }
      ],
      "stateMutability": "view",
      "type": "function"
    },
    {
      "inputs": [
        {
          "internalType": "address",
          "name": "from",
          "type": "address"
        },
        {
          "internalType": "address",
          "name": "to",
          "type": "address"
        },
        {
          "internalType": "uint256",
          "name": "tokenId",
          "type": "uint256"
        }
      ],
      "name": "transferFrom",
      "outputs": [],
      "stateMutability": "nonpayable",
      "type": "function"
    },
    {
      "inputs": [],
      "name": "transferLogicEnabled",
      "outputs": [
        {
          "internalType": "bool",
          "name": "",
          "type": "bool"
        }
      ],
      "stateMutability": "view",
      "type": "function"
    },
    {
      "inputs": [
        {
          "internalType": "address",
          "name": "newOwner",
          "type": "address"
        }
      ],
      "name": "transferOwnership",
      "outputs": [],
      "stateMutability": "nonpayable",
      "type": "function"
    },
    {
      "inputs": [
        {
          "internalType": "uint256",
          "name": "tokenId",
          "type": "uint256"
        }
      ],
      "name": "transferTimestamps",
      "outputs": [
        {
          "internalType": "uint256[]",
          "name": "",
          "type": "uint256[]"
        }
      ],
      "stateMutability": "view",
      "type": "function"
    },
    {
      "inputs": [
        {
          "internalType": "address",
          "name": "contractAddress",
          "type": "address"
        },
        {
          "internalType": "uint256[]",
          "name": "tokenIds",
          "type": "uint256[]"
        },
        {
          "internalType": "uint256",
          "name": "landTokenId",
          "type": "uint256"
        }
      ],
      "name": "unstake",
      "outputs": [],
      "stateMutability": "nonpayable",
      "type": "function"
    },
    {
      "inputs": [
        {
          "internalType": "address",
          "name": "contractAddress",
          "type": "address"
        },
        {
          "internalType": "uint256[]",
          "name": "tokenIds",
          "type": "uint256[]"
        },
        {
          "internalType": "uint256",
          "name": "landTokenId",
          "type": "uint256"
        }
      ],
      "name": "unstakeInternal",
      "outputs": [],
      "stateMutability": "nonpayable",
      "type": "function"
    },
    {
      "inputs": [
        {
          "internalType": "address",
          "name": "contractAddress",
          "type": "address"
        },
        {
          "internalType": "bool",
          "name": "active",
          "type": "bool"
        }
      ],
      "name": "updateContract",
      "outputs": [],
      "stateMutability": "nonpayable",
      "type": "function"
    },
    {
      "inputs": [],
      "name": "upgradeSameColonyEnabled",
      "outputs": [
        {
          "internalType": "bool",
          "name": "",
          "type": "bool"
        }
      ],
      "stateMutability": "view",
      "type": "function"
    },
    {
      "inputs": [],
      "name": "upgradeTank",
      "outputs": [],
      "stateMutability": "nonpayable",
      "type": "function"
    },
    {
      "inputs": [
        {
          "internalType": "address",
          "name": "receiver",
          "type": "address"
        }
      ],
      "name": "upgradeTank",
      "outputs": [],
      "stateMutability": "nonpayable",
      "type": "function"
    }
  ],
  "bytecode": "0x6101f4600d55681b1ae4d6e2ef500000600f8190556010805463ffffffff191663010100011790556101a06040526080908152683635c9adc5dea0000060a052686c6b935b8bbd40000060c05268d8d726b7177a80000060e0526901b1ae4d6e2ef5000000610100526903635c9adc5dea000000610120526906c6b935b8bbd400000061014052690d8d726b7177a800000061016052691b1ae4d6e2ef5000000061018052620000b490602190600962000335565b50348015620000c257600080fd5b5060405162004de338038062004de3833981016040819052620000e59162000457565b604080518082018252600a80825269164c8c4c8ccb93185b9960b21b6020808401828152855180870190965292855284015281519192916200012a9160029162000390565b5080516200014090600390602084019062000390565b50506000805550620001523362000198565b600160095583516200016c90600e90602087019062000390565b506200017883620001ea565b62000183826200025b565b6200018e81620002c8565b50505050620005aa565b600880546001600160a01b038381166001600160a01b0319831681179093556040519116919082907f8be0079c531659141344cd1fd0a4f28419497f9722a3daafe3b4186f6b6457e090600090a35050565b6008546001600160a01b03163314620002395760405162461bcd60e51b8152602060048201819052602482015260008051602062004dc383398151915260448201526064015b60405180910390fd5b600c80546001600160a01b0319166001600160a01b0392909216919091179055565b6008546001600160a01b03163314620002a65760405162461bcd60e51b8152602060048201819052602482015260008051602062004dc3833981519152604482015260640162000230565b600a80546001600160a01b0319166001600160a01b0392909216919091179055565b6008546001600160a01b03163314620003135760405162461bcd60e51b8152602060048201819052602482015260008051602062004dc3833981519152604482015260640162000230565b600b80546001600160a01b0319166001600160a01b0392909216919091179055565b8280548282559060005260206000209081019282156200037e579160200282015b828111156200037e57825182906001600160501b031690559160200191906001019062000356565b506200038c9291506200040d565b5090565b8280546200039e906200056d565b90600052602060002090601f016020900481019282620003c257600085556200037e565b82601f10620003dd57805160ff19168380011785556200037e565b828001600101855582156200037e579182015b828111156200037e578251825591602001919060010190620003f0565b5b808211156200038c57600081556001016200040e565b634e487b7160e01b600052604160045260246000fd5b80516001600160a01b03811681146200045257600080fd5b919050565b600080600080608085870312156200046e57600080fd5b84516001600160401b03808211156200048657600080fd5b818701915087601f8301126200049b57600080fd5b815181811115620004b057620004b062000424565b604051601f8201601f19908116603f01168101908382118183101715620004db57620004db62000424565b81604052828152602093508a84848701011115620004f857600080fd5b600091505b828210156200051c5784820184015181830185015290830190620004fd565b828211156200052e5760008484830101525b9750620005409150508782016200043a565b9450505062000552604086016200043a565b915062000562606086016200043a565b905092959194509250565b600181811c908216806200058257607f821691505b60208210811415620005a457634e487b7160e01b600052602260045260246000fd5b50919050565b61480980620005ba6000396000f3fe608060405234801561001057600080fd5b50600436106103f15760003560e01c8063783af6c111610215578063adfdeef911610125578063d4a342dc116100b8578063f2db47ae11610087578063f2db47ae14610940578063f2fde38b14610953578063f399b11e14610966578063f4a0a52814610979578063f541d56c1461098c57600080fd5b8063d4a342dc146108f4578063db74809c14610907578063e7e796301461091a578063e985e9c51461092d57600080fd5b8063c4db8a85116100f4578063c4db8a85146108a8578063c5e7fa3b146108bb578063c87b56dd146108ce578063cd7c0326146108e157600080fd5b8063adfdeef914610867578063b2c499c41461087a578063b88d4fde14610882578063b93a75d81461089557600080fd5b806389002e55116101a85780638eaeeb95116101775780638eaeeb951461081f57806395d89b4114610831578063a22cb46514610839578063a47388671461084c578063a971ea061461085457600080fd5b806389002e55146107d55780638c864491146107e85780638cee9d0f146107fb5780638da5cb5b1461080e57600080fd5b806380ee4460116101e457806380ee446014610794578063842e91c1146107a7578063854222bc146107ba578063856c5633146107c257600080fd5b8063783af6c1146107455780637ad50cc8146107595780637d8966e414610779578063806c440d1461078157600080fd5b8063426d78be116103105780636352211e116102a357806369dc9ff31161027257806369dc9ff3146106b85780636f8b44b01461070a57806370a082311461071d578063715018a61461073057806371b9b6461461073857600080fd5b80636352211e1461067657806365cde733146106895780636817c76c1461069c57806369a453a7146106a557600080fd5b806354fa7b6e116102df57806354fa7b6e1461062a57806355f804b31461063d5780635e9abe39146106505780635f539d691461066357600080fd5b8063426d78be1461058957806342842e0e146105b4578063489499ed146105c75780635315b15e146105f257600080fd5b806318160ddd116103885780633288d9ac116103575780633288d9ac1461054757806332cb6b0c1461055a578063364090ce146105635780633a19b9021461057657600080fd5b806318160ddd146104e95780631aca361e146104ff5780631bb5e5161461051257806323b872dd1461053457600080fd5b8063095ea7b3116103c4578063095ea7b31461048c57806312ab9a39146104a157806313ed3856146104c357806313fa0520146104d657600080fd5b806301cd120d146103f657806301ffc9a71461043957806306fdde031461044c578063081812fc14610461575b600080fd5b610424610404366004613eb3565b601360209081526000928352604080842090915290825290205460ff1681565b60405190151581526020015b60405180910390f35b610424610447366004613ef9565b610994565b6104546109e6565b6040516104309190613f6e565b61047461046f366004613f81565b610a78565b6040516001600160a01b039091168152602001610430565b61049f61049a366004613f9a565b610abc565b005b6104b46104af366004613f9a565b610b4a565b60405161043093929190614001565b61049f6104d1366004614073565b610d59565b61049f6104e4366004614155565b610da5565b600154600054035b604051908152602001610430565b61049f61050d3660046141ad565b611112565b6105256105203660046141d9565b6112bb565b60405161043093929190614207565b61049f61054236600461424a565b611547565b6104f1610555366004614073565b61155d565b6104f1600d5481565b61049f61057136600461428b565b61159f565b6010546104249062010000900460ff1681565b6104f16105973660046142bf565b601460209081526000928352604080842090915290825290205481565b61049f6105c236600461424a565b6115e0565b6104f16105d53660046142bf565b601560209081526000928352604080842090915290825290205481565b610605610600366004613f9a565b611606565b604080516001600160a01b039094168452602084019290925290820152606001610430565b61049f610638366004614155565b6116de565b61049f61064b366004614338565b611982565b6104f161065e366004614073565b6119bf565b61049f610671366004614073565b6119ee565b610474610684366004613f81565b611a58565b61049f610697366004613f81565b611a6a565b6104f1600f5481565b61049f6106b3366004614155565b611bf8565b6106eb6106c6366004614073565b60166020526000908152604090205460ff81169061010090046001600160a01b031682565b6040805192151583526001600160a01b03909116602083015201610430565b61049f610718366004613f81565b611e48565b6104f161072b366004614073565b611eda565b61049f611f28565b6010546104249060ff1681565b601054610424906301000000900460ff1681565b61076c610767366004613f81565b611f5e565b6040516104309190614380565b61049f611fc0565b61076c61078f366004614073565b611ffe565b600c54610474906001600160a01b031681565b61076c6107b5366004613f81565b6120db565b61049f61213b565b6104f16107d0366004613f81565b612184565b6104246107e33660046141d9565b6121a5565b600a54610474906001600160a01b031681565b6104f16108093660046142bf565b61223e565b6008546001600160a01b0316610474565b60105461042490610100900460ff1681565b61045461226f565b61049f6108473660046143a1565b61227e565b61049f612314565b61049f6108623660046143a1565b612468565b61049f610875366004614073565b612532565b61049f61257e565b61049f6108903660046143cf565b6125c5565b6106056108a3366004613f9a565b6125e2565b6105256108b63660046141d9565b6126e3565b61049f6108c9366004614073565b6129c3565b6104546108dc366004613f81565b612a0f565b600b54610474906001600160a01b031681565b61049f610902366004614155565b612a94565b6104f16109153660046142bf565b612c92565b6104b4610928366004613f9a565b612cae565b61042461093b3660046141d9565b612ecd565b61049f61094e366004614073565b612f14565b61049f610961366004614073565b612fdb565b61049f6109743660046141ad565b613073565b61049f610987366004613f81565b613222565b61049f613251565b60006001600160e01b031982166380ac58cd60e01b14806109c557506001600160e01b03198216635b5e139f60e01b145b806109e057506301ffc9a760e01b6001600160e01b03198316145b92915050565b6060600280546109f59061444e565b80601f0160208091040260200160405190810160405280929190818152602001828054610a219061444e565b8015610a6e5780601f10610a4357610100808354040283529160200191610a6e565b820191906000526020600020905b815481529060010190602001808311610a5157829003601f168201915b5050505050905090565b6000610a838261329c565b610aa0576040516333d1c03960e21b815260040160405180910390fd5b506000908152600660205260409020546001600160a01b031690565b6000610ac782611a58565b9050806001600160a01b0316836001600160a01b03161415610afc5760405163250fdee360e21b815260040160405180910390fd5b336001600160a01b03821614801590610b1c5750610b1a8133612ecd565b155b15610b3a576040516367d9dca160e11b815260040160405180910390fd5b610b458383836132c7565b505050565b6060808084610b5a601782613323565b610b7f5760405162461bcd60e51b8152600401610b7690614489565b60405180910390fd5b6001600160a01b03861660009081526019602090815260408083208884529091529020610bab81613345565b6001600160401b03811115610bc257610bc2614090565b604051908082528060200260200182016040528015610beb578160200160208202803683370190505b509450610bf781613345565b6001600160401b03811115610c0e57610c0e614090565b604051908082528060200260200182016040528015610c37578160200160208202803683370190505b509350610c4381613345565b6001600160401b03811115610c5a57610c5a614090565b604051908082528060200260200182016040528015610c83578160200160208202803683370190505b50925060005b610c9282613345565b811015610d4f576000610ca5838361334f565b905080878381518110610cba57610cba6144c0565b6020908102919091018101919091526001600160a01b038a166000908152601a8252604080822084835290925220548651879084908110610cfd57610cfd6144c0565b602002602001018181525050610d1288611a58565b858381518110610d2457610d246144c0565b6001600160a01b03909216602092830291909101909101525080610d47816144ec565b915050610c89565b5050509250925092565b6008546001600160a01b03163314610d835760405162461bcd60e51b8152600401610b7690614507565b600c80546001600160a01b0319166001600160a01b0392909216919091179055565b82610db1601782613323565b610dcd5760405162461bcd60e51b8152600401610b7690614489565b60026009541415610df05760405162461bcd60e51b8152600401610b769061453c565b60026009556001600160a01b0384166000908152601660205260408120905b8451811015611047576000858281518110610e2c57610e2c6144c0565b60200260200101519050610e8781601b60008a6001600160a01b03166001600160a01b031681526020019081526020016000206000610e683390565b6001600160a01b0316815260208101919091526040016000209061335b565b610ec95760405162461bcd60e51b8152602060048201526013602482015272151bdad95b881a5cc81b9bdd081cdd185ad959606a1b6044820152606401610b76565b6001600160a01b038781166000908152601c60209081526040808320858452909152902080546001600160a01b031916905583546101009004166323b872dd3033846040518463ffffffff1660e01b8152600401610f2993929190614573565b600060405180830381600087803b158015610f4357600080fd5b505af1158015610f57573d6000803e3d6000fd5b5050506001600160a01b0388166000908152601b60205260408120610f9f92508391610f803390565b6001600160a01b03168152602081019190915260400160002090613373565b506001600160a01b0387166000908152601e602090815260408083208884529091529020610fcd9082613373565b506001600160a01b0387166000818152601d6020908152604080832085845282528083209290925581518481529081019290925233828201525186917ff8eefa3aa6ce8b1d9be01c317b1a8f8e5f5aaeb5bfb5e6c583df94a342bbd9c7919081900360600190a2508061103f816144ec565b915050610e0f565b506001600160a01b0385166000908152601b602090815260408083203384529091528120906001905b61107983613345565b8110156110d6576110b661108d848361334f565b6001600160a01b038a166000908152601e602090815260408083208b845290915290209061335b565b156110c457600091506110d6565b806110ce816144ec565b915050611070565b508015611104576001600160a01b0387166000908152601f602052604081206111029187919033610f80565b505b505060016009555050505050565b3361111c84611a58565b6001600160a01b0316146111425760405162461bcd60e51b8152600401610b7690614597565b600061114f6003846145e4565b9050600181101561115e575060035b600a546001600160a01b03166000816371c10cae336040516001600160e01b031960e084901b1681526001600160a01b039091166004820152602401606060405180830381865afa1580156111b7573d6000803e3d6000fd5b505050506040513d601f19601f820116820180604052508101906111db91906145f8565b50506010549091506301000000900460ff1615611211578083146112115760405162461bcd60e51b8152600401610b7690614631565b600c546001600160a01b0316639dc29fac336040516001600160e01b031960e084901b1681526001600160a01b03909116600482015260248101879052604401600060405180830381600087803b15801561126b57600080fd5b505af115801561127f573d6000803e3d6000fd5b5050506000878152601460209081526040808320898452909152812080548793509091906112ae90849061467a565b9091555050505050505050565b60608080846112cb601782613323565b6112e75760405162461bcd60e51b8152600401610b7690614489565b6001600160a01b038087166000908152601b6020908152604080832093891683529290522061131581613345565b6001600160401b0381111561132c5761132c614090565b604051908082528060200260200182016040528015611355578160200160208202803683370190505b50945061136181613345565b6001600160401b0381111561137857611378614090565b6040519080825280602002602001820160405280156113a1578160200160208202803683370190505b5093506113ad81613345565b6001600160401b038111156113c4576113c4614090565b6040519080825280602002602001820160405280156113ed578160200160208202803683370190505b50925060005b6113fc82613345565b811015610d4f57600061140f838361334f565b905080878381518110611424576114246144c0565b6020908102919091018101919091526001600160a01b038a166000908152601d8252604080822084835290925220548651879084908110611467576114676144c0565b6020908102919091018101919091526001600160a01b03808b166000908152601f83526040808220928c168252919092528120905b6114a582613345565b811015611531576001600160a01b038b166000908152601e602052604081206114f1918591906114d5868661334f565b815260200190815260200160002061335b90919063ffffffff16565b1561151f57611500828261334f565b878581518110611512576115126144c0565b6020026020010181815250505b80611529816144ec565b91505061149c565b505050808061153f906144ec565b9150506113f3565b61155283838361337f565b610b458383836134a0565b6001600160a01b038116600090815260208052604081205460218054909160ff1690811061158d5761158d6144c0565b90600052602060002001549050919050565b6008546001600160a01b031633146115c95760405162461bcd60e51b8152600401610b7690614507565b80516115dc906021906020840190613dcb565b5050565b6115eb83838361337f565b610b45838383604051806020016040528060008152506134ab565b6000808084611616601782613323565b6116325760405162461bcd60e51b8152600401610b7690614489565b60006116416001546000540390565b905060008060005b838110156116a8576001600160a01b038a166000908152601960209081526040808320848452909152902061167e908a61335b565b156116965780925061168f81611a58565b91506116a8565b806116a0816144ec565b915050611649565b506001600160a01b0389166000908152601a602090815260408083208b8452909152902054909650909450925050509250925092565b600260095414156117015760405162461bcd60e51b8152600401610b769061453c565b60026009556001600160a01b0383166000908152601660205260409020805460ff1661176f5760405162461bcd60e51b815260206004820152601c60248201527f546f6b656e20636f6e7472616374206973206e6f7420616374697665000000006044820152606401610b76565b60005b835181101561192657600084828151811061178f5761178f6144c0565b602002602001015190506117a03390565b6001600160a01b038781166000908152601c60209081526040808320868452909152902080546001600160a01b0319169282169290921790915583546101009004166323b872dd3330846040518463ffffffff1660e01b815260040161180893929190614573565b600060405180830381600087803b15801561182257600080fd5b505af1158015611836573d6000803e3d6000fd5b5050506001600160a01b0387166000908152601b6020526040812061187e9250839161185f3390565b6001600160a01b031681526020810191909152604001600020906134f6565b506001600160a01b0386166000908152601e6020908152604080832087845290915290206118ac90826134f6565b506001600160a01b0386166000818152601d6020908152604080832085845282529182902042905581518481529081019290925233828201525185917ff7373f56c201647feae85a62d3cf56286ed3a43d20c5eb7f9883d6ea690ef7c0919081900360600190a2508061191e816144ec565b915050611772565b506001600160a01b0384166000908152601f6020526040812061194c9184919033610e68565b611977576001600160a01b0384166000908152601f60205260408120611975918491903361185f565b505b505060016009555050565b6008546001600160a01b031633146119ac5760405162461bcd60e51b8152600401610b7690614507565b80516115dc90600e906020840190613e16565b6001600160a01b03811660009081526020805260408120546119e59060ff166001614692565b60ff1692915050565b6008546001600160a01b03163314611a185760405162461bcd60e51b8152600401610b7690614507565b6001600160a01b038116600081815260166020526040902080546101009092026001600160a81b03199092169190911760011790556115dc601782613502565b6000611a6382613517565b5192915050565b60026009541415611a8d5760405162461bcd60e51b8152600401610b769061453c565b60026009556000611aa16001546000540390565b9050333214611aaf57600080fd5b60105460ff16611af45760405162461bcd60e51b815260206004820152601060248201526f14d85b19481b9bdd08195b98589b195960821b6044820152606401610b76565b600d54611b01828461467a565b1115611b685760405162461bcd60e51b815260206004820152603060248201527f506c6561736520747279206d696e74696e672077697468206c6573732c206e6f60448201526f7420656e6f75676820737570706c792160801b6064820152608401610b76565b600c546001600160a01b0316639dc29fac33600f54611b8790866146b7565b6040516001600160e01b031960e085901b1681526001600160a01b0390921660048301526024820152604401600060405180830381600087803b158015611bcd57600080fd5b505af1158015611be1573d6000803e3d6000fd5b50505050611bef3383613631565b50506001600955565b82611c04601782613323565b611c205760405162461bcd60e51b8152600401610b7690614489565b60026009541415611c435760405162461bcd60e51b8152600401610b769061453c565b600260095533611c5283611a58565b6001600160a01b031614611c785760405162461bcd60e51b8152600401610b7690614597565b6001600160a01b0384166000908152601660205260408120905b8451811015611e3b576000858281518110611caf57611caf6144c0565b6020908102919091018101516001600160a01b038916600090815260198352604080822089835290935291909120909150611cea908261335b565b611d2c5760405162461bcd60e51b8152602060048201526013602482015272151bdad95b881a5cc81b9bdd081cdd185ad959606a1b6044820152606401610b76565b825461010090046001600160a01b03166323b872dd3033846040518463ffffffff1660e01b8152600401611d6293929190614573565b600060405180830381600087803b158015611d7c57600080fd5b505af1158015611d90573d6000803e3d6000fd5b5050506001600160a01b03881660009081526019602090815260408083208984529091529020611dc1915082613373565b506001600160a01b0387166000818152601a6020908152604080832085845282528083209290925581518481529081019290925233828201525186917f7a88d300aa5621eff92ee9ad481a2146da5273e1c775ca15eb4a3ca348a97ec1919081900360600190a25080611e33816144ec565b915050611c92565b5050600160095550505050565b6008546001600160a01b03163314611e725760405162461bcd60e51b8152600401610b7690614507565b80600d5414611ed75760015460005403811015611ed15760405162461bcd60e51b815260206004820152601d60248201527f56616c7565206c6f776572207468616e20746f74616c20737570706c790000006044820152606401610b76565b600d8190555b50565b60006001600160a01b038216611f03576040516323d3ad8160e21b815260040160405180910390fd5b506001600160a01b03166000908152600560205260409020546001600160401b031690565b6008546001600160a01b03163314611f525760405162461bcd60e51b8152600401610b7690614507565b611f5c600061364b565b565b600081815260116020908152604091829020805483518184028101840190945280845260609392830182828015611fb457602002820191906000526020600020905b815481526020019060010190808311611fa0575b50505050509050919050565b6008546001600160a01b03163314611fea5760405162461bcd60e51b8152600401610b7690614507565b6010805460ff19811660ff90911615179055565b6060600061200f6001546000540390565b9050600061201c84611eda565b90506000816001600160401b0381111561203857612038614090565b604051908082528060200260200182016040528015612061578160200160208202803683370190505b5090506000805b848110156120d05761207981611a58565b6001600160a01b0316876001600160a01b031614156120be57808383815181106120a5576120a56144c0565b6020908102919091010152816120ba816144ec565b9250505b806120c8816144ec565b915050612068565b509095945050505050565b600081815260126020908152604091829020805483518184028101840190945280845260609392830182828015611fb45760200282019190600052602060002090815481526020019060010190808311611fa05750505050509050919050565b6008546001600160a01b031633146121655760405162461bcd60e51b8152600401610b7690614507565b6010805462ff0000198116620100009182900460ff1615909102179055565b6021818154811061219457600080fd5b600091825260209091200154905081565b600b5460405163c455279160e01b81526001600160a01b03848116600483015260009281169190841690829063c455279190602401602060405180830381865afa1580156121f7573d6000803e3d6000fd5b505050506040513d601f19601f8201168201806040525081019061221b91906146d6565b6001600160a01b031614156122345760019150506109e0565b5060009392505050565b6012602052816000526040600020818154811061225a57600080fd5b90600052602060002001600091509150505481565b6060600380546109f59061444e565b6001600160a01b0382163314156122a85760405163b06307db60e01b815260040160405180910390fd5b3360008181526007602090815260408083206001600160a01b03871680855290835292819020805460ff191686151590811790915590519081529192917f17307eab39ab6107e8899845ad3d59bd9653f200f220920489ca2b5937696c31910160405180910390a35050565b600260095414156123375760405162461bcd60e51b8152600401610b769061453c565b600260095560215461234a90600161467a565b612353336119bf565b106123975760405162461bcd60e51b815260206004820152601460248201527315185b9ac81a5cc8185d081b585e081b195d995b60621b6044820152606401610b76565b600c546001600160a01b0316639dc29fac336123b23361155d565b6040516001600160e01b031960e085901b1681526001600160a01b0390921660048301526024820152604401600060405180830381600087803b1580156123f857600080fd5b505af115801561240c573d6000803e3d6000fd5b505050506020600061241b3390565b6001600160a01b0316815260208101919091526040016000908120805460ff1691612445836146f3565b91906101000a81548160ff021916908360ff160217905550506001600981905550565b6008546001600160a01b031633146124925760405162461bcd60e51b8152600401610b7690614507565b8161249e601782613323565b6124ba5760405162461bcd60e51b8152600401610b7690614489565b6124c5601784613323565b6125065760405162461bcd60e51b815260206004820152601260248201527110dbdb9d1c9858dd081b9bdd08185919195960721b6044820152606401610b76565b506001600160a01b03919091166000908152601660205260409020805460ff1916911515919091179055565b6008546001600160a01b0316331461255c5760405162461bcd60e51b8152600401610b7690614507565b600b80546001600160a01b0319166001600160a01b0392909216919091179055565b6008546001600160a01b031633146125a85760405162461bcd60e51b8152600401610b7690614507565b6010805461ff001981166101009182900460ff1615909102179055565b6125d084848461337f565b6125dc848484846134ab565b50505050565b60008080846125f2601782613323565b61260e5760405162461bcd60e51b8152600401610b7690614489565b6001600160a01b038087166000818152601c602090815260408083208a8452825280832054938352601f825280832093909416808352929052918220909190815b61265882613345565b8110156126b0576001600160a01b038a166000908152601e60205260408120612688918b91906114d5868661334f565b1561269e57612697828261334f565b92506126b0565b806126a8816144ec565b91505061264f565b50506001600160a01b03979097166000908152601d60209081526040808320988352979052959095205494969350505050565b60608080846126f3601782613323565b61270f5760405162461bcd60e51b8152600401610b7690614489565b600061271a86611ffe565b90506000805b8251811015612798576001600160a01b038916600090815260196020526040812084518290869085908110612757576127576144c0565b60200260200101518152602001908152602001600020905061277881613345565b612782908461467a565b9250508080612790906144ec565b915050612720565b508015610d4f57806001600160401b038111156127b7576127b7614090565b6040519080825280602002602001820160405280156127e0578160200160208202803683370190505b509550806001600160401b038111156127fb576127fb614090565b604051908082528060200260200182016040528015612824578160200160208202803683370190505b509450806001600160401b0381111561283f5761283f614090565b604051908082528060200260200182016040528015612868578160200160208202803683370190505b5093506000805b83518110156129b7576001600160a01b038a166000908152601960205260408120855182908790859081106128a6576128a66144c0565b60200260200101518152602001908152602001600020905060005b6128ca82613345565b8110156129a2578583815181106128e3576128e36144c0565b60200260200101518885815181106128fd576128fd6144c0565b6020908102919091010152612912828261334f565b8a8581518110612924576129246144c0565b6020908102919091018101919091526001600160a01b038d166000908152601a9091526040812090612956848461334f565b815260200190815260200160002054898581518110612977576129776144c0565b60209081029190910101528361298c816144ec565b945050808061299a906144ec565b9150506128c1565b505080806129af906144ec565b91505061286f565b50505050509250925092565b6008546001600160a01b031633146129ed5760405162461bcd60e51b8152600401610b7690614507565b600a80546001600160a01b0319166001600160a01b0392909216919091179055565b6060612a1a8261329c565b612a3757604051630a14c4b560e41b815260040160405180910390fd5b6000612a4161369d565b9050805160001415612a625760405180602001604052806000815250612a8d565b80612a6c846136ac565b604051602001612a7d929190614713565b6040516020818303038152906040525b9392505050565b60026009541415612ab75760405162461bcd60e51b8152600401610b769061453c565b60026009556001600160a01b0383166000908152601660205260409020805460ff16612b255760405162461bcd60e51b815260206004820152601c60248201527f546f6b656e20636f6e7472616374206973206e6f7420616374697665000000006044820152606401610b76565b33612b2f83611a58565b6001600160a01b031614612b555760405162461bcd60e51b8152600401610b7690614597565b60005b8351811015611975576000848281518110612b7557612b756144c0565b602090810291909101015183546040516323b872dd60e01b815291925061010090046001600160a01b0316906323b872dd90612bb990339030908690600401614573565b600060405180830381600087803b158015612bd357600080fd5b505af1158015612be7573d6000803e3d6000fd5b5050506001600160a01b03871660009081526019602090815260408083208884529091529020612c189150826134f6565b506001600160a01b0386166000818152601a6020908152604080832085845282529182902042905581518481529081019290925233828201525185917fbad5eb2559bf0125076226eec064f40a9eb579b59582cdc07ac07acecbda6ff5919081900360600190a25080612c8a816144ec565b915050612b58565b6011602052816000526040600020818154811061225a57600080fd5b6060808084612cbe601782613323565b612cda5760405162461bcd60e51b8152600401610b7690614489565b6001600160a01b0386166000908152601e602090815260408083208884529091529020612d0681613345565b6001600160401b03811115612d1d57612d1d614090565b604051908082528060200260200182016040528015612d46578160200160208202803683370190505b509450612d5281613345565b6001600160401b03811115612d6957612d69614090565b604051908082528060200260200182016040528015612d92578160200160208202803683370190505b509350612d9e81613345565b6001600160401b03811115612db557612db5614090565b604051908082528060200260200182016040528015612dde578160200160208202803683370190505b50925060005b612ded82613345565b811015610d4f576000612e00838361334f565b905080878381518110612e1557612e156144c0565b6020908102919091018101919091526001600160a01b038a166000908152601d8252604080822084835290925220548651879084908110612e5857612e586144c0565b6020908102919091018101919091526001600160a01b03808b166000908152601c8352604080822085835290935291909120548651911690869084908110612ea257612ea26144c0565b6001600160a01b03909216602092830291909101909101525080612ec5816144ec565b915050612de4565b6000612ed983836121a5565b15612ee6575060016109e0565b6001600160a01b0380841660009081526007602090815260408083209386168352929052205460ff16612a8d565b6008546001600160a01b03163314612f3e5760405162461bcd60e51b8152600401610b7690614507565b602154612f4c90600161467a565b612f55826119bf565b10612f995760405162461bcd60e51b815260206004820152601460248201527315185b9ac81a5cc8185d081b585e081b195d995b60621b6044820152606401610b76565b6001600160a01b03811660009081526020805260408120805460ff1691612fbf836146f3565b91906101000a81548160ff021916908360ff1602179055505050565b6008546001600160a01b031633146130055760405162461bcd60e51b8152600401610b7690614507565b6001600160a01b03811661306a5760405162461bcd60e51b815260206004820152602660248201527f4f776e61626c653a206e6577206f776e657220697320746865207a65726f206160448201526564647265737360d01b6064820152608401610b76565b611ed78161364b565b3361307d84611a58565b6001600160a01b0316146130a35760405162461bcd60e51b8152600401610b7690614597565b60006130b06003846145e4565b905060018110156130bf575060035b600a546001600160a01b03166000816371c10cae336040516001600160e01b031960e084901b1681526001600160a01b039091166004820152602401606060405180830381865afa158015613118573d6000803e3d6000fd5b505050506040513d601f19601f8201168201806040525081019061313c91906145f8565b5050905080831461315f5760405162461bcd60e51b8152600401610b7690614631565b6001600160a01b03821663f242432a336008546001600160a01b03166040516001600160e01b031960e085901b1681526001600160a01b03928316600482015291166024820152604481018690526064810187905260a06084820152600060a482015260c401600060405180830381600087803b1580156131df57600080fd5b505af11580156131f3573d6000803e3d6000fd5b5050506000878152601560209081526040808320898452909152812080548793509091906112ae90849061467a565b6008546001600160a01b0316331461324c5760405162461bcd60e51b8152600401610b7690614507565b600f55565b6008546001600160a01b0316331461327b5760405162461bcd60e51b8152600401610b7690614507565b6010805463ff00000019811663010000009182900460ff1615909102179055565b60008054821080156109e0575050600090815260046020526040902054600160e01b900460ff161590565b60008281526006602052604080822080546001600160a01b0319166001600160a01b0387811691821790925591518593918516917f8c5be1e5ebec7d5bd14f71427d1e84f3dd0314c0f7b2291e5b200ac8c7c3b92591a4505050565b6001600160a01b03811660009081526001830160205260408120541515612a8d565b60006109e0825490565b6000612a8d83836137b1565b60008181526001830160205260408120541515612a8d565b6000612a8d83836137db565b601054610100900460ff1661339357505050565b6000818152601160209081526040822080546001810182559083529082204291015560105462010000900460ff16156133d7576133d084336121a5565b90506133f2565b333b151580156133ef5750326001600160a01b038416145b90505b80156125dc5760008281526013602090815260408083206001600160a01b038816845290915290205460ff166134505760008281526013602090815260408083206001600160a01b03881684529091529020805460ff191660011790555b60008281526013602090815260408083206001600160a01b038716845290915290205460ff166125dc57506000908152601260209081526040822080546001810182559083529120429101555050565b610b458383836138ce565b6134b68484846138ce565b6001600160a01b0383163b151580156134d857506134d684848484613abc565b155b156125dc576040516368d2bf6b60e11b815260040160405180910390fd5b6000612a8d8383613ba4565b6000612a8d836001600160a01b038416613ba4565b60408051606081018252600080825260208201819052918101919091528160005481101561361857600081815260046020908152604091829020825160608101845290546001600160a01b0381168252600160a01b81046001600160401b031692820192909252600160e01b90910460ff161515918101829052906136165780516001600160a01b0316156135ad579392505050565b5060001901600081815260046020908152604091829020825160608101845290546001600160a01b038116808352600160a01b82046001600160401b031693830193909352600160e01b900460ff1615159281019290925215613611579392505050565b6135ad565b505b604051636f96cda160e11b815260040160405180910390fd5b6115dc828260405180602001604052806000815250613bf3565b600880546001600160a01b038381166001600160a01b0319831681179093556040519116919082907f8be0079c531659141344cd1fd0a4f28419497f9722a3daafe3b4186f6b6457e090600090a35050565b6060600e80546109f59061444e565b6060816136d05750506040805180820190915260018152600360fc1b602082015290565b8160005b81156136fa57806136e4816144ec565b91506136f39050600a83614742565b91506136d4565b6000816001600160401b0381111561371457613714614090565b6040519080825280601f01601f19166020018201604052801561373e576020820181803683370190505b5090505b84156137a957613753600183614756565b9150613760600a866145e4565b61376b90603061467a565b60f81b818381518110613780576137806144c0565b60200101906001600160f81b031916908160001a9053506137a2600a86614742565b9450613742565b949350505050565b60008260000182815481106137c8576137c86144c0565b9060005260206000200154905092915050565b600081815260018301602052604081205480156138c45760006137ff600183614756565b855490915060009061381390600190614756565b9050818114613878576000866000018281548110613833576138336144c0565b9060005260206000200154905080876000018481548110613856576138566144c0565b6000918252602080832090910192909255918252600188019052604090208390555b85548690806138895761388961476d565b6001900381819060005260206000200160009055905585600101600086815260200190815260200160002060009055600193505050506109e0565b60009150506109e0565b60006138d982613517565b9050836001600160a01b031681600001516001600160a01b0316146139105760405162a1148160e81b815260040160405180910390fd5b6000336001600160a01b038616148061392e575061392e8533612ecd565b8061394957503361393e84610a78565b6001600160a01b0316145b90508061396957604051632ce44b5f60e11b815260040160405180910390fd5b6001600160a01b03841661399057604051633a954ecd60e21b815260040160405180910390fd5b61399c600084876132c7565b6001600160a01b038581166000908152600560209081526040808320805467ffffffffffffffff198082166001600160401b0392831660001901831617909255898616808652838620805493841693831660019081018416949094179055898652600490945282852080546001600160e01b031916909417600160a01b42909216919091021783558701808452922080549193909116613a70576000548214613a7057805460208601516001600160401b0316600160a01b026001600160e01b03199091166001600160a01b038a16171781555b50505082846001600160a01b0316866001600160a01b03167fddf252ad1be2c89b69c2b068fc378daa952ba7f163c4a11628f55a4df523b3ef60405160405180910390a45b5050505050565b604051630a85bd0160e11b81526000906001600160a01b0385169063150b7a0290613af1903390899088908890600401614783565b6020604051808303816000875af1925050508015613b2c575060408051601f3d908101601f19168201909252613b29918101906147b6565b60015b613b87573d808015613b5a576040519150601f19603f3d011682016040523d82523d6000602084013e613b5f565b606091505b508051613b7f576040516368d2bf6b60e11b815260040160405180910390fd5b805181602001fd5b6001600160e01b031916630a85bd0160e11b149050949350505050565b6000818152600183016020526040812054613beb575081546001818101845560008481526020808220909301849055845484825282860190935260409020919091556109e0565b5060006109e0565b610b4583838360016000546001600160a01b038516613c2457604051622e076360e81b815260040160405180910390fd5b83613c425760405163b562e8dd60e01b815260040160405180910390fd5b6001600160a01b038516600081815260056020908152604080832080546fffffffffffffffffffffffffffffffff1981166001600160401b038083168c0181169182176801000000000000000067ffffffffffffffff1990941690921783900481168c01811690920217909155858452600490925290912080546001600160e01b031916909217600160a01b429092169190910217905580808501838015613cf357506001600160a01b0387163b15155b15613d7c575b60405182906001600160a01b038916906000907fddf252ad1be2c89b69c2b068fc378daa952ba7f163c4a11628f55a4df523b3ef908290a4613d446000888480600101955088613abc565b613d61576040516368d2bf6b60e11b815260040160405180910390fd5b80821415613cf9578260005414613d7757600080fd5b613dc2565b5b6040516001830192906001600160a01b038916906000907fddf252ad1be2c89b69c2b068fc378daa952ba7f163c4a11628f55a4df523b3ef908290a480821415613d7d575b50600055613ab5565b828054828255906000526020600020908101928215613e06579160200282015b82811115613e06578251825591602001919060010190613deb565b50613e12929150613e89565b5090565b828054613e229061444e565b90600052602060002090601f016020900481019282613e445760008555613e06565b82601f10613e5d57805160ff1916838001178555613e06565b82800160010185558215613e065791820182811115613e06578251825591602001919060010190613deb565b5b80821115613e125760008155600101613e8a565b6001600160a01b0381168114611ed757600080fd5b60008060408385031215613ec657600080fd5b823591506020830135613ed881613e9e565b809150509250929050565b6001600160e01b031981168114611ed757600080fd5b600060208284031215613f0b57600080fd5b8135612a8d81613ee3565b60005b83811015613f31578181015183820152602001613f19565b838111156125dc5750506000910152565b60008151808452613f5a816020860160208601613f16565b601f01601f19169290920160200192915050565b602081526000612a8d6020830184613f42565b600060208284031215613f9357600080fd5b5035919050565b60008060408385031215613fad57600080fd5b8235613fb881613e9e565b946020939093013593505050565b600081518084526020808501945080840160005b83811015613ff657815187529582019590820190600101613fda565b509495945050505050565b6060815260006140146060830186613fc6565b6020838203818501526140278287613fc6565b8481036040860152855180825282870193509082019060005b818110156140655784516001600160a01b031683529383019391830191600101614040565b509098975050505050505050565b60006020828403121561408557600080fd5b8135612a8d81613e9e565b634e487b7160e01b600052604160045260246000fd5b604051601f8201601f191681016001600160401b03811182821017156140ce576140ce614090565b604052919050565b600082601f8301126140e757600080fd5b813560206001600160401b0382111561410257614102614090565b8160051b6141118282016140a6565b928352848101820192828101908785111561412b57600080fd5b83870192505b8483101561414a57823582529183019190830190614131565b979650505050505050565b60008060006060848603121561416a57600080fd5b833561417581613e9e565b925060208401356001600160401b0381111561419057600080fd5b61419c868287016140d6565b925050604084013590509250925092565b6000806000606084860312156141c257600080fd5b505081359360208301359350604090920135919050565b600080604083850312156141ec57600080fd5b82356141f781613e9e565b91506020830135613ed881613e9e565b60608152600061421a6060830186613fc6565b828103602084015261422c8186613fc6565b905082810360408401526142408185613fc6565b9695505050505050565b60008060006060848603121561425f57600080fd5b833561426a81613e9e565b9250602084013561427a81613e9e565b929592945050506040919091013590565b60006020828403121561429d57600080fd5b81356001600160401b038111156142b357600080fd5b6137a9848285016140d6565b600080604083850312156142d257600080fd5b50508035926020909101359150565b60006001600160401b038311156142fa576142fa614090565b61430d601f8401601f19166020016140a6565b905082815283838301111561432157600080fd5b828260208301376000602084830101529392505050565b60006020828403121561434a57600080fd5b81356001600160401b0381111561436057600080fd5b8201601f8101841361437157600080fd5b6137a9848235602084016142e1565b602081526000612a8d6020830184613fc6565b8015158114611ed757600080fd5b600080604083850312156143b457600080fd5b82356143bf81613e9e565b91506020830135613ed881614393565b600080600080608085870312156143e557600080fd5b84356143f081613e9e565b9350602085013561440081613e9e565b92506040850135915060608501356001600160401b0381111561442257600080fd5b8501601f8101871361443357600080fd5b614442878235602084016142e1565b91505092959194509250565b600181811c9082168061446257607f821691505b6020821081141561448357634e487b7160e01b600052602260045260246000fd5b50919050565b60208082526018908201527f436f6e747261637420646f6573206e6f74206578697374730000000000000000604082015260600190565b634e487b7160e01b600052603260045260246000fd5b634e487b7160e01b600052601160045260246000fd5b6000600019821415614500576145006144d6565b5060010190565b6020808252818101527f4f776e61626c653a2063616c6c6572206973206e6f7420746865206f776e6572604082015260600190565b6020808252601f908201527f5265656e7472616e637947756172643a207265656e7472616e742063616c6c00604082015260600190565b6001600160a01b039384168152919092166020820152604081019190915260600190565b60208082526019908201527f596f7520646f206e6f74206f776e2074686973206c616e642100000000000000604082015260600190565b634e487b7160e01b600052601260045260246000fd5b6000826145f3576145f36145ce565b500690565b60008060006060848603121561460d57600080fd5b8351925060208401519150604084015161462681614393565b809150509250925092565b60208082526029908201527f54686973206974656d20646f6573206e6f742062656c6f6e6720746f20796f756040820152687220636f6c6f6e792160b81b606082015260800190565b6000821982111561468d5761468d6144d6565b500190565b600060ff821660ff84168060ff038211156146af576146af6144d6565b019392505050565b60008160001904831182151516156146d1576146d16144d6565b500290565b6000602082840312156146e857600080fd5b8151612a8d81613e9e565b600060ff821660ff81141561470a5761470a6144d6565b60010192915050565b60008351614725818460208801613f16565b835190830190614739818360208801613f16565b01949350505050565b600082614751576147516145ce565b500490565b600082821015614768576147686144d6565b500390565b634e487b7160e01b600052603160045260246000fd5b6001600160a01b038581168252841660208201526040810183905260806060820181905260009061424090830184613f42565b6000602082840312156147c857600080fd5b8151612a8d81613ee356fea264697066735822122068de793d844e2e2968e93d3d6bce4eea583c3474605ec77cf6ec5349c7fba70e64736f6c634300080b00334f776e61626c653a2063616c6c6572206973206e6f7420746865206f776e6572",
  "linkReferences": {},
  "deployedLinkReferences": {}
}